:02000004080AE8
:1000000000000A08D8AF0A08000006000600050133
:080010000402350800000000A5
:0400180038A30A08F7
:1000200009480A4908B5884205D0094A824202D0E7
:10003000121A0AF0DDF80748074A0021121A0AF0DE
:10004000E5F8064808BD00BF0000002044AF0A08DC
:100050006C0000206C000020AC140020AC140020C8
:1000600070B505F093FA0025054E064CA41BA408B4
:10007000A54200D170BD56F8043B98470135F7E71B
:1000800018AF0A0840AF0A0802F00CB908B502F030
:10009000F9F9BDE8084005F03BBA03F027BF03F0CB
:1000A00025BF03F02BBF0078B0FA80F040097047FD
:1000B00001230370704700002DE9F04F92469B46E4
:1000C0000026284F87B0284AF3B2B2F900209342A5
:1000D00044DA4FF000094FEA8308244B5FFA89F4B1
:1000E000B3F9003009F101099C4235DA3B68A4B24A
:1000F00053F80800214603F026FA0546C0F307200E
:1001000009F086F952465B4609F0ECF909F0C2FCA9
:10011000C3B2C5F30740039309F07AF952465B4630
:1001200009F0E0F909F0B6FCC3B204933B68E8B209
:10013000059309F06DF952465B4609F0D3F909F0D1
:10014000A9FCDDE90332C0B200900598214650F8C1
:10015000080003F0A1F9C0E70136B4E707B0BDE835
:10016000F08F00BF700000207E0000207C00002087
:100170002DE9F04F4FF0000985B0CDE90223DFF8FB
:10018000BCB02C4B5FFA89F4B3F900309C424DDAD5
:100190004FF0000AA400284B5FFA8AF5B3F900304B
:1001A0000AF1010A9D423EDADBF80030ADB218597F
:1001B000294603F0C8F98046C0F3074009F028F942
:1001C000DDE9022309F08EF909F03CFC0646C8F38C
:1001D000072009F01DF9DDE9022309F083F909F090
:1001E00031FC07465FFA88F009F012F9DDE90223D5
:1001F00009F078F909F026FC0F9B9F42B8BF1F4613
:100200000E9B9E42B8BF1E46109BF2B28342B8BFFF
:100210000346DBF80000D9B2009100592946FBB231
:1002200003F03AF9B7E709F10109AAE705B0BDE81B
:10023000F08F00BF7E0000207C00002070000020B6
:100240002DE9F74316460024DFF83080DFF83090C0
:100250008D00DFB2B8F90030A3420CDD0A9BD9F85B
:100260000000DBB20093A1B23B464059F2B203F06A
:1002700013F90134EEE703B0BDE8F0837C00002001
:10028000700000202DE9F743002402AB03E90600CB
:100290000E4E0F4FB6F90030A34213DD0025DFF8F4
:1002A00034904FEA8408B9F90030AB4208DD3B686E
:1002B000A9B2009A53F8080003F017F90135F2E7E4
:1002C0000134E7E703B0BDE8F08300BF7E00002003
:1002D000700000207C00002070B50024094E0A4DFB
:1002E000B6F90030A3420BDD2B6853F8240002F06E
:1002F0005AF92B6853F8240002F062F90134EFE751
:1003000070BD00BF7E000020700000202DE9F74F77
:100310000F469046DFF8CCB09DF83020DBF80000A7
:100320001C469DF83830414650F827000093019252
:100330009DF834A003F007F9214606464FF07E50A1
:1003400009F01CFC0546C6F3072009F0CDFC294640
:1003500009F01EFD8146504609F0C6FC214609F011
:1003600017FD0146484609F00BFC09F013FF5FFA40
:1003700080FAC6F3074009F0B7FC294609F008FDEA
:10038000019A8146104609F0AFFC214609F000FDB4
:100390000146484609F0F4FB09F0FCFE5FFA80F9DB
:1003A000F0B209F0A1FC294609F0F2FC009B0546D9
:1003B000184609F099FC214609F0EAFC0146284656
:1003C00009F0DEFB09F0E6FE53464A464146DBF8FB
:1003D00000B0C0B20C905BF8270003B0BDE8F04F4E
:1003E00003F05AB8700000202DE9F84300240E4EA7
:1003F0000E4FB6F90030A34213DD0025DFF8309030
:100400004FEA8408B9F90030AB4208DD3B68A9B275
:10041000002253F8080003F068F80135F2E70134D0
:10042000E7E7BDE8F88300BF7E00002070000020F1
:100430007C0000202DE9F04F044697B000F5B07025
:100440000D46CDE9082303F049F904F5C87003F01F
:1004500045F904F5E07003F0BDF8954B0899954A0D
:1004600019806FF060418D422CBF4FF0FF3A4FEA88
:10047000850A5046904699461580FFF710FE0026E3
:100480006FF0604B8C4F3860B8F90020B2420FDD3E
:10049000B9F900003B6858452CBF4FF0FF30800091
:1004A0000793FFF7FCFD079B43F826000136EBE7B7
:1004B0005046FFF7F4FD814B264600279A46DFF8A9
:1004C0001492DFF80CB21860A4F104083BB29D420C
:1004D00049DD1020FFF7E1FD079030B1209A099B1C
:1004E000D25DBDF8201002F047F8DAF80030079A24
:1004F0001D2143F827200A2004F079F93A2148F811
:10050000040F002004F073F909F0EEFB0A21C8F88B
:100510002000002004F06BF90528CCBF01234FF028
:10052000FF330A21C8F86030052004F060F909F0B3
:10053000DBFB494609F0E0FCC8F84000DBF80000AE
:1005400001F0CFFDC6F88000DBF8000001F0CBFD24
:10055000C6F88400DBF8000001F0C7FD0137C6F8DB
:1005600088000C36B2E70123192532211E226427A8
:10057000C4E93832C4E93D514B20C4F814116FF07E
:100580001D029621C4F8E820C4E94671C4E94D0172
:100590004FF0FF32E1214FF00F0AC4E93F02C4E9F6
:1005A0004F124FF4E872C4F80451E8254FF0C80C1C
:1005B000C4E951A22E224FF000084FF00009C4F800
:1005C00008511426B9250421C4E956C2DFF808B140
:1005D0003B4AC4E94965C4E93B83C4E94383C4E9B0
:1005E0004B83C4F82031C4F8547111600AA8C4E9DF
:1005F00053834A465146CDE90477CDE902A7314BF2
:10060000CDF804B0CDF8009004F5B0760AAD03F053
:1006100066F80FCD0FC60FCD0FC695E80F0086E820
:100620000F005146274B284ACDF804B0CDF8009072
:100630000AA8CDE90477CDE902A704F5C87603F04E
:100640004EF80DF1280CBCE80F000FC6BCE80F00F7
:100650000FC695E80F0086E80F00CDE90277CDE9D7
:1006600000A74FF076520321184B0AA804F5E07753
:100670000AAE02F0B1FF0FCE0FC70FCE0FC795E83D
:100680000F0087E80F00C4F8F08103F0F1F9C4F817
:100690001492C4F818022046FFF71EFE2046FFF70A
:1006A000A3FE2046219A0A4B1A6017B0BDE8F08FCE
:1006B0007C0000207E0000208000002070000020D0
:1006C000780000200000E8410000E040CDCC4C3F25
:1006D00074000020000070416666663F002370B51C
:1006E000074E084DB6F900205C1CDBB2934206DAD7
:1006F0002A6852F8230001F063FF2346F2E770BD39
:100700007E000020700000202DE9F34100244FF40A
:100710007A774026DFF82C80D8F8005003F0A8F94B
:10072000B0FBF7F04023009600F00700A1B21A4694
:1007300055F82000013402F0AFFE3A2CECD102B0A3
:10074000BDE8F081700000202DE9F04F0646054617
:1007500000274FF07E5A87B0041F6D4BB3F900306D
:10076000BB4240F3D180606A09F0EEFC636E5FFA31
:1007700087F9012B1FFA80F840F0918000280BDDEB
:10078000002308F1FF32CDE9013300934946534677
:10079000304692B2FFF7BAFD95F88830626802934E
:1007A00095F884300132019395F88030424492B23A
:1007B0004946304600935346FFF7A8FDD4F864B08D
:1007C000584609F091FA616C09F0E2FA616A09F0A1
:1007D000D7F9606208F02EFE804654F8040F89466F
:1007E00008F016FE02460B46CDE904230022494BD1
:1007F00008F078FE02460B464046494609F0E4F808
:10080000002866D0BBF1000F63DA01230A21002023
:10081000236603F0ECFF05281ADD1D210A2003F0F2
:10082000E6FF2268C30F82420344B8BF02EBD272D4
:100830008046B8BF52104FEA6300C0F10000BCBF51
:10084000C2EB6303C01A09F04FFAC4F800802062BB
:100850000A21002003F0CBFF072809DD0A2105202B
:1008600003F0C5FF09F040FA2B4909F045FB20646D
:10087000DFF8B080D8F8000001F033FCC5F8800044
:10088000D8F8000001F02FFCC5F88400D8F800006B
:1008900001F02BFCC5F8880001370C355DE7002816
:1008A00010DD95F8883008F1FF32029395F8843016
:1008B0004946019395F880303046009392B25346F2
:1008C000FFF724FD00236268CDE901330132424481
:1008D0006DE70022DDE90401104B08F003FE02463B
:1008E0000B4600200E4908F045FC02460B464046E8
:1008F000494609F087F80028CED0BBF1000FCBDDC8
:100900004FF0FF332366B3E707B0BDE8F08F00BFB9
:100910007E0000200000E0BF000070410000E03FCA
:1009200000004D40740000202DE9F341FFF75CFD0D
:1009300000244FF47A770A25DFF83480D8F80030A5
:100940001E5903F095F8B0FBF7F0B0FBF5F140232A
:1009500005FB1101C1F13A011A463046009389B2F4
:10096000043402F099FD202CE8D102B0BDE8F081FA
:100970007000002070B50646084608F049FD0446A0
:100980000D46304608F056FD22462B46BDE8704025
:1009900005F0C8B8000000002DE9F04F8FB00C92B0
:1009A0009DF860208146184609920C4608F042FDE9
:1009B00002460B464846FFF77FFB099B002B4AD0B7
:1009C000E3692068184409F08FF94FF07C5109F071
:1009D000DFF9B14909F090FA05F0A2FAAF4909F040
:1009E000CFF8AF4909F0D4F9AE4909F0D1F9089030
:1009F0004FF0000BAC4B5FFA8BF5B3F900309D4222
:100A000080F2338100230793A84B9DF81CA0B3F913
:100A100000309A4580F22681099B6BB1089809F055
:100A2000B9FBC0B2CDE9010000904FF07C535246B3
:100A300029464846FFF76AFC9B4BB3F90030082B68
:100A400040F09E80072D00F2BB80DFE805F0078BA9
:100A50008D8F9193959700230893C9E7606809F0FB
:100A600043F909F071FB0D9009F03EF98A4909F04C
:100A700043FA0221FFF77EFFCDE90A01504608F054
:100A8000C7FC002207468846DDE90A01884B08F0CA
:100A900029FD02460B463846414608F095FF0028DE
:100AA0005CD00D9B580008F0B3FC71A3D3E9002380
:100AB00008F018FD70A3D3E9002308F03DFE09F00B
:100AC00009F87C4B8046186801F009FB032390FB72
:100AD000F3F303EB4303C01A012873D0022800F09C
:100AE000928068BB404604F0E1FF6E4909F050F97E
:100AF00009F02AFB0590404608F09CFC60A3D3E96E
:100B0000002306460F4608F035FB04F079FF5EA38C
:100B1000D3E9002308F0E6FC08F094FF5CA3D3E9D6
:100B2000002306903046394608F024FB04F068FFA5
:100B300055A3D3E9002308F0D5FC08F083FF06464F
:100B4000F3B202939DF81830524601939DF8143089
:100B50002946009348460C9BFFF7D8FB079B0133BF
:100B6000079351E7E0687AE7606978E7A06976E77C
:100B7000606B74E7206B72E7A06A70E7206A6EE72B
:100B80000A2B1DD1092D1BD801A353F825F000BF56
:100B90005D0A0A08B90B0A08650B0A08690B0A08FE
:100BA0006D0B0A08710B0A08750B0A08790B0A0805
:100BB000BD0B0A087D0B0A08A06850E7606A4EE783
:100BC00000204CE7404608F035FC31A3D3E9002370
:100BD00006460F4608F0CEFA04F012FF2AA3D3E926
:100BE000002308F07FFC08F02DFF0590404604F03C
:100BF0005DFF2C4909F0CCF809F0A6FA20A3D3E94F
:100C0000002306908EE7404608F014FC1CA3D3E9AD
:100C1000002306460F4608F0ADFA04F0F1FE1AA3D1
:100C2000D3E9002308F05EFC08F00CFF18A3D3E919
:100C3000002305903946304608F09CFA04F0E0FEA7
:100C400011A3D3E9002308F04DFC08F0FBFE069049
:100C5000404604F02BFF134909F09AF809F074FAA2
:100C600006466DE70BF1010BC4E60FB0BDE8F08F4F
:100C70007A008BFCFA2109400000000000FEAF4022
:100C80005100B2FD51C100400000000000E06F4083
:100C90005100B2FD51C1104000F07F453333333F66
:100CA0000000A04000007F437E0000207C00002068
:100CB00000004D40740000202DE9F04F064689B039
:100CC000184690460C4608F0B5FB664D02460B46AA
:100CD0003046FFF7F1F90021286801F0FCF908B36C
:100CE000332061490B68013393FBF0F200FB1233B0
:100CF0000B600023DFF87C91DFF87CA105935B4B50
:100D00009DF81450B3F900309D4280F2A78000276F
:100D1000DFF854B1072D58D8DFE805F00B4B4D4FE5
:100D200051534F550121286801F0D5F90028D7D13A
:100D3000DFE7206808F0D8FF09F006FA08F0D4FFD2
:100D4000494609F0D9F80790384608F0CDFF0799D1
:100D50000690084609F01CF8514609F019F8069B60
:100D60000146184609F0B2F9A8B10C23DBF80000DF
:100D70003F494343C81890F808C0CB5C0079C7F1DD
:100D80001D0201900093294643463046CDF808C025
:100D900092B2FFF7BBFA01371D2FBBD10027DFF856
:100DA000C8B0072D58D8DFE805F0124B4D4F51530E
:100DB0004F556068BEE7A068BCE7E068BAE7206905
:100DC000B8E76069B6E7A069B4E70020B2E7E06978
:100DD00008F08AFF09F0B8F908F086FF494609F0E3
:100DE0008BF80790384608F07FFF07990690084671
:100DF00008F0CEFF514608F0CBFF069B014618468F
:100E000009F064F9A8B10C23DBF80000184943434A
:100E1000C81890F808C0CB5C007907F11D0201905A
:100E20000093294643463046CDF808C092B2FFF7FA
:100E30006DFA01371D2FB4D1059B013305935EE791
:100E4000206AC5E7606AC3E7A06AC1E7E06ABFE756
:100E5000206BBDE7606BBBE70020B9E709B0BDE8D8
:100E6000F08F00BF74000020780000207E0000207A
:100E70004CA30A0800F07F450000E8412DE9F04F3F
:100E8000044689B0184690460D4608F0D3FA434E02
:100E900002460B462046FFF70FF9306801F01FF9B4
:100EA000D4F8F03198420DD0306801F018F9C4F848
:100EB000F00133203A490B68013393FBF0F200FB59
:100EC00012330B602B68E869072618442B6ADFF899
:100ED000D0B018446B680025184408F005FF4FF0A7
:100EE0007A5108F055FF2F4909F006F8014608F03D
:100EF0004FFF2D4908F04CFF08F09CFA00222B4BC5
:100F000008F03AF908F09EFDDFF8A4900490049BE5
:100F1000C5F1040793FBF7F74FF0000A07EBD7730F
:100F20005B10C3F11D030593EBB20693BA452CDAAF
:100F30000C21059B03EB0A02DBF8003092B24B4315
:100F400009EB0301087A19F803300979029001913D
:100F500020460699009343460792FFF7D7F90C21E4
:100F6000DBF80030079A4B4309EB0301087A19F8C4
:100F7000033009790290019100933146434620469F
:100F8000FFF7C4F90AF1010AD0E70135013E042D4B
:100F9000F6B2BCD109B0BDE8F08F00BF74000020EC
:100FA0007800002000F07F45000068420000E03F2C
:100FB0004CA30A082DE9F04F044689B0184617469D
:100FC0000D4608F037FA6C4E02460B462046FFF7F6
:100FD00073F8306801F083F8D4F8F03198420DD0FE
:100FE000306801F07CF8C4F8F001332063490B68E5
:100FF000013393FBF0F200FB12330B602A68EB69BC
:10100000696813442A6AE8680A441344A9686A6A4A
:101010000A441344AA6A02441344E86A2A69104441
:1010200003446A69286B10440344AA69686B10443E
:10103000184408F059FE4FF07C5108F0A9FE08F062
:10104000F9F900224E4B08F04DFA8046D4F814020C
:10105000894608F0EFF90022494B08F043FA0B46A5
:1010600002464946404608F087F808F033FDC4F8C8
:101070001402054602F0FCFCD4F81832C01A2328EA
:101080002BD902F0F5FCD4F8F8314FF07A51C4F8BE
:10109000F431D4F8FC31C4F81802C4F8F831D4F8AB
:1010A00000322846C4F8FC31D4F80432C4F80032C7
:1010B00008F06EFE334908F01FFF014608F068FE95
:1010C000314908F065FE08F0B5F900222C4B08F014
:1010D00053F808F0B7FCC4F804020725002604F50D
:1010E000FA73DFF898B0DFF8A48004934FF000099A
:1010F000049B53F804AB04930AEBDA735B10C3F15F
:101100001D030593F3B20693D1452CDA0C21059B00
:1011100003EB0902DBF8003092B24B4308EB03010A
:10112000087A18F80330097902900191204606994F
:1011300000933B460792FFF7E9F80C21DBF80030FB
:10114000079A4B4308EB0301087A18F80330097932
:1011500002900191009329463B462046FFF7D6F8BE
:1011600009F10109D0E70136013D042EEDB2BDD1F0
:1011700009B0BDE8F08F00BF7400002078000020A7
:101180000000E03F00F07F45000068424CA30A08E1
:101190002DE9F043054685B0184608F04BF90024C8
:1011A0000B460A210246CDE9014128460094FEF78C
:1011B000DFFFDFF870901A4EDFF86C802146D9F817
:1011C000000000F088FF28B3C82333271A46009395
:1011D00021462846FFF734F83368062C03F1010353
:1011E00093FBF7F207FB1233336013D10C225A43FF
:1011F00008EB0203996858F802205B6800912846C2
:101200000721FFF71DF83368013393FBF7F207FB63
:10121000123737600134072CD0D105B0BDE8F08318
:1012200078000020740000204CA30A080000000091
:101230002DE9F04F80468BB0184691460D4608F0D8
:10124000F9F802460B464046FEF736FF00230593A9
:10125000694B9DF81470B3F900309F4280F2B8805A
:10126000664BDFF8A4B11C88BB00013C24B2089394
:10127000002C25DDA4B2DBF80030089A611E9858D6
:1012800089B202F060F9C0F30743C0F3072AC6B27F
:1012900022463946404606930093CDE901A64B46C7
:1012A000FFF734F8069B621C009339464B464046D4
:1012B000CDE901A692B2023CFFF728F824B2D7E7A5
:1012C000072F00F28380DFE807F004737577797BDE
:1012D0007D7F686808F008FD08F036FF044640008E
:1012E00008F096F83CA3D3E9002308F0FBF83CA3F0
:1012F000D3E9002308F020FA08F0ECFB064620466C
:1013000008F0F2FC3E4908F0F7FD3E4908F040FDC8
:10131000014608F03DFD3B49044608F0F5FE00B1EA
:10132000384C304608F086F82FA3D3E900238246D4
:101330008B4607F01FFF04F063FBCDE90801204650
:1013400008F078F82AA3D3E90023CDE90601504636
:10135000594607F00FFF04F053FB824630468B4698
:1013600004F0A4FB0146204608F012FD08F012FF2D
:10137000C0B252465B460290DDE9060108F0B2F8C1
:1013800008F088FBDDE90623C0B20190DDE9080121
:1013900008F0A8F808F07EFBC0B24B46009000228F
:1013A00039464046FEF7B2FF059B013305934FE7F0
:1013B000E8688FE768698DE7A8698BE7686B89E75C
:1013C000286B87E7A86A85E7286A83E7002081E71A
:1013D0000BB0BDE8F08F00BF7A008BFCFA2109400A
:1013E0000000000000FEAF405100B2FD51C11040AE
:1013F0005100B2FD51C100407E0000207C00002061
:1014000000F07F4500007F43700000202DE9F04F81
:10141000044600F5E07600F5B07A85B050460F46F8
:1014200004F5C879314602F073F9514D314648460A
:1014300002F06EF9304602F0E9F8286800F04FFE3D
:10144000D4F8F03198421BD0286800F048FE032100
:10145000C4F8F001002003F0CAF900283AD1286846
:1014600000F03FFE8046286800F03DFE8246286876
:1014700000F03BFE524603464146484602F0F4F96E
:101480002046FEF7B1FF254604F1600B4FF000083F
:1014900005F5B07AD5F86031434544DD504602F099
:1014A000D9F98146504602F0DAF995F88C3100EB13
:1014B0000802029395F888312046019395F884310B
:1014C00092B200935FFA89F13B46FEF71FFF08F1E5
:1014D0000108DFE70221002003F089F988B92868B4
:1014E00000F0FFFD8046286800F0FDFD8146286879
:1014F00000F0FBFD4A4603464146504602F0B4F96F
:10150000BEE7286800F0EDFD8046286800F0EBFD9E
:101510008146286800F0E9FD4A46034641463046C8
:1015200002F0D8F8ACE730355D45AFD10025D4F8EE
:10153000D831AB4219DD304602F0C2F88046304661
:1015400002F0C3F894F8EC314219029394F8E831B0
:101550002046019394F8E43192B200935FFA88F147
:101560003B46FEF7D3FE0135E1E705B0BDE8F08F5D
:10157000740000202DE9F04F054699B018460C463E
:10158000079207F057FF261F02460B462846FEF734
:1015900093FD374618340DF1280957F8040F08F069
:1015A000A3FB8046F86908F09FFB0146404608F01F
:1015B000A3FCBC4249F8040BEFD14FF07C59DFF893
:1015C000FC800DF1440A56F8040F08F08DFB074625
:1015D000F06908F089FB0146384608F0D1FA49461F
:1015E00008F0D6FB414608F087FCB4424AF8040BE9
:1015F000E9D100272E4B5FFA87F9B3F900309945FE
:1016000053DA4FF000082B4B5FFA88FAB3F9004029
:10161000274BA245B3F9000045DA99FBF0F008F03A
:1016200063FB83469AFBF4F008F05EFB01462398C7
:1016300008F062FC002400260AAA069011AB05926D
:1016400053F8042B5946CDE90823059B013453F880
:10165000040BE4B2059308F091FA20F000412298BF
:1016600008F04AFC069908F08BFA089A114608F02F
:101670008FFB0146304608F083FA072C0646099B8B
:10168000DED10D4908F084FB08F084FDC0B2CDE93D
:1016900001000090524649462846079BFEF736FE59
:1016A00008F10108AFE70137A4E719B0BDE8F08FF2
:1016B0007E0000207C00002000007F4300F07F457A
:1016C0002DE9F04F8DB0059018460A928A4607F032
:1016D000B1FE02460B460598FEF7EEFC4FF0000BFC
:1016E000B44B5FFA8BF7B3F9003003EBD373B7EB6E
:1016F000630F4FEA63046DDA00240A26A046B4FBA8
:10170000F6F35AF8230008F0EFFA08F01DFD08F090
:10171000EBFAA94908F0F0FB0221FFF72BF902468A
:101720000B463846CDE9082307F072FEA14BCDE900
:101730000601B3F9000000EBD070401007F068FE1E
:10174000DDE9082307F0CEFE02460B46DDE906017F
:1017500008F03AF9002830D01FFA88F505F1500357
:101760009BB20693F943934BB3F90090934B09EB6B
:10177000D979186801EB690900F0B3FC8F4B0B9025
:10178000186800F0B0FC8D4B0890186800F0ADFCB4
:10179000089A0B9BC0B20290D0B201905FFA89F90F
:1017A000D8B22A460A9B009049460598FEF7AEFD3E
:1017B0000835069BADB2AB42D4D108F10103B3FBAF
:1017C000F6F20A34E4B23C2C06FB123897D10BF146
:1017D000010B85E7794FE4B2764BB3F900309C42B8
:1017E00069DA00254FF00A082E46B5FBF8F30AEB3C
:1017F0008303D86908F078FA6E4B8146B3F900305C
:1018000003EBD373A4EB630007F002FECDE90601FE
:10181000484608F099FC08F067FA674908F06CFB45
:101820000221FFF7A7F802460B46CDE90823614BDA
:10183000B3F9000000EBD070401007F0E9FDDDE9DE
:10184000082307F04FFE02460B46DDE9060108F0CB
:10185000BBF820B31FFA86FB0BF150091FFA89F978
:10186000386800F03EFC0890386800F03CFC0690B8
:10187000386800F03AFC069A089BD2B2C0B20192D6
:10188000DBB25A460BF1080B0290009321460A9BEB
:1018900005981FFA8BFBFEF739FDD945E0D10136DB
:1018A000B6FBF8F30A35EDB23C2D08FB13669CD16C
:1018B0000134E4B290E700233F4D0A933D4B9DF87D
:1018C0002840B3F900309C4280F2DC804FF0000BDE
:1018D000072C6DD8DFE804F0045A5D606366606928
:1018E000DAF8000008F000FA08F02EFC08F0FCF925
:1018F000294608F001FB0221FFF73CF880465846D4
:10190000894607F085FD002206460F462C4B4046CF
:10191000494607F0E7FD02460B463046394608F0D7
:1019200053F800B3DFF89480D8F8000000F0D9FB3A
:101930000646D8F8000000F0D6FB0746D8F80000AD
:1019400000F0D3FBFF43C043F643C0B2CBF11D020E
:10195000FFB2F6B2029021461A4B05980197009605
:1019600092B2FEF7D3FC0BF1010BBBF10E0FAFD11E
:101970004FF01D0BBBF12C0F00F08080072C7BD8A3
:10198000DFE804F022686B6E71746E77DAF8040099
:10199000A8E7DAF80800A5E7DAF80C00A2E7DAF819
:1019A00010009FE7DAF814009CE7DAF8180099E7CE
:1019B000002097E77E00002000F07F4574000020A3
:1019C00000003D403333733FDAF81C0008F08CF917
:1019D00008F0BAFB08F088F9294608F08DFA0221D0
:1019E000FEF7C8FF0646ABF11D000F4607F010FDDD
:1019F000002280468946254B3046394607F072FD65
:101A000002460B464046494607F0DEFFF8B1DFF8D4
:101A10008480D8F8000000F064FB0646D8F8000087
:101A200000F061FB0746D8F8000000F05EFBFF43C2
:101A3000C043F643C0B2FFB2F6B202902146144B47
:101A40000598019700961FFA8BF2FEF75FFC0BF1E9
:101A5000010B8FE7DAF82000B8E7DAF82400B5E7E1
:101A6000DAF82800B2E7DAF82C00AFE7DAF830004D
:101A7000ACE7DAF83400A9E70020A7E70A9B0133B6
:101A80000A931BE70DB0BDE8F08F00BF00003D409A
:101A90003333733F7400002000232DE9F0470546DF
:101AA00086B00493ADF814308DF8163006AB13E908
:101AB0000600FEF7E7FB2C4601263A27DFF81491D3
:101AC00005F180084FF0000AD4F8E430534521DDD9
:101AD000D4F8E8202846524492FBF7F101F00103C4
:101AE0000029B8BF5B42012B94F8FC3007FB1122A0
:101AF000029394F8F83008BFC2F14502019394F8BC
:101B0000F43092B20093C9B24B46FEF7FFFB0AF1E4
:101B1000010AD9E7B6B10A21002002F068FE0728C1
:101B200010DD2A4E306800F0DCFAC4F8F4003068AA
:101B300000F0D9FAC4F8F800306800F0D6FA0026B0
:101B4000C4F8FC00D4F8EC30D4F8F0200133934210
:101B5000C4F8EC30D4F8E02007DB0023C4F8EC3004
:101B6000D4F8E8301344C4F8E830002A0DDDD4F886
:101B7000E430D4F8E82003F5E8739A420DDC203411
:101B8000A0459FD106B0BDE8F087F8D0D4F8E43086
:101B9000D4F8E8205B429A42F1DA0A21002002F0F0
:101BA00026FE32210A4A1368184490FBF1F301FB28
:101BB00013001060D4F8E030002BD2BF4FF4E8736C
:101BC000D4F8E4305B42C4F8E830D8E77400002071
:101BD000780000203333733F2DE9F74F0C468346DE
:101BE00001F046FF08F07CF83D4908F085F94FF018
:101BF0007E5104F035F9014607F0C2FF07F01AFCE8
:101C00002FA3D3E9002307F06DFC07F063FF05461F
:101C100003F04CFF334908F0BBF8214608F0B8F850
:101C200008F0B8FA5FFA80FA284607F003FC26A30A
:101C3000D3E9002306460F4607F09CFA03F0E0FEC6
:101C400080462046894607F0F5FB21A3D3E900230F
:101C500004460D464046494607F044FC22462B46C2
:101C600007F040FC07F016FF1BA3D3E900235FFA3F
:101C700080F83946304607F07DFA03F0C1FE14A320
:101C8000D3E9002307F02EFC22462B4607F02AFC5E
:101C900007F000FF4FEA0823C0B243EA0A430343B8
:101CA0008DF80600584600938DF804A08DF8058045
:101CB00002AB13E9060003B0BDE8F04FFEF7E2BA4D
:101CC0007A008BFCFA2109405100B2FD51C100405D
:101CD0000000000000E06F405100B2FD51C1104013
:101CE00000401C4600007F43092A1FB504460BDC58
:101CF000002A10DB013A082A1ED8DFE802F0243956
:101D0000434D52343F292E004E2A53D00DDC422A37
:101D100058D04D2A4BD0334B186800F0D3F92046E9
:101D200004B0BDE81040FEF7D9BC582A47D0632A5A
:101D3000F1D1FEF7F9FDEEE700232B4A00932B4B80
:101D4000FEF72AFEE7E7294B274AFEF7B5FFE2E751
:101D5000274B254AFFF792F8DDE74FF07D53224AE3
:101D6000FFF728F9D7E7234B1F4AFFF711FAD2E70D
:101D70004FF07C52204BFFF75BFACCE71E49FFF790
:101D800045FBC8E71D4B184A01934FF07E53009363
:101D9000174BFFF7EFFBBEE7154B134AFFF790FC1D
:101DA000B9E74FF07A51164AFFF716FFB3E7FEF78F
:101DB000CBFCB0E74FF07D51FFF76EFEABE7FEF7CF
:101DC000A3FCA8E74FF47F030293FF23ADF80C3088
:101DD00000238DF80E3004AB13E90600FEF752FA2B
:101DE00099E700BF740000209A99193E9A99593FCB
:101DF000CDCC4C3F6666663F3D0A773F0000A04170
:101E0000000020410322002342610022C0E9013387
:101E1000C0E90333C0E9073330B503808370C0F8ED
:101E20008C2DC0F8902D00F53A6100F6D83400F6FC
:101E3000BC3541F8042B8A61A94204F8013BA37127
:101E4000F7D130BD000000002DE9F047036A02EB36
:101E500082051D4400EB820800EB850507460E460F
:101E6000D8F8BC0BD5F8141B14464FEA820A07F0C9
:101E700085FEC8F8BC0B814656F82400B2444043A6
:101E8000401007F031FF0646C5F8140BDAF81C00C5
:101E90004043401007F028FF314607F071FE064628
:101EA0000146C5F8140B484607F06AFE642524492C
:101EB000C8F8BC0B08F020F8FB69814605FB043527
:101EC00007EB8505696AD8F8A00B07F057FE6E622C
:101ED0000146304607F054FE1A49C8F8A00B08F036
:101EE0000BF83C4494F8D83B0546D3B9484607F074
:101EF000A1FA064628460F4607F09CFA0EA3D3E93E
:101F0000002307F0EFFA02460B463046394607F049
:101F100079FD20B1012384F8D83B84F8DF3BBDE88C
:101F2000F0870146484608F0D1F80028F7D0002392
:101F300084F8D83BF3E700BF9A9999999999F93FAA
:101F40000000A0400000C8422DE9F041066A0446A6
:101F500000EB86060D46D0F8900DD6F8781D07F0F8
:101F60000DFEC4F8900DEB6907465B43286800FB43
:101F70000030801007F0B8FE8046C6F8780D2B6A56
:101F800068685B4300FB0030801007F0ADFE4146FF
:101F900007F0F6FD05460146C6F8780D384607F00D
:101FA000EFFDE769C4F8900D04EB8707D7F8E81B4D
:101FB0000646D4F88C0D07F0E1FDC7F8E85B014652
:101FC000284607F0DDFD2C490546C4F88C0D304647
:101FD00007F092FF07F02EFA06460F4628462749DB
:101FE00007F08AFF07F026FA237883BB20A3D3E902
:101FF000002307F077FA32463B4607F0E5FC20B3B2
:1020000023696169013393FBF1F2236101FB123310
:102010001BB9A37883F00103A370FF26D4E9015311
:102020002B4493FBF6F2C2EB02229B1AC4E9025343
:10203000304602F0D1FB054495FBF6F640F2011361
:10204000C6EB0626AD1B65602380BDE8F0814FF02E
:1020500033320B4B07F046FA32463B4607F0D2FCD0
:102060000028F2D000232370EFE700BFAFF3008019
:10207000666666666666F63F0000A0400000C842DD
:102080003333F33F70B504460E460025FFF75CFF7F
:102090002A46314620460135FFF7D6FE072DF7D1F7
:1020A0006421E369013393FBF1F201FB1233052252
:1020B000E361236A013393FBF2F202EB82029B1A83
:1020C000236270BD0023437080F8DF3BC0F8E03B23
:1020D000A0F8E43B7047084490F8DF0B70470069B4
:1020E00070474068704780687047C068704710B597
:1020F0000446006808B101F001FF204610BD08B594
:1021000001210F2003F0D3FA01210C2003F0CFFAB4
:10211000012001F023FF00210C2003F0C8FA012068
:1021200001F01CFF00210F2003F0C1FA0C20012157
:1021300003F0BDFABDE80840012001F00FBF000028
:102140002DE9F74F0FF2B809D9E900892EA7D7E991
:10215000006700F11803A0F1040A019300210C208C
:1021600003F0A5FA282001F073FC0A2003F0B8FA66
:1021700083465AF8040F07F04BF942464B4607F0E6
:10218000B1F9044658460D4607F042F932463B463F
:1021900007F0A8F902460B462046294606F0ECFF58
:1021A00007F050FCCAF800000B2003F099FA8346B0
:1021B000DAF81C0007F02CF942464B4607F092F97A
:1021C000044658460D4607F023F932463B4607F0D1
:1021D00089F90B4602462946204606F0CDFF07F056
:1021E00031FC0121CAF81C000C2003F060FA282001
:1021F00001F02EFC019B9A45B0D103B0BDE8F08FF1
:102200009A9999999999C93F9A9999999999E93F70
:1022100010B501F02DFC124C2368C01A092809D909
:1022200001F026FC20600F48FFF78AFF0D490E4899
:10223000FFF728FF01F01CFC0C4C2368C01A0E2885
:102240000CD901F015FC0A4B0222206005491868E0
:10225000FFF74AFD074A13680133136010BD00BF42
:10226000740E002094000020D4000020700E002086
:10227000CC000020680E002070B5084C257855B9B8
:10228000074E3068FEF7B0F83068FEF727FA2946A7
:102290000E2003F00CFA0123237070BDD100002042
:1022A000CC00002030B50024A1B001210F2003F0A4
:1022B000EDF901210C2003F0E9F9FFF720FF544B61
:1022C00001210E201C6003F0E1F9524B1C70FFF756
:1022D000D3FF4FF40770FDF7E0FE044640B14E4BCC
:1022E0003A2201934D4B082100930223FEF7A2F8F6
:1022F0004B4B4C4D1C6000244B4B1C6002F0D2FE3B
:102300004A4B022218604A4B4A491C604A4B4B48D0
:102310001C604B4B2C601C60234601F04FFD234694
:1023200002222946474801F049FD474B224658689A
:10233000214601F073FD811C1AA802F051F90A220E
:102340009DF86F1006A802F0F5FA06A90AA802F097
:10235000D5FA3E490AA802F022FB04460A229DF85B
:102360006E100EA802F0E6FA20460EA902F00BFB52
:10237000364902F014FB04460A229DF86D1012A89B
:1023800002F0D8FA204612A902F0FDFA2F4902F015
:1023900006FB04460A229DF86C1016A802F0CAFA41
:1023A000204616A902F0EFFA014602A802F0A6FAAA
:1023B00016A802F04AFA12A802F047FA0EA802F094
:1023C00044FA0AA802F041FA06A802F03EFA204BAD
:1023D000029A1B781F498DF8003016A83C2301F0A3
:1023E0001BFF179C7CB16368013B63605BB923688A
:1023F00020469B689847A368013BA3601BB92368EC
:102400002046DB68984702A802F01FFA21B030BDD1
:10241000740E0020D1000020D4000020C1A50A08BD
:10242000CC0000206C0E0020700E002090000020D8
:102430007C0E0020800E0020780E0020A4A50A0843
:10244000680E0020ADA50A0858140020B7A50A0898
:10245000D0000020B9A50A0838B5084C227852B13E
:10246000074D01210E2003F022F92868FDF7BCFF7B
:102470002868FEF733F90023237038BDD10000200F
:10248000CC00002038B5FFF7C3FE002240F2145103
:10249000204BDC6918468C4203DC00680433884218
:1024A00033DD1D4B1B780BB9FFF7E6FE02F0FAFD9A
:1024B0001A4B186002F0F6FD184B1B68C01A1E2854
:1024C00004D9154B1B780BB1FFF7C6FF144C154D03
:1024D00023680133236001F0CBFA2B68C01A42F263
:1024E0000F7398420CD901F0C3FA22680E4B286092
:1024F0001A600E4B0E4A19681160002222601A60A1
:102500000120BDE8384001F029BD0132072AC0D1C1
:10251000D0E700BF94000020D100002090000020F0
:102520007C0E0020780E0020800E0020680E002017
:102530006C0E002001200B4B10B5187000230A4CC4
:102540002360A380A371A3F58033A36001F0FAFB9D
:102550002046064A064903F033F9BDE81040054815
:10256000FFF750BCD0000020840000206C00002049
:10257000EF200A08D400002038B504460025018069
:1025800001EB410188B2C4E9025560802371627198
:10259000A57101F0ABFCA06018B12946628807F074
:1025A00035FE204638BD10B504460121407903F0C0
:1025B0006DF860790021BDE8104003F078B80000A4
:1025C0008368002B00F06F85F0B503790446032B78
:1025D00087B000F08782042B14BF32254FF4FA75C0
:1025E00001F03EFAE368C01AA842F9D372B66388D4
:1025F0002179ADF80A30BDF80A300229A5689BB2EE
:1026000000F03A81052900F06F82002900F0E58290
:10261000032900F04985002B00F028814FF40001C8
:102620000026184A0491BDF80A306079033B9BB23A
:10263000ADF80A302B781768DBB28DF808306B786C
:10264000C0EBC000DBB28DF80930AB7807EB800C33
:10265000DBB28DF807309DF808E09DF80930BCF832
:1026600004C01B0243EA0E439DF807E057F8200020
:1026700043EA0E03039303358DF80660A0F81AC0F1
:102680007DE000BF840E0020049B5B08049300469D
:1026900000BF00BF00BF00BF00BF00BF00BF00BF42
:1026A00000BF00BF00BF00BF00BF00BF00BF00BF32
:1026B00000BF00BF00BF00BF00BF00BF00BF00BF22
:1026C00000BF00BF00BF00BF00BF00BF00BF00BF12
:1026D00000BF00BF00BF00BF00BF00BF00BF00BF02
:1026E00000BF00BF00BF00BF00BF00BF00BF00BFF2
:1026F00000BF00BF00BF00BF00BF00BF00BF00BFE2
:1027000000BF00BF00BF00BF00BF00BF00BF00BFD1
:1027100000BF00BF607917689DF80630C0EBC000AD
:1027200007EB800CBCF804C057F820000133DBB283
:102730008DF80630A0F818C0004600BF00BF00BFEB
:1027400000BF00BF00BF00BF00BF00BF00BF00BF91
:1027500000BF00BF00BF00BF00BF00BF00BF00BF81
:1027600000BF9DF80630182B7AD063791068C3EB50
:10277000C30300EB8307BF8850F823305F830398BF
:10278000049B184280D1004600BF00BF00BF00BFBD
:1027900000BF00BF00BF00BF00BF00BF00BF00BF41
:1027A00000BF00BF00BF00BF63791068C3EBC30365
:1027B00000EB8307BF8850F823301F839DF8063055
:1027C0000133DBB28DF80630049B5B0804930046AE
:1027D00000BF00BF00BF00BF00BF00BF00BF00BF01
:1027E00000BF00BF00BF00BF00BF00BF00BF00BFF1
:1027F00000BF00BF00BF00BF00BF00BF00BF00BFE1
:1028000000BF00BF00BF00BF00BF00BF00BF00BFD0
:1028100000BF00BF00BF00BF00BF00BF00BF00BFC0
:1028200000BF00BF00BF00BF00BF00BF00BF00BFB0
:1028300000BF00BF00BF00BF00BF00BF00BF00BFA0
:1028400000BF00BF00BF00BF00BF00BF00BF00BF90
:1028500000BF00BF00BF00BF9DF80630182B84D119
:10286000BDF80A309BB2002B7FF4DCAE62B601F0FB
:10287000F7F8E06007B0F0BD002BF7D04FF400018F
:102880000026134A0491BDF80A300335033B9BB27E
:10289000ADF80A3015F8033CDBB28DF8073015F8B7
:1028A000023CDBB28DF8083015F8013CDBB28DF844
:1028B00009309DF807709DF808309DF809001B024B
:1028C00043EA0743034303938DF8066080E000BFAB
:1028D000840E0020004600BF00BF00BF00BF00BF45
:1028E00000BF00BF00BF00BF00BF00BF00BF00BFF0
:1028F00000BF00BF00BF00BF00BF00BF00BF00BFE0
:1029000000BF00BF00BF00BF00BF00BF00BF00BFCF
:1029100000BF00BF00BF00BF00BF00BF00BF00BFBF
:1029200000BF00BF00BF00BF00BF00BF00BF00BFAF
:1029300000BF00BF00BF00BF00BF00BF00BF00BF9F
:1029400000BF00BF00BF00BF00BF00BF00BF00BF8F
:1029500000BF00BF00BF00BF00BF00BF00BF00BF7F
:1029600000BF00BF00BF00BF00BF00BF00BF637952
:102970001068C3EBC30300EB8307BF8850F8233014
:102980005F83004600BF00BF00BF00BF00BF00BFA5
:1029900000BF00BF00BF00BF00BF00BF00BF00BF3F
:1029A00000BF00BF00BF00BF00BF00BF00BF00BF2F
:1029B00000BF00BF00BF00BF049B5B0804939DF8ED
:1029C00006300133DBB2172B8DF8063000F283801E
:1029D00063791068C3EBC30300EB8307BF8850F82B
:1029E00023301F830398049B18427FF473AF004683
:1029F00000BF00BF00BF00BF00BF00BF00BF00BFDF
:102A000000BF00BF00BF00BF00BF00BF00BF00BFCE
:102A100000BF00BF00BF63791068C3EBC30300EBC6
:102A20008307BF8850F823305F83004600BF00BF94
:102A300000BF00BF00BF00BF00BF00BF00BF00BF9E
:102A400000BF00BF00BF00BF00BF00BF00BF00BF8E
:102A500000BF00BF00BF00BF00BF00BF00BF00BF7E
:102A600000BF00BF00BF00BF00BF00BF00BF00BF6E
:102A700000BF00BF00BF00BF00BF00BF00BF00BF5E
:102A800000BF00BF00BF00BF00BF00BF00BF00BF4E
:102A900000BF00BF00BF00BF00BF00BF00BF00BF3E
:102AA00000BF00BF00BF00BF00BF00BF00BF00BF2E
:102AB00000BF00BF00BF00BF00BF00BF00BF00BF1E
:102AC00000BF00BF00BF00BF00BF00BF00BF00BF0E
:102AD00000BF00BF70E7BDF80A309BB2002B7FF447
:102AE000D1AEC3E618257BE5002B3FF4BFAE4FF413
:102AF000000E00264E4B19684E4BCDF810E0BDF885
:102B00000A200335033A92B2ADF80A2015F8032CD7
:102B1000D2B28DF8072015F8022CD2B28DF8082019
:102B200015F8012CD2B28DF809209DF807C09DF848
:102B300008209DF80970120242EA0C423A430392BF
:102B40008DF8066062795868C2EBC20201EB820719
:102B5000BF8851F8222005901783039F049A1742DB
:102B600025D05A68059FD21B4F2AFAD96279C2EB49
:102B7000C20201EB8207BF8851F8222057835A68AE
:102B800005925A68059FD21B072AFAD9049A52085F
:102B900004929DF806200132D2B2172A8DF8062041
:102BA000D0D9BDF80A2092B2002AA6D15EE65A68B2
:102BB000059FD21B182AFAD96279C2EBC20201EB37
:102BC0008207BF8851F8222057835A6805925A68B5
:102BD000059FD21B452AFAD9D8E7002B3FF446AE11
:102BE0004FF40006124A0496BDF80A300335033B41
:102BF0009BB2ADF80A3015F8033CDBB28DF8083013
:102C000015F8023CDBB28DF8073015F8013CDBB259
:102C10008DF809309DF808709DF807309DF809007F
:102C20001B0243EA0743034303938DF806101AE19E
:102C3000840E0020001000E0004600BF00BF00BF6F
:102C400000BF00BF00BF00BF00BF00BF00BF00BF8C
:102C500000BF00BF00BF00BF00BF00BF00BF00BF7C
:102C600000BF00BF00BF00BF00BF00BF00BF00BF6C
:102C700000BF00BF00BF00BF00BF00BF00BF00BF5C
:102C800000BF00BF00BF00BF00BF00BF00BF00BF4C
:102C900000BF00BF00BF00BF00BF00BF00BF00BF3C
:102CA00000BF00BF00BF00BF00BF00BF00BF00BF2C
:102CB00000BF00BF00BF00BF00BF00BF00BF00BF1C
:102CC00000BF00BF00BF00BF00BF00BF00BF00BF0C
:102CD00000BF00BF00BF00BF00BF00BF00BF00BFFC
:102CE00000BF00BF00BF00BF00BF00BF00BF00BFEC
:102CF00000BF00BF00BF00BF00BF00BF00BF00BFDC
:102D000000BF00BF00BF00BF00BF00BF00BF00BFCB
:102D100000BF00BF00BF00BF00BF00BF00BF00BFBB
:102D200000BF00BF00BF00BF00BF00BF00BF00BFAB
:102D300000BF00BF00BF00BF00BF00BF00BF00BF9B
:102D400063791068C3EBC30300EB8307BF8850F8B7
:102D500023305F83004600BF00BF00BF00BF00BF3D
:102D600000BF00BF00BF00BF00BF00BF00BF00BF6B
:102D700000BF00BF00BF00BF00BF00BF00BF00BF5B
:102D800000BF00BF00BF00BF00BF00BF00BF00BF4B
:102D900000BF00BF00BF00BF00BF00BF00BF00BF3B
:102DA00000BF00BF00BF00BF00BF00BF00BF00BF2B
:102DB00000BF00BF00BF00BF00BF00BF00BF00BF1B
:102DC00000BF00BF00BF00BF00BF00BF00BF00BF0B
:102DD00000BF00BF00BF00BF00BF00BF00BF00BFFB
:102DE00000BF00BF00BF00BF00BF00BF00BF00BFEB
:102DF00000BF00BF00BF00BF00BF00BF00BF00BFDB
:102E000000BF00BF00BF00BF00BF00BF00BF00BFCA
:102E100000BF00BF00BF00BF00BF00BF00BF00BFBA
:102E200000BF00BF00BF00BF00BF00BF00BF00BFAA
:102E300000BF00BF00BF00BF00BF00BF00BF00BF9A
:102E400000BF00BF00BF00BF00BF00BF00BF049BAA
:102E50005B0804939DF806300133DBB2172B8DF825
:102E6000063000F2188163791068C3EBC30300EBEE
:102E70008307BF8850F823301F830398049B1842B0
:102E80007FF4DAAE004600BF00BF00BF00BF00BF46
:102E900000BF00BF00BF00BF00BF00BF00BF00BF3A
:102EA00000BF00BF00BF00BF00BF00BF00BF00BF2A
:102EB00000BF00BF00BF00BF00BF00BF00BF00BF1A
:102EC00000BF00BF00BF00BF00BF00BF00BF00BF0A
:102ED00000BF00BF00BF63791068C3EBC30300EB02
:102EE0008307BF8850F823305F83004600BF00BFD0
:102EF00000BF00BF00BF00BF00BF00BF00BF00BFDA
:102F000000BF00BF00BF00BF00BF00BF00BF00BFC9
:102F100000BF00BF00BF00BF00BF00BF00BF00BFB9
:102F200000BF00BF00BF00BF00BF00BF00BF00BFA9
:102F300000BF00BF00BF00BF00BF00BF00BF00BF99
:102F400000BF00BF00BF00BF00BF00BF00BF00BF89
:102F500000BF00BF00BF00BF00BF00BF00BF00BF79
:102F600000BF00BF00BF00BF00BF00BF00BF00BF69
:102F700000BF00BF00BF00BF00BF00BF00BF00BF59
:102F800000BF00BF00BF00BF00BF00BF00BF00BF49
:102F900000BF00BF00BF00BF00BF00BF00BF00BF39
:102FA00000BF00BF00BF00BF00BF00BF00BF00BF29
:102FB00000BF00BF00BF00BF00BF00BF00BF00BF19
:102FC00000BF00BF00BF00BF00BF00BF00BF00BF09
:102FD00000BF00BF00BF00BF00BF00BF00BF00BFF9
:102FE00000BF00BF00BF00BF00BF00BF00BF00BFE9
:102FF00000BF00BF00BF00BF00BF00BF00BF00BFD9
:1030000000BF00BF00BF00BF00BF00BF00BF00BFC8
:1030100000BF00BF00BF00BF00BF00BF00BF00BFB8
:1030200000BF00BF00BF00BF00BF00BF00BF00BFA8
:1030300000BF00BF00BF00BF00BF00BF00BF00BF98
:1030400000BF00BF00BF00BF00BF00BF00BF00BF88
:1030500000BF00BF00BF00BF00BF00BF00BF00BF78
:1030600000BF00BF00BF00BF00BF00BF00BF00BF68
:1030700000BF00BF00BF00BF00BF00BF00BF00BF58
:1030800000BF00BF00BF00BF00BF00BF00BF00BF48
:1030900000BF00BFDBE6BDF80A309BB2002B7FF417
:1030A000A2ADFFF7E3BB7047002B3FF4DFAB4FF45B
:1030B00000010026124A0491BDF80A300335033B93
:1030C0009BB2ADF80A3015F8033CDBB28DF808303E
:1030D00015F8023CDBB28DF8073015F8013CDBB285
:1030E0008DF809309DF808709DF807309DF80900AB
:1030F0001B0243EA0743034303938DF80660E0E0B5
:10310000840E0020004600BF00BF00BF00BF00BF0C
:1031100000BF00BF00BF00BF00BF00BF00BF00BFB7
:1031200000BF00BF00BF00BF00BF00BF00BF00BFA7
:1031300000BF00BF00BF00BF00BF00BF00BF00BF97
:1031400000BF00BF00BF00BF00BF00BF00BF00BF87
:1031500000BF00BF00BF00BF00BF00BF00BF00BF77
:1031600000BF00BF00BF00BF00BF00BF00BF00BF67
:1031700000BF00BF00BF00BF00BF00BF00BF00BF57
:1031800000BF00BF00BF00BF00BF00BF00BF00BF47
:1031900000BF00BF00BF00BF00BF00BF00BF00BF37
:1031A00000BF00BF00BF00BF00BF00BF00BF00BF27
:1031B00000BF00BF00BF00BF00BF00BF00BF00BF17
:1031C00000BF00BF00BF00BF00BF00BF00BF00BF07
:1031D00000BF00BF00BF00BF00BF00BF00BF00BFF7
:1031E00000BF00BF00BF00BF00BF00BF00BF00BFE7
:1031F00000BF00BF00BF00BF00BF00BF00BF00BFD7
:1032000000BF00BF00BF00BF00BF00BF00BF00BFC6
:1032100000BF00BF00BF00BF00BF00BF00BF00BFB6
:1032200000BF00BF00BF63791068C3EBC30300EBAE
:103230008307BF8850F823305F83004600BF00BF7C
:1032400000BF00BF00BF00BF00BF00BF00BF00BF86
:1032500000BF00BF00BF00BF00BF00BF00BF00BF76
:1032600000BF00BF00BF00BF00BF00BF00BF00BF66
:1032700000BF00BF00BF00BF00BF00BF00BF00BF56
:1032800000BF00BF00BF00BF00BF00BF00BF00BF46
:1032900000BF00BF00BF00BF00BF00BF00BF00BF36
:1032A00000BF00BF00BF00BF00BF049B5B080493CA
:1032B0009DF806300133DBB2172B8DF8063000F293
:1032C000E38063791068C3EBC30300EB8307BF8817
:1032D00050F823301F830398049B18427FF412AFE9
:1032E000004600BF00BF00BF00BF00BF00BF00BF5F
:1032F00000BF00BF00BF00BF00BF00BF00BF00BFD6
:1033000000BF00BF00BF00BF00BF00BF00BF00BFC5
:1033100000BF00BF00BF00BF00BF00BF00BF00BFB5
:1033200000BF00BF00BF00BF00BF00BF00BF00BFA5
:1033300000BF00BF00BF00BF00BF00BF00BF00BF95
:1033400000BF00BF00BF00BF00BF00BF00BF00BF85
:1033500000BF00BF00BF00BF00BF00BF00BF00BF75
:1033600000BF63791068C3EBC30300EB8307BF881A
:1033700050F823305F83004600BF00BF00BF00BF8E
:1033800000BF00BF00BF00BF00BF00BF00BF00BF45
:1033900000BF00BF00BF00BF00BF00BF00BF00BF35
:1033A00000BF00BF00BF00BF00BF00BF00BF00BF25
:1033B00000BF00BF00BF00BF00BF00BF00BF00BF15
:1033C00000BF00BF00BF00BF00BF00BF00BF00BF05
:1033D00000BF00BF00BF00BF00BF00BF00BF00BFF5
:1033E00000BF00BF00BF00BF00BF00BF00BF00BFE5
:1033F00000BF00BF00BF00BF00BF00BF00BF00BFD5
:1034000000BF00BF00BF00BF00BF00BF00BF00BFC4
:1034100000BF00BF00BF00BF00BF00BF00BF00BFB4
:1034200000BF00BF00BF00BF00BF00BF00BF00BFA4
:1034300000BF00BF00BF00BF00BF00BF00BF00BF94
:1034400000BF00BF00BF00BF00BF00BF00BF00BF84
:1034500000BF00BF00BF00BF00BF00BF00BF00BF74
:1034600000BF00BF00BF00BF00BF00BF00BF00BF64
:1034700000BF00BF00BF00BF00BF00BF00BF00BF54
:1034800000BF00BF00BF10E7BDF80A309BB2002BA1
:103490007FF411AEFFF7EAB970B505889DF81040CA
:1034A0008D4216D985792DB16A436B436C43120A5C
:1034B0001B0A240A8668007901EB4101042806EB07
:1034C000010507D0052801D002280AD173546A707B
:1034D000AC7070BDFE2A28BFFE2272546C70AB70B7
:1034E000F7E772546B70AC70F3E770B503888B42EA
:1034F0001DD98579C2F30743C2F30724D2B23DB187
:103500006B436C436A43C3F30723C4F30724120AD3
:103510008668007901EB4101042806EB010507D01C
:10352000052801D002280AD174546B70AA7070BDAE
:10353000FE2B28BFFE2373546A70AC70F7E77354F8
:103540006C70AA70F3E713B503888B4238D9826890
:10355000047901EB41015318042C515C9A785B7893
:1035600022D0052C01D0022C24D1090241EA0343C8
:10357000134301938179A1B19DF804209DF8063091
:103580001202B2FBF1F28DF804209DF805201B0217
:103590001202B2FBF1F2B3FBF1F38DF805208DF8C6
:1035A0000630019802B010BD120242EA01421343F4
:1035B0000193DFE71B0243EA014313430193D9E779
:1035C0000020EFE708B500F06BFA014B186008BD6A
:1035D000840E00207047000010B5C3604FF0814397
:1035E0000361094B04464361029B8161826003626F
:1035F00000F03EFA039BE0616362049B2046A362F5
:10360000059BE36210BD00BF0000E8412DE9F843CF
:10361000044600F02DFAE369C01A236A984226D9BD
:1036200000F026FAA6682169E061304606F0A8FAA3
:10363000E568616981462061284606F0A1FA4FF0ED
:103640000008074660614146484606F049FD80B1E2
:1036500006F10046C4F81080A6600021384606F046
:103660003FFD98B105F10045C4F81480E560BDE860
:10367000F8834FF08241484606F03CFD0028ECD02C
:103680000D4B06F100462361A660E6E7A6693046C9
:1036900006F02AFB394606F073FA084906F02AFDBF
:1036A0000028E4D0C6F13A0006F01EFB05F1004503
:1036B0006061E560DBE700BF0000E04000006842B9
:1036C00008B5006906F040FD08BD08B5406906F080
:1036D0003BFD08BDC0E90912C3627047704738B5A9
:1036E0000446A360079B049D6362089B0598A36240
:1036F000099B2160E36262606561A061E560206111
:1037000000F0B6F9069BE0612362204638BD000058
:103710002DE9F84304460D4600F0AAF9E369C01A02
:10372000236A984244D900F0A3F9E061D4F80480F8
:10373000D5F810904046494606F0C8FC0027266898
:1037400020B13946A86806F0C1FC58B94946404640
:1037500006F0DAFC002838D00021A86806F0D4FC76
:10376000002832D0D4F808806D69206806F0BCFAD1
:10377000414606F005FA294606F0A8FCD0B1A36937
:1037800023612169A06806F0FBF90546A060304678
:1037900006F0AAFA294606F0F3F92B4906F0AAFC2E
:1037A000002848D0C6F13A0006F09EFA2761A060D2
:1037B000BDE8F8832946404606F0A6FC0028E0D084
:1037C000A36903F100432361DBE706EBD6704010E9
:1037D00006F08AFAA16806F0D3F91C49804606F083
:1037E000CDF920F000453046002EB8BFF01C801007
:1037F00006F07AFA0146284606F086FCC8B113495D
:10380000404606F081FCA5694FF07E5148B128463C
:1038100006F07AFC18B905F100452561B1E70C4DB9
:10382000FBE7284606F070FC0028F6D04FF07E55E6
:10383000F3E72761A5E70021284606F051FC0028A0
:10384000B6D0A7602761B3E7000068420000E841F6
:10385000000080BF08B5406806F076FC08BD08B5DA
:10386000806806F071FC08BDC0E90912C3627047A8
:1038700038B5046805467CB16368013B63605BB999
:10388000236820469B689847A368013BA3601BB947
:1038900023682046DB689847284638BD38B504467B
:1038A000094B0A4D036085635030FFF7E1FF204666
:1038B000074B40F8083F01F081FBE56104F134005B
:1038C000FFF7D6FF204638BDECA50A0828A70A084E
:1038D00074A70A0810B50446FFF7E0FF20464FF42E
:1038E000A47101F072FF204610BD000010B5064C17
:1038F00050222046054900F027F82046BDE8104038
:10390000034A044901F05CBF880E0020B8A50A08EC
:103910006C0000209D380A0810B590F84431044628
:103920005A1CD2B20344202A80F8442183F824117F
:1039300007D100F59271383001F071F8002384F856
:103940004431012010BD000070B5002504460E462C
:103950000D4B114645602A4640F8083B01F0FEFA3F
:1039600004F1380001F080FA084B2046C4E92D33F9
:10397000666584F87850E56784F81C51C4F82051D6
:1039800084F8445170BD00BFECA50A080D3A0A083E
:1039900010B590F8442104463AB100F592713830E0
:1039A00001F03DF8002384F8443110BD70B50446A1
:1039B0000D461646FFF7ECFF3246294604F1380063
:1039C000BDE8704001F02BB838B504460D4615F837
:1039D000011B21B1236820469B689847F7E738BD53
:1039E00010B504460649FFF7EFFF20460549FFF7EB
:1039F000EBFF2046BDE810400349FFF7E5BF00BFDD
:103A0000FCA50A08CBA50A0817A60A08FFF7E8BF15
:103A100008B5024B1B68DB69019308BDD00106089D
:103A200008B5024B1B685B6C019308BDD00106080A
:103A300008B5024B1B689B6C019308BDD0010608BA
:103A400008B5024B1B685B68019308BD9C01060822
:103A500008B5024B1B68DB68019308BD9C01060892
:103A600008B5024B1B681B69019308BD9C01060841
:103A700008B5024B1B685B69019308BD9C010608F1
:103A800008B5024B1B689B6D019308BD9C0106089D
:103A900008B5024B1B685B6E019308BD9C010608CC
:103AA00008B5024B1B681B68019308BDB0010608EE
:103AB00008B5024B1B685B68019308BDB00106089E
:103AC00008B5024B1B689B68019308BDB00106084E
:103AD00008B5024B1B68DB68019308BDB0010608FE
:103AE00008B5024B1B681B69019308BDB0010608AD
:103AF00008B5024B1B681B6B019308BDB00106089B
:103B000008B5024B1B681B6E019308BDAC0106088B
:103B100008B5024B1B685B6E019308BDAC0106083B
:103B200008B5024B1B689B6E019308BDAC010608EB
:103B300008B5024B1B68DB6E019308BDAC0106089B
:103B400008B5024B1B681B6F019308BDAC0106084A
:103B500008B5024B1B685B6F019308BDAC010608FA
:103B600008B5034B1B68D3F88030019308BD0000F3
:103B7000AC01060808B5024B1B681B68019308BD21
:103B8000BC01060808B5024B1B685B68019308BDC1
:103B9000BC01060808B5024B1B689B68019308BD71
:103BA000BC01060808B5024B1B68DB68019308BD21
:103BB000BC01060808B5024B1B681B69019308BDD0
:103BC000BC01060808B5024B1B681B6A019308BDBF
:103BD000BC01060808B5024B1B689B6A019308BD2F
:103BE000BC01060808B5024B1B681B6B019308BD9E
:103BF000BC01060808B5024B1B685B6C019308BD4D
:103C0000BC01060808B5024B1B68DB69019308BDBF
:103C1000B401060808B5024B1B681B6A019308BD76
:103C2000B401060808B5024B1B689B69019308BDE7
:103C3000C401060808B5024B1B685B6A019308BD06
:103C4000C401060808B5024B1B689B6A019308BDB6
:103C5000C401060808B5024B1B68DB6A019308BD66
:103C6000C401060808B5024B1B681B6B019308BD15
:103C7000C401060808B5024B1B685B6B019308BDC5
:103C8000C401060808B5024B1B689B6B019308BD75
:103C9000C401060808B5024B1B681B6C019308BDE4
:103CA000C401060808B5024B1B681B68019308BDD8
:103CB000D801060808B5024B1B681B69019308BDB3
:103CC000D801060808B5024B1B685B69019308BD63
:103CD000D801060808B5024B1B689B69019308BD13
:103CE000D801060808B5024B1B68DB69019308BDC3
:103CF000D801060808B5024B1B681B6A019308BD72
:103D0000D801060808B5024B1B685B6C019308BD1F
:103D1000C001060808B5024B1B689B6C019308BDE7
:103D2000C001060808B5024B1B681B6D019308BD56
:103D3000A801020808B5024B1B681B68019308BD67
:103D4000A401060808B5024B1B685B68019308BD17
:103D5000A401060808B5024B1B685B69019308BD06
:103D6000A401060808B5024B1B68DB6C019308BD73
:103D7000A401060808B5024B1B685B6D019308BDE2
:103D8000A401060808B5024B1B689B6D019308BD92
:103D9000A401060808B5034B1B68D3F890300193C3
:103DA00008BD0000A401060808B5034B1B68D3F842
:103DB0009C30019308BD0000A401060808B5024B21
:103DC0001B681B68019308BDCC01060808B5024BAF
:103DD0001B689B68019308BDCC01060808B5024B1F
:103DE0001B685B69019308BDCC01060808B5024B4E
:103DF0001B681B6A019308BDCC01060808B5024B7D
:103E00001B681B6B019308BDCC01060808B5024B6B
:103E10001B68DB6B019308BDCC01060808B5024B9B
:103E20001B681B68019308BDC801060808B5024B52
:103E30001B685B68019308BDC801060808B5024B02
:103E40001B689B68019308BDC801060808B5024BB2
:103E50001B68DB68019308BDC801060808B5024B62
:103E60001B681B69019308BDC801060808B5024B11
:103E70001B685B69019308BDC801060808B5024BC1
:103E80001B689B69019308BDC801060808B5024B71
:103E90001B68DB69019308BDC801060808B5024B21
:103EA0001B681B6A019308BDC801060808B5024BD0
:103EB0001B681B6B019308BDC801060808B5024BBF
:103EC0001B685B6B019308BDC801060808B5024B6F
:103ED0001B681B6C019308BDC801060808B5024B9E
:103EE0001B685B6C019308BDC801060808B5024B4E
:103EF0001B681B68019308BDA001060808B5024BAA
:103F00001B685B68019308BDA001060808B5024B59
:103F10001B689B68019308BDA001060808B5024B09
:103F20001B68DB6A019308BDA001060808B5024BB7
:103F30001B681B6B019308BDA001060808B5024B66
:103F40001B68DB6B019308BDA001060808B5024B96
:103F50001B685B6C019308BDA00106080021FFF7F8
:103F6000F9BE10B5836804460BB901F032FCC36892
:103F70009847A3681BB10322214620469847204654
:103F8000BDE81040102101F020BC704700207047B0
:103F900010B50446102101F018FC204610BD08B5EC
:103FA000FFF7F6FF08BD10B58368044613B103227E
:103FB00001469847204610BD002230B54FF69C744C
:103FC000026084808D888C800C68858004600A6023
:103FD00030BD10B504460068FFF790FF204610BDC5
:103FE00038B5C468F4B12378022B03D104F10C0076
:103FF000FFF7EFFF656835B12846FFF7D4FF1021C2
:10400000284601F0E2FBA56835B12846FFF7CBFF53
:104010001021284601F0D9FB2046BDE83840142184
:1040200001F0D3BB38BD0B68036013B15A6801328D
:104030005A60704773B50E46044656F8043B0D4669
:1040400001A831460093FFF7EEFF009B019A236021
:104050000023626001A801930093FFF709FC30463A
:10406000FFF706FC2846082101F0AFFB204602B00E
:1040700070BD13B56C460B46024603C884E80300C6
:1040800093E8030082E8030094E8030083E8030058
:1040900002B010BD826810B50AB901F09AFBC3687E
:1040A000BDE81040184708B5006800F11001FFF79F
:1040B000F1FF08BD826810B50AB901F08AFBC36838
:1040C000BDE81040184708B5006800F11001FFF77F
:1040D000F1FF08BD38B500230446036010200D46EB
:1040E000FBF7DBFF28B10123C0E90133024BC560B8
:1040F00003602060204638BD50A60A0838B500236A
:1041000083608B6804460D462BB102229847EB680A
:10411000E360AB68A360204638BD0000F0B589B00D
:1041200004686846FFF748FF4FF00203D4E84F2FBA
:10413000002A03D1C4E8413F0029F7D125D104F179
:104140000C0569462846FFF737FF0123BFF35B8F55
:1041500063700020BFF35B8F04F1080353E8006F26
:1041600043E80002002AF9D1BFF35B8F6EB1FFF77D
:10417000F9FD78B129463046FFF78CFF3046FFF74E
:1041800012FF1021304601F020FB6846FFF721FFA7
:1041900009B0F0BD314602A8FFF7B0FFE068B4F9FE
:1041A000105008B106F0A4F806901020ADF81C508D
:1041B000FBF773FF0546E8B1002787601820FBF77F
:1041C0006CFF044688B10146876002A8FFF751FFE3
:1041D000049BA268A360059B0492E26806A9E360C1
:1041E00004F110000592FFF7E7FE084B2C60EB602E
:1041F000074BAB6006A8FFF7ECFE02A8FFF7D3FE63
:10420000002229460348FFF7B5FDB7E7A7400A0893
:104210003D430A08633F0A082DE9F0478AB0054686
:104220000C46174698469DF84890FFF7D7FD07AE15
:10423000824638BB4FF62E73059005A93046ADF87F
:104240001830FFF7B9FE1420FBF727FF044648B1EA
:10425000022303700123C0E901AA437031460C30E8
:10426000FFF7AAFE2846214640F8044BFFF732FF2D
:104270003046FFF7AEFE05A8FFF7ABFE28460AB0B2
:10428000BDE8F0870C234FF0000A1420CDE908AAFE
:104290000793FBF702FF014628B1C0E901AA80F8A5
:1042A00000A080F801A004A80391FFF713FF224BA0
:1042B00008200893FBF7F1FE824628B1039B04A96E
:1042C00040F8043BFFF7AFFE4246394620460096D1
:1042D0005FFA89F3CDF824A0FFF788FDB8B9039BF6
:1042E0005B7803F0FF0293B94FF69C7305A903A80E
:1042F0000592ADF81830FFF711FF05A8FFF769FE2A
:1043000005A80999FFF796FE06A8FFF7B1FA039BE7
:1043100004A906A80593FFF786FE059B069A2B6065
:1043200000236A6006A806930593FFF7A1FA04A884
:10433000FFF79EFAA2E700BF01440A08022AF8B577
:10434000054607D0032A18D0012A01D10B68036063
:104350000020F8BD18200E68FBF79FFE044650B100
:104360003146FFF7CBFE3069B6F9147008B105F09D
:10437000BFFF2061A7822C60EAE70468002CE7D029
:1043800004F11000FFF725FE2046FFF70CFE182170
:10439000204601F01AFADBE738B5002383608B680A
:1043A00004460D462BB102229847EB68E360AB68E8
:1043B000A360204638BD022A70B5044607D0032A00
:1043C00012D0012A01D10B680360002070BD1420B7
:1043D0000E68FBF762FE054620B13146FFF7DCFFB1
:1043E000337C2B742560F0E70468002CEDD0204668
:1043F000FFF7D9FD1421204601F0E7F9E5E70000B9
:10440000F0B5044689B00D4601A81146FFF712FE2B
:10441000A4B124B21DB1284605F06AFF054601A8E3
:1044200003A90395ADF81040FFF778FE03A8FFF746
:10443000D0FD02A8FFF71CFA09B0F0BD0123019DD1
:10444000D5E84F2F002A03D1C5E8413F0029F7D115
:10445000EFD12B73BFF35B8F6B70BFF35B8F2B1DA3
:1044600053E8006F43E80042002AF9D1BFF35B8FA5
:10447000002EDED02046FFF775FC074660B13046BF
:1044800005F10C01FFF716FE3046FFF78CFD1021F9
:10449000304601F09AF9CCE7314603A8FFF77CFFDC
:1044A0002B7B10208DF81C30FBF7F7FD0546D0B1B3
:1044B00087601420FBF7F1FD044678B10146876060
:1044C00003A8FFF7D6FD059BA268A360069B059293
:1044D000E268E3609DF81C3006922374064B2C6062
:1044E000EB60064BAB6003A8FFF75DFD0022294699
:1044F0000348FFF73FFCC7E7C7400A08B7430A086D
:10450000633F0A087047F8B5064615460C468F18F3
:10451000BC4206D0336830469B6814F8011B9847AC
:10452000F6E72846F8BD0022007CFFF7E9BA002133
:10453000007CFFF7EDBA0021007CFFF7F1BA002103
:10454000007CFFF7F5BA0021007CFFF7F9BA10B53F
:104550000446142101F039F9204610BD10B54FF47E
:104560007A73044608460021C4E90113034B11463F
:1045700023602074FFF7F4FA204610BD6CA60A08E9
:10458000704710B50446182101F01FF9204610BDF0
:10459000F8B50E46002400F10807051D17F8011DA7
:1045A0000A22304600F0FBF8AF42044401D1204615
:1045B000F8BD002CF2D02E21304600F0EDF8044476
:1045C000ECE7000010B50446044B1122002140F82E
:1045D000043B05F01BFE204610BD00BF94A60A0850
:1045E0000346074A10B543F8042B01F1100251F8B5
:1045F000044B914243F8044BF9D10A781A7010BD6C
:1046000094A60A08024AC0E90021042202757047F4
:1046100094A60A0810B59DF8084044EA0324042330
:1046200044EA024444EA01644460037510BD00009A
:1046300037B5044D05609DF818500095FFF7EAFF67
:1046400003B030BD94A60A08014B024A1A607047B5
:10465000D00F0020A0A60A08002340681A46FFF7E2
:10466000E5BB002202214068FFF7F0BB0022406852
:104670001146FFF7E3BB002240681146FFF7EEBB8F
:10468000002340681A461946FFF7F0BB0023406834
:104690001A461946FFF7F2BB00214068FFF716BC27
:1046A00000214068FFF71ABC0022406881F0010138
:1046B000FFF7ECBB00224068FFF7F8BB0022406820
:1046C0001146FFF7FBBB002240681146FFF7E6BB2F
:1046D00070B515468EB0044608A8FFF773FF112287
:1046E000002103A805F092FD0026284605F01BFED8
:1046F0000A4B009681B25B68284603AAFFF70AFBC3
:1047000030B131462046FFF77DFF20460EB070BD28
:10471000204603A9FFF764FFF7E700BF5814002005
:10472000034A044B042814BF10461846704700BFC4
:10473000D40F002058140020024B034A1A600022B4
:104740005A607047D40F0020ACA60A08F8B5064698
:104750000D4600248F18BD420CD0336830469B684C
:1047600015F8011B9847031E01DB1C44F3E7002CDE
:1047700008BF1C462046F8BD70B505460C460846E5
:1047800049B105F0D0FD2B68024621462846BDE818
:104790007040DB68184770BD03689B6818470023AA
:1047A000012A98BF0A2230B58BB00C468DF8243010
:1047B00009A92546B4FBF2F404FB1253DBB2092B22
:1047C00094BF30333733DBB2AA4201F8013DF0D950
:1047D000FFF7D2FF0BB030BD10B5044628B105F08D
:1047E00041FD90FBF4F303FB1404204610BD884206
:1047F00010B5044603DA081AFFF7EEFF044420461A
:1048000010BD10B50446FFF7CEFB204610BD0000DA
:1048100000230348034A0449836000F0D1BF00BF6E
:10482000DC0F00206C00002003480A0870B5002649
:1048300004460D4640F8086FFFF7F2F82846257049
:10484000FFF7E0F92046666070BD10B504460068C9
:10485000FFF754FB204610BD10B50446006808B1B0
:10486000FFF74CFB0023C4E90133236010BD38B5CA
:1048700004460D4600680131FFF748FB10B1C4E95A
:104880000005012038BD10B50368044623B1436814
:104890008B4201D3012010BD2046FFF7E8FF00281E
:1048A000F9D0A368002BF5D122681370F2E770B538
:1048B0000E46114604461546FFF7E5FF20B920468F
:1048C000FFF7CAFF204670BD2A4631462068A56022
:1048D00005F08EFC00212268A368D154F2E78842DB
:1048E00010B50B46044604D0096821B19A68FFF759
:1048F000DEFF204610BDFFF7AFFFFAE7002310B53B
:104900000446C0E9003383600373FFF7E8FF2046E5
:1049100010BD38B505460C4649B1084605F003FD03
:10492000214602462846FFF7C2FF284638BDFFF75A
:1049300093FFFAE71FB5044600230846C4E9003395
:10494000A360237301A900F0A8FD204601A9FFF789
:10495000E0FF204604B010BD70B505460E4609B90B
:10496000002070BD6AB1846814442146FFF78BFFB4
:104970000028F5D02868AB683146184405F0B0FC33
:10498000AC600120EDE710B58A6809680446FFF7BE
:10499000E3FF10B92046FFF75FFF204610BD38B592
:1049A00004460D4621B92046FFF756FF204638BD84
:1049B000084605F0B8FC294602462046FFF7CCFF22
:1049C0000028F0D0F2E700000222002010B5084BCA
:1049D000084C1A60084B2060A080A071A360FFF70C
:1049E000B1F92046BDE81040044A054900F0E8BE90
:1049F000F80F0020EC0F00200000FFFF6C000020EB
:104A0000EF200A0813B503688DF80710DC6B01224C
:104A100047F230530DF10701A04702B010BD10B4AA
:104A20000368DC6B47F23053A44610BC604713B5F3
:104A3000134602688DF80710D46B0DF107010122AF
:104A4000A04702B010BD70477047000010B5044683
:104A5000064B0846994204F10C0404D000F0BCFE59
:104A6000002808BF0024204610BD00BF18A70A0870
:104A700010B50446AC2100F0A8FE204610BDFBF79F
:104A800010BB000038B50B4B8469054603607CB150
:104A90006368013B63605BB9236820469B68984765
:104AA000A368013BA3601BB923682046DB689847D5
:104AB000284638BD28A70A0810B50446FFF7E2FFCC
:104AC00020461C2100F081FE204610BD70B5044632
:104AD00006464D69044B8C3544F8043B0FCD0FC49A
:104AE0002B683046237070BD94A60A0810B5436940
:104AF0000446B3F88620B3F884309A4205D063693F
:104B0000B3F884201344187910BD03681B699847D3
:104B10000028F4D14FF0FF30F6E710B543690446A2
:104B2000B3F88620B3F884309A4208D06369B3F8AA
:104B30008420511CA3F884101344187910BD036815
:104B40001B6998470028F1D14FF0FF30F6E7F8B520
:104B500043691746B3F88620B3F8843005469A4275
:104B60000E4616D069693046B1F88430B1F88640F7
:104B7000E41ABC4228BF3C4604332246194405F0DF
:104B800037FB6A69B2F884302344A2F884302046A7
:104B9000F8BD03681B6998470028E3D14FF0FF3444
:104BA000F5E700234269A2F884304269A2F8863012
:104BB000704700002DE9F0431F4603688BB0DB6AA5
:104BC00005460C46164698473846FFF7A9FD036888
:104BD000DB689847002854D0334606220121022082
:104BE0000097D5F81480FEF7D5FF2023C8F8000001
:104BF0004FF00008CDE902386B6901201B6823499A
:104C00000193234B02AA00934346FFF78BF86B698D
:104C10001868FEF7B7FF002833D02846FFF7C1FF1A
:104C20000223ADF80830E37976BA8DF80C30A37919
:104C30004FF4FA508DF80D306379ADF80A608DF8B5
:104C40000E3014F8043F8DF80F30FFF75BF86B69F6
:104C500006461022186802A9FEF7A4FF81463046D6
:104C6000FFF750F80FCC6E698C360FC6236833708F
:104C70002F61B9F1000F07D02B682846DB6A9847EF
:104C800040460BB0BDE8F0830120FAE7E0A60A0831
:104C9000E7A60A0838B542690446B2F886302BB157
:104CA000B2F884209A4201D1FFF77BFF2069FFF719
:104CB00037FD0368DB689847F8B163691868FEF749
:104CC00061FFD0B16069B0F886107F2915D8051D45
:104CD000C1F18002002300682944FEF76BFF002821
:104CE0000BDD6369B3F886200AB9A3F884206369F1
:104CF000B3F886201044A3F886006369B3F88600F1
:104D0000B3F88430C01A38BD38B543690446186812
:104D1000FEF738FF18B163691868FEF753FF65693D
:104D2000FEF760FF28606069112200218C3005F0D9
:104D30006DFA2046BDE83840FFF733BF10B5436930
:104D400004461868FEF71EFF08B9002010BD206950
:104D5000FFF7E6FC0368DB6898470028F5D0636935
:104D60001868FEF707FFB0FA80F04009EEE708B5D3
:104D7000FFF7E4FF003818BF012008BD2DE9F3411B
:104D80000027476004460D4616469846FFF7D6FFB3
:104D900070B1CDE9008760693B463246294600681C
:104DA000FEF728FF002800DA606002B0BDE8F0815D
:104DB0004FF0FF30F8E770B50546FFF7BFFFE8B9E1
:104DC0006B69B3F88610B3F88420914216D1186845
:104DD000FEF7D8FE08B9002070BD6B691868FEF7B1
:104DE000C9FE01280446F6D12B6828461B6998475E
:104DF00030B92B682846DB6A9847ECE70120EBE7DF
:104E00002046E9E7002310B504460160C0F884306D
:104E10008830FFF7D7FB204610BD0000F8B54FF4EF
:104E20007A720023C0E901320D4A036102604361D6
:104E30000446AC200E46FBF730F9051E05F10C07C1
:104E400008D00123C5E90133064B314638462B60B3
:104E5000FFF7D8FF2046C4E90575FFF7A2FEF8BDAD
:104E600028A70A0804A70A0810B50446FEF7BAFEE8
:104E700001462046FFF7D2FF204610BD10B504467C
:104E80000068FEF77FFE10B12068FEF79BFE20460B
:104E900010BD0C30FFF7F2BF2DE9F0431F46036849
:104EA0008FB0DB6A06460D46904698471348FFF7D9
:104EB000E2FBF0B102A8FFF785FB284605F033FAC4
:104EC000002481B23B462846009403AAFEF722FF45
:104ED00090B9336809ADD3F82090094B03AC08931F
:104EE0000FCC0FC5236842462B7030463B4608A9BD
:104EF000C8470FB0BDE8F0832046FAE7D40F002082
:104F000094A60A0813B5134602688DF80710946931
:104F10000DF107010122A04702B010BD07B50368DB
:104F20008DF807100122DB680DF10701984703B0E7
:104F30005DF804FB10B403689C6947F23053A44643
:104F400010BC604710B504460020A06104F11400B5
:104F5000FFF714FFA369636010BD0000F8B50025DA
:104F6000144BC2600360018145600446FEF73AFEBF
:104F70002061FEF737FE014604F11400FFF74EFFF3
:104F8000294628460C4DFEF743FD2A685AB9FEF71C
:104F900029FE07461C20FBF780F8064610B139466B
:104FA000FFF73CFF2E6000210120FEF731FD204677
:104FB000F8BD00BF74A70A08FC0F002010B5044616
:104FC0001430FFF7A1FE2069FEF7FCFDFEF70AFE94
:104FD000206110BDF8B50446FFF7F0FFE068FFF769
:104FE0009FFB0368DB689847054668B12069FEF7B8
:104FF000C9FD48B9E1682089FEF7ECFD0746FEF7D8
:10500000C1FD064610B127612846F8BD2046FFF7CE
:10501000D5FF3546F8E7000010B50446054B0360A0
:10502000FFF7CCFF044B04F12C006361FEF720FC7A
:10503000204610BD74A70A0828A70A0810B5044620
:10504000FFF7EAFF2046302100F0BFFB204610BDED
:1050500008B50020FEF7D2FE28B1FEF7BFFE80F0B3
:105060000100C0B208BD0120FCE710B50020FEF72A
:1050700007FD0446A0B9FEF75DFE012810D12046C9
:10508000FEF780FE60B9FFF7E3FF10B9FEF79EFE62
:10509000F9E7FFF7DDFFBDE810400020FEF7F0BCA8
:1050A000204610BD1FB5FFF7E0FF10220021684623
:1050B00005F0ACF800216846FEF7EAFC009805B060
:1050C0005DF804FB024B1A68024B1A60704700BF80
:1050D000000000200010002070474174704708B5A0
:1050E000007CFEF7D7FD20EAE07008BD08B5007C23
:1050F000FEF7A8FD20EAE07008BD08B5007CFEF7C9
:10510000B1FD40EAE07008BD08B5007CFEF7A2FDE5
:1051100040EAE07008BD007CFEF7ACBD70B5467C8F
:1051200004460D462EB12946207CBDE87040FEF7AE
:1051300081BD007CFEF7AEFD0028F4DC304670BD7A
:1051400010B50446142100F040FB204610BD0000BD
:105150004FF0000C10B50446084611464FF47A7221
:10516000C4E901C2044A20742260012262741A4612
:10517000FEF758FD204610BDB4A70A0838B50D4DFE
:105180002978BFF35B8F11F0010411D12846FAF79B
:105190008AFF68B12146084A084B0948FFF7D8FF43
:1051A0002846FAF785FF074A0749054800F008FB3B
:1051B000034838BD04100020081000208C10002087
:1051C000101100206C000020D9500A08417470476B
:1051D000704708B50021007CFEF77CFD40EAE070D6
:1051E00008BD08B50121007CFEF774FD40EAE070BF
:1051F00008BD08B5007CFEF765FD20EAE07008BD3B
:1052000008B5007CFEF756FD20EAE07008BD38B511
:105210000446007C0D46FEF755FD002801DC607C4D
:1052200028B12946207CFEF75DFD20EAE07038BDFC
:10523000007CFEF75FBD10B50446142100F0C5FAEE
:10524000204610BD10B54FF47A730446084600217D
:10525000C4E90113044B20742360012311466374D5
:10526000FEF720FD204610BDE4A70A0810B504464D
:105270001422002104F0CAFF054B20466360054B51
:10528000E36040F2011323818123238210BD00BF1C
:10529000541100205512002030B50F4D87B001A8E1
:1052A000FFF7E4FF2978BFF35B8F11F0010410D101
:1052B0002846FAF7F8FE60B1214601AA0748FFF731
:1052C000C1FF2846FAF7F4FE054A0649034800F0F4
:1052D00077FA024807B030BD241100202C110020BD
:1052E0006C000020D1510A0810B504461422002198
:1052F00004F08CFF054B20466360054BE36040F2F1
:10530000011323818123238210BD00BFD612002008
:10531000D713002010B50F4C86B001A8FFF7E4FFAB
:105320002378BFF35B8FDB0710D42046FAF7BBFE70
:1053300060B1012101AA0848FFF784FF2046FAF76F
:10534000B7FE064A0649044800F03AFA024806B099
:1053500010BD00BF28110020401100206C0000206B
:10536000D1510A08002240681146FEF777BDF0B51A
:10537000154689B011220E460446002103A804F008
:1053800045FF284604F0CFFF002781B27368284606
:10539000009703AAFEF7BEFC30B139462046FFF75E
:1053A00031F9204609B0F0BD204603A9FFF718F9EE
:1053B000F7E7002240681146FEF770BD0022406802
:1053C0001146FEF77BBD00224068FEF76FBD00224C
:1053D000406881F00101FEF759BD002340681A467C
:1053E0001946FEF74BBD002340681A461946FEF7E2
:1053F0003DBD002240681146FEF720BD002202217B
:105400004068FEF723BD002340681A46FEF70EBD34
:105410000422024B5A60024A1A6070475814002056
:1054200014A80A0810B5044604F07DFF431E204668
:105430002344834206D90278197800F8011B03F847
:105440000129F6E710BD70B50C46911E222922D81D
:10545000254668B1B0FBF2F602FB1600C1B209287E
:1054600094BF30315731C9B2304605F8011BF0E71F
:105470002A4630212344934202D902F8011BFAE75D
:105480005A1BAB4238BF002200232046AB54FFF723
:10549000C9FF204670BD0020FCE708B50123FFF7D7
:1054A000D2FF08BD014B1860704700BF0800002004
:1054B00008B5134B43B1FFF7EFFE03681B6998472C
:1054C000002801DDAFF300800E4B43B1FFF756FE1D
:1054D00003681B699847002801DDAFF300800A4B81
:1054E0000BB1AFF30080094B43B1FFF713FF036823
:1054F0001B699847002801DDAFF3008008BD00BF9D
:10550000000000000000000000000000000000009B
:1055100008B5FFF7CDFFFEF7ABFA014B186008BDE9
:10552000781400200248034A0349121A04F060BEAE
:10553000004002400440024040AF0A08002307B583
:105540001A466FF077010093FEF72EFC03B05DF86A
:1055500004FB000007B543880A2B08D0502B0BD161
:10556000094B1B684BB103B05DF804EB1847FFF71C
:10557000E5FF03B05DF804FB00231A466FF07701E6
:105580000093FEF711FCF4E76414002038B5124CC8
:1055900000211248FEF7DAFC114D2368AB420CBF24
:1055A000012200220F4B1A7002D0FFF7BBFF2560CB
:1055B000FEF746FA044604F031FE0B4B13B12046C9
:1055C000AFF3008000210848FEF720FCBDE838401A
:1055D00000210648FEF7DEBB00400240A5540A0841
:1055E0001E1C279A601400200000000055550A0870
:1055F00010B50446806808B1FEF71AFA204610BDBF
:10560000172870B5044601D9002070BDA0F10D0324
:10561000022B0BD9012826D800F092F80021007C3B
:10562000FEF796FA80F00100C0B2EEE7134E317833
:10563000BFF35B8F11F001050FD13046FAF733FD50
:1056400058B129460E48FFF7F1F83046FAF730FD19
:105650000C4A0D490A4800F0B3F8094B1878FEF7D8
:10566000D9FA0028D0D1123C012C05D8FFF786FDCD
:10567000007CFEF707FBD5E70120C6E76814002091
:105680006C1400206C000020F1550A08172838B56A
:1056900004460D460AD8FF2908D0FFF7B1FF28B10C
:1056A00029462046BDE83840FEF70ABA38BD38B56D
:1056B00004460D46FEF70CFAFF2810D0062804D841
:1056C0004D2323FA00F0C30709D42046FFF798FFC3
:1056D00028B129462046BDE83840FEF701BA38BD5A
:1056E00010B5044609289CBF0A34A4B22046FFF72F
:1056F00087FF50B103212046FEF7DAF9032804D1D1
:105700002046BDE81040FEF7F3B9002010BD0000B0
:10571000002370B5202543801423084E04460380DF
:10572000314685600561284600F051F831466060D9
:10573000284600F04CF8E060204670BD48A80A08F2
:1057400030B50F4D87B02978BFF35B8F11F001049E
:1057500013D12846FAF7A7FC78B101A8FFF7D8FFC4
:10576000214601AA0748FEF7F9FE2846FAF7A0FCF1
:10577000054A0649034800F023F8024807B030BD47
:105780007C140020801400206C00002005450A08CD
:10579000002313B5074C1A46194620460093FEF71E
:1057A00047FF2046044A054902B0BDE8104000F01A
:1057B00007B800BF941400206C00002081450A083F
:1057C0000B460146184604F005BDFAF76ABCFAF725
:1057D00066BC08B5FEF7A2FB014900F0FBB800BFAC
:1057E00064A80A087FB500241023CDE902340368B9
:1057F00015469E6912686B4600948DF80440B047C8
:105800009DF8043003F00603062B09BF0120204653
:10581000009B2B6004B070BD0098904214BF012023
:105820000620704710B50446024B036000F0CFF825
:10583000204610BDA4A80A0810B50446FFF7F2FFE1
:1058400020460821FFF7C1FF204610BD2DE9F04199
:10585000DDF818801F46DDE90834984506461546F0
:1058600007D1079900F0B6F818B165710020BDE8BE
:10587000F0813946304600F0ADF80028F6D001231B
:10588000C4F800802571A371F0E738B515461C46B1
:1058900000F0A0F820B10823E360062325602371FF
:1058A00038BD2DE9F04105460C4616461F4600F06E
:1058B00091F848B9032F07D8236832462946204675
:1058C000BDE8F0415B691847BDE8F08110B50446BA
:1058D000024B0360FFF7A6FF204610BD04A90A088B
:1058E00010B50446FFF7F2FF20460C21FFF76DFFCD
:1058F000204610BD2DE9F041DDF8188006469045A0
:105900000F4615461C460BD0B0682A460368CDF8F2
:1059100018801E6A39462346B446BDE8F041604708
:10592000194600F057F80028EED00620BDE8F081B7
:105930002DE9F14F0D46DDE90A4BDDE90CA61946CC
:1059400081461746984600F045F890B1002D346026
:10595000377109DB2C44A2450CBF06240124B47125
:10596000002001B0BDE8F08F0235F9D10123B371F9
:10597000F6E7544506D15946484600F02BF808B1E1
:105980007771EDE7D9F808003A460368CDE90CA62F
:10599000CDE90A4BDC6929464346A44601B0BDE87F
:1059A000F04F60472DE9F04107460C4615461E466C
:1059B000FFF76BFF48B9B8682A46036821469F691C
:1059C0003346BC46BDE8F0416047BDE8F081704712
:1059D00000207047814208B50ED0406803782A2B1A
:1059E0000CD049680B782A2B08BF013104F06EFCFB
:1059F000B0FA80F0400908BD0120FCE70020FAE77A
:105A0000F0B5284D21F00043AB4287B021DD264D93
:105A1000AB4209DD02460B4603F0ACFB02460B46E7
:105A20001046194607B0F0BD02AA01F091F800F047
:105A30000300012817D0022829D0F8B1DDE904239A
:105A4000DDE902010124009402F0EAFB02460B4664
:105A5000E6E70022002301F097FE02460B461046BF
:105A6000194607B0F0BDDDE904230090DDE902012D
:105A700002F0D6FB024601F10043D1E7DDE9042341
:105A8000DDE9020101F080FE02460B46C8E7DDE9D0
:105A90000423DDE9020101F077FE024601F1004333
:105AA000BEE700BFFB21E93FFFFFEF7F00B51C4AC7
:105AB00020F00043934283B018DDB3F1FF4F05DBC4
:105AC000014604F05BF803B05DF804FB694601F0A1
:105AD000E7FC00F00302012A0ED0022A18D092B18E
