:02000004080AE8
:1000000000000A0858AA0A080000060006000501B8
:080010000402DB070000000000
:04001800589F0A08DB
:1000200009480A4908B5884205D0094A824202D0E7
:10003000121A09F0E5FE0748074A0021121A09F0D2
:10004000EDFE064808BD00BF00000020C4A90A0854
:100050006C0000206C000020740F0020740F002042
:1000600070B505F0AFF90025054E064CA41BA40899
:10007000A54200D170BD56F8043B98470135F7E71B
:1000800098A90A08C0A90A0802F00EB908B502F03A
:1000900003FABDE8084005F057B903F0A7BE03F026
:1000A000A5BE03F0ABBE0078B0FA80F040097047FF
:1000B00001230370704700002DE9F04F92469B46E4
:1000C0000026284F87B0284AF3B2B2F900209342A5
:1000D00044DA4FF000094FEA8308244B5FFA89F4B1
:1000E000B3F9003009F101099C4235DA3B68A4B24A
:1000F00053F80800214603F032FA0546C0F3072002
:1001000008F08EFF52465B4608F0F4FF09F0CAFA89
:10011000C3B2C5F30740039308F082FF52465B4623
:1001200008F0E8FF09F0BEFAC3B204933B68E8B2F6
:10013000059308F075FF52465B4608F0DBFF09F0B7
:10014000B1FADDE90332C0B200900598214650F8BB
:10015000080003F0ADF9C0E70136B4E707B0BDE829
:10016000F08F00BF700000207E0000207C00002087
:100170002DE9F04F4FF0000985B0CDE90223DFF8FB
:10018000BCB02C4B5FFA89F4B3F900309C424DDAD5
:100190004FF0000AA400284B5FFA8AF5B3F900304B
:1001A0000AF1010A9D423EDADBF80030ADB218597F
:1001B000294603F0D4F98046C0F3074008F030FF29
:1001C000DDE9022308F096FF09F044FA0646C8F379
:1001D000072008F025FFDDE9022308F08BFF09F076
:1001E00039FA07465FFA88F008F01AFFDDE90223C2
:1001F00008F080FF09F02EFA0F9B9F42B8BF1F4600
:100200000E9B9E42B8BF1E46109BF2B28342B8BFFF
:100210000346DBF80000D9B2009100592946FBB231
:1002200003F046F9B7E709F10109AAE705B0BDE80F
:10023000F08F00BF7E0000207C00002070000020B6
:100240002DE9F74316460024DFF83080DFF83090C0
:100250008D00DFB2B8F90030A3420CDD0A9BD9F85B
:100260000000DBB20093A1B23B464059F2B203F06A
:100270001FF90134EEE703B0BDE8F0837C000020F5
:10028000700000202DE9F743002402AB03E90600CB
:100290000E4E0F4FB6F90030A34213DD0025DFF8F4
:1002A00034904FEA8408B9F90030AB4208DD3B686E
:1002B000A9B2009A53F8080003F023F90135F2E7D8
:1002C0000134E7E703B0BDE8F08300BF7E00002003
:1002D000700000207C00002070B50024094E0A4DFB
:1002E000B6F90030A3420BDD2B6853F8240002F06E
:1002F00066F92B6853F8240002F06EF90134EFE739
:1003000070BD00BF7E000020700000202DE9F74F77
:100310000F469046DFF8CCB09DF83020DBF80000A7
:100320001C469DF83830414650F827000093019252
:100330009DF834A003F013F9214606464FF07E5095
:1003400009F024FA0546C6F3072009F0D5FA294634
:1003500009F026FB8146504609F0CEFA214609F005
:100360001FFB0146484609F013FA09F01BFD5FFA2E
:1003700080FAC6F3074009F0BFFA294609F010FBDE
:10038000019A8146104609F0B7FA214609F008FBA8
:100390000146484609F0FCF909F004FD5FFA80F9CE
:1003A000F0B209F0A9FA294609F0FAFA009B0546CD
:1003B000184609F0A1FA214609F0F2FA014628464A
:1003C00009F0E6F909F0EEFC53464A464146DBF8EF
:1003D00000B0C0B20C905BF8270003B0BDE8F04F4E
:1003E00003F066B8700000202DE9F84300240E4E9B
:1003F0000E4FB6F90030A34213DD0025DFF8309030
:100400004FEA8408B9F90030AB4208DD3B68A9B275
:10041000002253F8080003F074F80135F2E70134C4
:10042000E7E7BDE8F88300BF7E00002070000020F1
:100430007C0000202DE9F04F044697B000F5B07025
:100440000D46CDE9082303F055F904F5C87003F013
:1004500051F904F5FA7B04F5E07003F0C7F858464B
:1004600003F01CFA964B0899964A19806FF0604188
:100470008D422CBF4FF0FF3A4FEA850A5046904616
:1004800015809946FFF70BFE00266FF060428E4FF5
:100490003860B8F90030B34211DDB9F900003B68AB
:1004A00090422CBF4FF0FF3080000793FFF7F7FD1D
:1004B000079B6FF0604243F826000136E9E750469B
:1004C000FFF7EDFD814B264600279946DFF818A27D
:1004D0001860A4F104083BB29D4249DD1020FFF7EB
:1004E000DCFD079030B1209A099BD25DBDF8201049
:1004F00002F04EF8D9F80030079A232143F827205C
:100500000A2004F00CF9462148F8040F002004F0FA
:1005100006F909F0F1F90A21C8F82000002004F0DA
:10052000FEF80528CCBF01234FF0FF330A21C8F89D
:100530006030052004F0F3F809F0DEF9644909F0B1
:10054000E3FAC8F84000DAF8000001F0C6FDC6F88A
:100550008000DAF8000001F0C2FDC6F88400DAF885
:10056000000001F0BEFD0137C6F888000C36B2E786
:100570000123192532211E226427C4E93832C4E937
:100580003D514B20C4F814116FF01D029621C4F8A0
:10059000E820C4E94671C4E94D014FF0FF32E12182
:1005A0004FF00F0AC4E93F02C4E94F12C4F80451E6
:1005B0004FF40C724FF48C754FF0C80CC4E951A283
:1005C000C4F808511426B9252E224FF000084FF028
:1005D00000090421C4E956C2C4E949653D4A3E4EBA
:1005E000C4E93B83C4E94383C4E94B83C4F82031A5
:1005F000C4F8547111600AA8C4E953834A465146AD
:10060000CDE90477CDE902A70196344BCDF80090EF
:1006100003F071F80AAD04F5B07C0FCDACE80F0023
:100620000FCDACE80F0095E80F008CE80F005146A5
:1006300001962A4B2A4ACDF800900AA8CDE9047702
:10064000CDE902A704F5C87603F055F80DF1280CA2
:10065000BCE80F000FC6BCE80F000FC695E80F00FE
:1006600086E80F00CDE90277CDE900A74FF076527A
:1006700003211C4B0AA804F5E0770AAE02F0B8FF8C
:100680000FCE0FC70FCE0FC795E80F0087E80F00FA
:10069000C4F8F08103F0A4F9C4F89492C4F8980265
:1006A0002046FFF719FE2046FFF79EFE219A0E4BCB
:1006B00058461A6003F018F9204617B0BDE8F08FCD
:1006C0007C0000207E0000208000002070000020C0
:1006D00000007041780000206666663F00000C4212
:1006E0000000E040CDCC4C3F74000020002370B5EA
:1006F000074E084DB6F900205C1CDBB2934206DAC7
:100700002A6852F8230001F067FF2346F2E770BD24
:100710007E000020700000202DE9F34100244FF4FA
:100720007A774026DFF82C80D8F8005003F058F98B
:10073000B0FBF7F04023009600F00700A1B21A4684
:1007400055F82000013402F0B3FE462CECD102B083
:10075000BDE8F081700000202DE9F04F0646054607
:1007600000274FF07E5A87B0041F6D4BB3F900305D
:10077000BB4240F3D180606A09F0EEFA636E5FFA23
:1007800087F9012B1FFA80F840F0918000280BDDDB
:10079000002308F1FF32CDE9013300934946534667
:1007A000304692B2FFF7B2FD95F888306268029346
:1007B00095F884300132019395F88030424492B22A
:1007C0004946304600935346FFF7A0FDD4F864B085
:1007D000584609F091F8616C09F0E2F8616A08F096
:1007E000D7FF606208F02EFC804654F8040F89465B
:1007F00008F016FC02460B46CDE904230022494BC3
:1008000008F078FC02460B464046494608F0E4FEF4
:10081000002866D0BBF1000F63DA01230A21002013
:10082000236603F07CFF05281ADD23210A2003F04C
:1008300076FF2268C30F82420344B8BF02EBD27234
:100840008046B8BF52104FEA6300C0F10000BCBF41
:10085000C2EB6303C01A09F04FF8C4F800802062AD
:100860000A21002003F05BFF072809DD0A2105208B
:1008700003F055FF09F040F82B4909F045F92064D1
:10088000DFF8B080D8F8000001F027FCC5F8800040
:10089000D8F8000001F023FCC5F88400D8F8000067
:1008A00001F01FFCC5F8880001370C355DE7002812
:1008B00010DD95F8883008F1FF32029395F8843006
:1008C0004946019395F880303046009392B25346E2
:1008D000FFF71CFD00236268CDE901330132424479
:1008E0006DE70022DDE90401104B08F003FC02462D
:1008F0000B4600200E4908F045FA02460B464046DA
:10090000494608F087FE0028CED0BBF1000FCBDDB2
:100910004FF0FF332366B3E707B0BDE8F08F00BFA9
:100920007E0000200000E0BF000070410000E03FBA
:1009300000805140740000202DE9F341FFF754FD81
:1009400000244FF47A770A25DFF83480D8F8003095
:100950001E5903F045F8B0FBF7F0B0FBF5F140236A
:1009600005FB1101C1F146011A463046009389B2D8
:10097000043402F09DFD202CE8D102B0BDE8F081E6
:100980007000002070B50646084608F049FB044692
:100990000D46304608F056FB22462B46BDE8704017
:1009A00004F0C8BE000000002DE9F04F8FB00C929B
:1009B0009DF86020054618460B920C4608F042FB55
:1009C00002460B462846FFF777FB0B9B002B45D0D2
:1009D000E3692068184408F08FFF4FF07C5108F05D
:1009E000DFFFA14909F090F805F0A2F89F4908F04F
:1009F000CFFE9F4908F0D4FF9E4908F0D1FF0A902E
:100A0000002308939C4B9DF820B0B3F900309B4520
:100A100080F2118100230993984B9DF824A0B3F92B
:100A200000309A4580F203810B9B6BB10A9809F064
:100A3000B9F9C0B2CDE9010000904FF07C535246A5
:100A400059462846FFF762FCBBF1070F00F29B8076
:100A5000DFE80BF0078B8D8F9193959700230A9316
:100A6000CEE7606808F048FF09F076F90D9008F0CD
:100A700043FF7D4909F048F80221FFF783FF8046D4
:100A80005046894608F0CCFA002206460F467C4BB9
:100A90004046494608F02EFB02460B463046394692
:100AA00008F09AFD00285CD00D9B580008F0B8FAB9
:100AB00063A3D3E9002308F01DFB63A3D3E900235C
:100AC00008F042FC08F00EFE6E4B0646186801F076
:100AD00002FB032390FBF3F303EB4303C01A01284B
:100AE00053D0022874D068BB304604F0E7FD61495A
:100AF00008F056FF09F030F90590304608F0A2FAE8
:100B000053A3D3E9002306460F4608F03BF904F04F
:100B10007FFD51A3D3E9002308F0ECFA08F09AFD19
:100B20004FA3D3E9002306903946304608F02AF94E
:100B300004F06EFD48A3D3E9002308F0DBFA08F0C7
:100B400089FD07909DF81C30524602939DF818309D
:100B5000594601939DF81430284600930C9BFFF7EB
:100B6000D5FB099B0133099356E7E0687AE7606992
:100B700078E7A06976E7606B74E7206B72E7A06A9C
:100B800070E7206A6EE700206CE7304608F05AFAFA
:100B900033A3D3E900238046894608F0F3F804F034
:100BA00037FD2DA3D3E9002308F0A4FA08F052FD85
:100BB0000590304604F082FD2E4908F0F1FE09F060
:100BC000CBF823A3D3E90023069049464046ADE77E
:100BD000304608F037FA1EA3D3E900238046894641
:100BE00008F0D0F804F014FD1BA3D3E9002308F0AB
:100BF00081FA08F02FFD1AA3D3E900230590494696
:100C0000404608F0BFF804F003FD13A3D3E9002326
:100C100008F070FA08F01EFD0690304604F04EFD14
:100C2000144908F0BDFE09F097F807908AE7089B81
:100C300001330893E6E60FB0BDE8F08FAFF3008014
:100C40007A008BFCFA2109400000000000FEAF4052
:100C50005100B2FD51C100400000000000E06F40B3
:100C60005100B2FD51C1104000F07F453333333F96
:100C70000000A04000007F437E0000207C00002098
:100C800000805140740000202DE9F04F064689B0E5
:100C9000184690460C4608F0D5F9664D02460B46BC
:100CA0003046FFF709FA0021286801F010FA08B36E
:100CB000332061490B68013393FBF0F200FB1233E0
:100CC0000B600023DFF87C91DFF87CA105935B4B80
:100CD0009DF81450B3F900309D4280F2A7800027A0
:100CE000DFF854B1072D58D8DFE805F00B4B4D4F16
:100CF00051534F550121286801F0E9F90028D7D157
:100D0000DFE7206808F0F8FD09F026F808F0F4FDA8
:100D1000494608F0F9FE0790384608F0EDFD0799BE
:100D20000690084608F03CFE514608F039FE069B46
:100D30000146184608F0D2FFA8B10C23DBF80000EA
:100D40003F494343C81890F808C0CB5C0079C7F10D
:100D5000230201900093294643463046CDF808C04F
:100D600092B2FFF7D3FA0137232FBBD10027DFF868
:100D7000C8B0072D58D8DFE805F0124B4D4F51533E
:100D80004F556068BEE7A068BCE7E068BAE7206935
:100D9000B8E76069B6E7A069B4E70020B2E7E069A8
:100DA00008F0AAFD08F0D8FF08F0A6FD494608F0B3
:100DB000ABFE0790384608F09FFD0799069008465D
:100DC00008F0EEFD514608F0EBFD069B0146184683
:100DD00008F084FFA8B10C23DBF800001849434356
:100DE000C81890F808C0CB5C007907F12302019085
:100DF0000093294643463046CDF808C092B2FFF72B
:100E000085FA0137232FB4D1059B013305935EE7A3
:100E1000206AC5E7606AC3E7A06AC1E7E06ABFE786
:100E2000206BBDE7606BBBE70020B9E709B0BDE808
:100E3000F08F00BF74000020780000207E000020AA
:100E40006C9F0A0800F07F4500000C422DE9F04F2E
:100E5000044689B0184690460D4608F0F3F8484E0F
:100E600002460B462046FFF727F9306801F033F9B8
:100E7000D4F8F031984218D0306801F02CF9C4F859
:100E8000F00133203F4A1368013393FBF0F100FB7C
:100E900011330C2159433C48136042189368415860
:100EA000526804F5FA7002F03BFD2B68E8690726EA
:100EB00018442B6ADFF8CCB018446B68002518443E
:100EC00008F01AFD4FF07A5108F06AFD2F4908F03A
:100ED0001BFE014608F064FD2D4908F061FD08F095
:100EE000B1F800222B4B07F04FFF08F0B3FBDFF8FF
:100EF00098900490049BC5F1040793FBF7F74FF01B
:100F0000000A07EBD7735B10C3F123030593EBB221
:100F10000693BA452CDA0C21059B03EB0A02DBF899
:100F2000003092B24B4309EB0301087A19F8033001
:100F30000979029001912046069900934346079251
:100F4000FFF7E4F90C21DBF80030079A4B4309EB7B
:100F50000301087A19F8033009790290019100938E
:100F6000314643462046FFF7D1F90AF1010AD0E79E
:100F70000135013E042DF6B2BCD109B0BDE8F08FB9
:100F800074000020780000206C9F0A0800F07F4564
:100F900000008C420000E03F2DE9F04F044689B08C
:100FA000184617460D4608F04DF8714E02460B469E
:100FB0002046FFF781F8306801F08DF8D4F8F03161
:100FC000984218D0306801F086F8C4F8F001332058
:100FD000684A1368013393FBF0F100FB11330C21D5
:100FE000594365481360421893684158526804F5A4
:100FF000FA7002F095FC2A68EB69696813442A6A62
:10100000E8680A441344A9686A6A0A441344AA6A4D
:1010100002441344E86A2A69104403446A69286B4D
:1010200010440344AA69686B1044184408F064FC37
:101030004FF07C5108F0B4FC08F004F800224F4B4C
:1010400008F058F88046D4F89402894607F0FAFF71
:1010500000224A4B08F04EF80B46024649464046ED
:1010600007F092FE08F03EFBC4F89402054602F039
:10107000B7FCD4F89832C01A23282BD902F0B0FC60
:10108000D4F878324FF07A51C4F87432D4F87C3204
:10109000C4F89802C4F87832D4F880322846C4F8EC
:1010A0007C32D4F88432C4F8803208F079FC3449B8
:1010B00008F02AFD014608F073FC324908F070FC84
:1010C00007F0C0FF00222D4B07F05EFE08F0C2FAC9
:1010D000C4F884020725002604F51D73DFF894B0D8
:1010E000DFF8948004934FF00009049B53F804AB9D
:1010F00004930AEBDA735B10C3F123030593F3B295
:101100000693D1452CDA0C21059B03EB0902DBF891
:10111000003092B24B4308EB0301087A18F8033011
:101120000979029001912046069900933B46079267
:10113000FFF7ECF80C21DBF80030079A4B4308EB83
:101140000301087A18F8033009790290019100939D
:1011500029463B462046FFF7D9F809F10109D0E7B7
:101160000136013D042EEDB2BDD109B0BDE8F08FCE
:1011700074000020780000206C9F0A080000E03F07
:1011800000F07F4500008C422DE9F043054685B014
:10119000184607F057FF00240B460A210246CDE906
:1011A000014128460094FEF7E3FFDFF870901A4EE5
:1011B000DFF86C802146D9F8000000F088FF28B3E2
:1011C000C82333271A46009321462846FFF738F8EC
:1011D0003368062C03F1010393FBF7F207FB12338C
:1011E000336013D10C225A4308EB0203996858F874
:1011F00002205B68009128460721FFF721F8336839
:10120000013393FBF7F207FB123737600134072CE9
:10121000D0D105B0BDE8F083780000207400002034
:101220006C9F0A08000000002DE9F04F80468BB04B
:10123000184691460D4607F005FF02460B4640460C
:10124000FEF73AFF00230593694B9DF81470B3F93C
:1012500000309F4280F2B880664BDFF8A4B11C8852
:10126000BB00013C24B20893002C25DDA4B2DBF8BE
:101270000030089A611E985889B202F070F9C0F3E4
:101280000743C0F3072AC6B22246394640460693B2
:101290000093CDE901A64B46FFF738F8069B621C88
:1012A000009339464B464046CDE901A692B2023C36
:1012B000FFF72CF824B2D7E7072F00F28380DFE88E
:1012C00007F004737577797B7D7F686808F014FBFD
:1012D00008F042FD0446400007F0A2FE3CA3D3E91B
:1012E000002307F007FF3CA3D3E9002308F02CF804
:1012F00008F0F8F90646204608F0FEFA3E4908F0E4
:1013000003FC3E4908F04CFB014608F049FB3B4911
:10131000044608F001FD00B1384C304607F092FE5B
:101320002FA3D3E9002382468B4607F02BFD04F060
:101330006FF9CDE90801204607F084FE2AA3D3E91E
:101340000023CDE906015046594607F01BFD04F085
:101350005FF9824630468B4604F0B0F901462046DC
:1013600008F01EFB08F01EFDC0B252465B4602901C
:10137000DDE9060107F0BEFE08F094F9DDE9062379
:10138000C0B20190DDE9080107F0B4FE08F08AF967
:10139000C0B24B460090002239464046FEF7B6FFE9
:1013A000059B013305934FE7E8688FE768698DE790
:1013B000A8698BE7686B89E7286B87E7A86A85E7E8
:1013C000286A83E7002081E70BB0BDE8F08F00BFFB
:1013D0007A008BFCFA2109400000000000FEAF40BB
:1013E0005100B2FD51C110405100B2FD51C1004049
:1013F0007E0000207C00002000F07F4500007F433D
:10140000700000202DE9F04F044600F5E07600F56D
:10141000B07A85B050460F4604F5C879314602F0DF
:1014200083F9514D3146484602F07EF9304602F0CC
:10143000F9F8286800F04FFED4F8F03198421BD03C
:10144000286800F048FE0321C4F8F001002003F0F2
:1014500066F900283AD1286800F03FFE80462868E7
:1014600000F03DFE8246286800F03BFE52460346EF
:101470004146484602F006FA2046FEF7B5FF2546EB
:1014800004F1600B4FF0000805F5B07AD5F8603133
:10149000434544DD504602F0EBF98146504602F0E8
:1014A000ECF995F88C3100EB0802029395F888313D
:1014B0002046019395F8843192B200935FFA89F146
:1014C0003B46FEF723FF08F10108DFE70221002079
:1014D00003F025F988B9286800F0FFFD80462868E8
:1014E00000F0FDFD8146286800F0FBFD4A460346FA
:1014F0004146504602F0C6F9BEE7286800F0EDFD0F
:101500008046286800F0EBFD8146286800F0E9FD80
:101510004A4603464146304602F0E8F8ACE730352B
:101520005D45AFD10025D4F8D831AB4219DD304646
:1015300002F0D2F88046304602F0D3F894F8EC314D
:101540004219029394F8E8312046019394F8E4316B
:1015500092B200935FFA88F13B46FEF7D7FE013561
:10156000E1E705B0BDE8F08F740000202DE9F04FF1
:10157000054699B018460C46079207F063FD261FF2
:1015800002460B462846FEF797FD374618340DF104
:10159000280957F8040F08F0AFF98046F86908F0F9
:1015A000ABF90146404608F0AFFABC4249F8040BDB
:1015B000EFD14FF07C59DFF8FC800DF1440A56F86A
:1015C000040F08F099F90746F06908F095F901460B
:1015D000384608F0DDF8494608F0E2F9414608F0DF
:1015E00093FAB4424AF8040BE9D100272E4B5FFA74
:1015F00087F9B3F90030994553DA4FF000082B4BC7
:101600005FFA88FAB3F90040274BA245B3F900000E
:1016100045DA99FBF0F008F06FF983469AFBF4F095
:1016200008F06AF90146239808F06EFA00240026B3
:101630000AAA069011AB059253F8042B5946CDE93E
:101640000823059B013453F8040BE4B2059308F01A
:101650009DF820F00041229808F056FA069908F00B
:1016600097F8089A114608F09BF90146304608F0B1
:101670008FF8072C0646099BDED10D4908F090F93A
:1016800008F090FBC0B2CDE90100009052464946F7
:101690002846079BFEF73AFE08F10108AFE701373D
:1016A000A4E719B0BDE8F08F7E0000207C00002088
:1016B00000007F4300F07F452DE9F04F8DB005908D
:1016C00018460A928A4607F0BDFC02460B4605986A
:1016D000FEF7F2FC4FF0000BB44B5FFA8BF7B3F957
:1016E000003003EBD373B7EB630F4FEA63046DDA9B
:1016F00000240A26A046B4FBF6F35AF8230008F0AB
:10170000FBF808F029FB08F0F7F8A94908F0FCF904
:101710000221FFF737F902460B463846CDE9082388
:1017200007F07EFCA14BCDE90601B3F9000000EB08
:10173000D070401007F074FCDDE9082307F0DAFCF4
:1017400002460B46DDE9060107F046FF002830D0CF
:101750001FFA88F505F150039BB20693F943934BAA
:10176000B3F90090934B09EBD979186801EB69093B
:1017700000F0B3FC8F4B0B90186800F0B0FC8D4B61
:101780000890186800F0ADFC089A0B9BC0B202905C
:10179000D0B201905FFA89F9D8B22A460A9B00902C
:1017A00049460598FEF7B2FD0835069BADB2AB423F
:1017B000D4D108F10103B3FBF6F20A34E4B2462CAB
:1017C00006FB123897D10BF1010B85E7794FE4B294
:1017D000764BB3F900309C4269DA00254FF00A08D5
:1017E0002E46B5FBF8F30AEB8303D86908F084F8BA
:1017F0006E4B8146B3F9003003EBD373A4EB630067
:1018000007F00EFCCDE90601484608F0A5FA08F0FD
:1018100073F8674908F078F90221FFF7B3F8024638
:101820000B46CDE90823614BB3F9000000EBD07003
:10183000401007F0F5FBDDE9082307F05BFC0246EA
:101840000B46DDE9060107F0C7FE20B31FFA86FB51
:101850000BF150091FFA89F9386800F03EFC089036
:10186000386800F03CFC0690386800F03AFC069AB4
:10187000089BD2B2C0B20192DBB25A460BF1080B00
:101880000290009321460A9B05981FFA8BFBFEF7F6
:101890003DFDD945E0D10136B6FBF8F30A35EDB28E
:1018A000462D08FB13669CD10134E4B290E7002377
:1018B0003F4D0A933D4B9DF82840B3F900309C42C0
:1018C00080F2DC804FF0000B072C6DD8DFE804F0CD
:1018D000045A5D6063666069DAF8000008F00CF88D
:1018E00008F03AFA08F008F8294608F00DF9022144
:1018F000FFF748F880465846894607F091FB0022DA
:1019000006460F462C4B4046494607F0F3FB02467D
:101910000B463046394607F05FFE00B3DFF894808F
:10192000D8F8000000F0D9FB0646D8F8000000F017
:10193000D6FB0746D8F8000000F0D3FBFF43C043B6
:10194000F643C0B2CBF12302FFB2F6B202902146B9
:101950001A4B05980197009692B2FEF7D7FC0BF14F
:10196000010BBBF1110FAFD14FF0230BBBF1350FC2
:1019700000F08080072C7BD8DFE804F022686B6ED3
:1019800071746E77DAF80400A8E7DAF80800A5E7C2
:10199000DAF80C00A2E7DAF810009FE7DAF8140092
:1019A0009CE7DAF8180099E7002097E77E0000200E
:1019B00000F07F4574000020008041403333733FC6
:1019C000DAF81C0007F098FF08F0C6F907F094FF5A
:1019D000294608F099F80221FEF7D4FF0646ABF13C
:1019E00023000F4607F01CFB002280468946254B4A
:1019F0003046394607F07EFB02460B4640464946D4
:101A000007F0EAFDF8B1DFF88480D8F8000000F0B4
:101A100064FB0646D8F8000000F061FB0746D8F8E2
:101A2000000000F05EFBFF43C043F643C0B2FFB2CC
:101A3000F6B202902146144B0598019700961FFAC2
:101A40008BF2FEF763FC0BF1010B8FE7DAF8200055
:101A5000B8E7DAF82400B5E7DAF82800B2E7DAF8F0
:101A60002C00AFE7DAF83000ACE7DAF83400A9E789
:101A70000020A7E70A9B01330A931BE70DB0BDE8DE
:101A8000F08F00BF008041403333733F740000206B
:101A900000232DE9F047054686B00493ADF81430D5
:101AA0008DF8163006AB13E90600FEF7EBFB2C466B
:101AB00001264627DFF8149105F180084FF0000A4F
:101AC000D4F8E430534521DDD4F8E82028465244C8
:101AD00092FBF7F101F001030029B8BF5B42012B33
:101AE00094F8FC3007FB1122029394F8F83008BFF9
:101AF000C2F14502019394F8F43092B20093C9B256
:101B00004B46FEF703FC0AF1010AD9E7B6B10A21F8
:101B1000002002F004FE072810DD2A4E306800F095
:101B2000DCFAC4F8F400306800F0D9FAC4F8F80020
:101B3000306800F0D6FA0026C4F8FC00D4F8EC3087
:101B4000D4F8F02001339342C4F8EC30D4F8E0200C
:101B500007DB0023C4F8EC30D4F8E8301344C4F8B1
:101B6000E830002A0DDDD4F8E430D4F8E82003F59D
:101B70000C739A420DDC2034A0459FD106B0BDE81D
:101B8000F087F8D0D4F8E430D4F8E8205B429A42E9
:101B9000F1DA0A21002002F0C2FD32210A4A13685C
:101BA000184490FBF1F301FB13001060D4F8E0300F
:101BB000002BD2BF4FF40C73D4F8E4305B42C4F86E
:101BC000E830D8E774000020780000203333733FFA
:101BD0002DE9F74F0C46834601F002FF07F088FE1F
:101BE0003D4907F091FF4FF07E5103F041FF014660
:101BF00007F0CEFD07F026FA2FA3D3E9002307F064
:101C000079FA07F06FFD054603F058FD334907F0F8
:101C1000C7FE214607F0C4FE08F0C4F85FFA80FA58
:101C2000284607F00FFA26A3D3E9002306460F46FD
:101C300007F0A8F803F0ECFC80462046894607F040
:101C400001FA21A3D3E9002304460D464046494644
:101C500007F050FA22462B4607F04CFA07F022FD17
:101C60001BA3D3E900235FFA80F83946304607F01A
:101C700089F803F0CDFC14A3D3E9002307F03AFA66
:101C800022462B4607F036FA07F00CFD4FEA0823F0
:101C9000C0B243EA0A4303438DF806005846009356
:101CA0008DF804A08DF8058002AB13E9060003B09F
:101CB000BDE8F04FFEF7E6BA7A008BFCFA21094046
:101CC0005100B2FD51C100400000000000E06F4033
:101CD0005100B2FD51C1104000401C4600007F433E
:101CE000092A1FB504460BDC002A10DB013A082A3A
:101CF0001ED8DFE802F02439434D52343F292E002C
:101D00004E2A53D00DDC422A58D04D2A4BD0334BAB
:101D1000186800F0D3F9204604B0BDE81040FEF783
:101D2000E5BC582A47D0632AF1D1FEF705FEEEE75D
:101D300000232B4A00932B4BFEF736FEE7E7294B97
:101D4000274AFEF7A1FFE2E7274B254AFFF77EF877
:101D5000DDE74FF07D53224AFFF71EF9D7E7234B0B
:101D60001F4AFFF711FAD2E74FF07C52204BFFF7E2
:101D70005BFACCE71E49FFF745FBC8E71D4B184A45
:101D800001934FF07E530093174BFFF7EFFBBEE735
:101D9000154B134AFFF790FCB9E74FF07A51164AFA
:101DA000FFF716FFB3E7FEF7D7FCB0E74FF07D5122
:101DB000FFF76EFEABE7FEF7AFFCA8E74FF47F033B
:101DC0000293FF23ADF80C3000238DF80E3004ABE6
:101DD00013E90600FEF756FA99E700BF74000020E9
:101DE0009A99193E9A99593FCDCC4C3F6666663F09
:101DF0003D0A773F0000A04100002041032200235C
:101E000042610022C0E90133C0E90333C0E907336E
:101E100030B503808370C0F88C2DC0F8902D00F58C
:101E20003A6100F6D83400F6BC3541F8042B8A61DB
:101E3000A94204F8013BA371F7D130BD00000000B6
:101E40002DE9F047036A02EB82051D4400EB82088E
:101E500000EB850507460E46D8F8BC0BD5F8141BD9
:101E600014464FEA820A07F091FCC8F8BC0B814681
:101E700056F82400B2444043401007F03DFD0646AA
:101E8000C5F8140BDAF81C004043401007F034FD8D
:101E9000314607F07DFC06460146C5F8140B48465E
:101EA00007F076FC64252449C8F8BC0B07F02CFE2B
:101EB000FB69814605FB043507EB8505696AD8F89F
:101EC000A00B07F063FC6E620146304607F060FC31
:101ED0001A49C8F8A00B07F017FE3C4494F8D83B09
:101EE0000546D3B9484607F0ADF8064628460F46E2
:101EF00007F0A8F80EA3D3E9002307F0FBF8024689
:101F00000B463046394607F085FB20B1012384F8A3
:101F1000D83B84F8DF3BBDE8F0870146484607F030
:101F2000DDFE0028F7D0002384F8D83BF3E700BF9C
:101F30009A9999999999F93F0000A0400000C842E8
:101F40002DE9F041066A044600EB86060D46D0F8FE
:101F5000900DD6F8781D07F019FCC4F8900DEB69C8
:101F600007465B43286800FB0030801007F0C4FC84
:101F70008046C6F8780D2B6A68685B4300FB00302A
:101F8000801007F0B9FC414607F002FC0546014607
:101F9000C6F8780D384607F0FBFBE769C4F8900DEA
:101FA00004EB8707D7F8E81B0646D4F88C0D07F03A
:101FB000EDFBC7F8E85B0146284607F0E9FB2C4932
:101FC0000546C4F88C0D304607F09EFD07F03AF840
:101FD00006460F462846274907F096FD07F032F8D7
:101FE000237883BB20A3D3E9002307F083F832468C
:101FF0003B4607F0F1FA20B323696169013393FB93
:10200000F1F2236101FB12331BB9A37883F00103C2
:10201000A370FF26D4E901532B4493FBF6F2C2EBE5
:1020200002229B1AC4E90253304602F06DFB0544BC
:1020300095FBF6F640F20113C6EB0626AD1B656074
:102040002380BDE8F0814FF033320B4B07F052F89C
:1020500032463B4607F0DEFA0028F2D00023237018
:10206000EFE700BFAFF30080666666666666F63F20
:102070000000A0400000C8423333F33F70B504466F
:102080000E460025FFF75CFF2A4631462046013503
:10209000FFF7D6FE072DF7D16421E369013393FBE7
:1020A000F1F201FB12330522E361236A013393FB52
:1020B000F2F202EB82029B1A236270BD002343708E
:1020C00080F8DF3BC0F8E03BA0F8E43B70470844F1
:1020D00090F8DF0B70470069704740687047806870
:1020E0007047C068704710B50446006808B101F039
:1020F00085FE204610BD08B501210D2003F0F3F93F
:1021000001210E2003F0EFF9012001F0AFFE0021C4
:102110000E2003F0E8F9012001F0A8FE00210D20B7
:1021200003F0E1F90E20012103F0DDF9BDE80840DC
:10213000012001F09BBE00002DE9F74F0FF2B80916
:10214000D9E900892EA7D7E9006700F11803A0F1AB
:10215000040A019300210E2003F0C5F9282001F0A4
:102160002FFC0B2003F0D8F983465AF8040F06F031
:1021700057FF42464B4606F0BDFF044658460D4603
:1021800006F04EFF32463B4606F0B4FF02460B46D1
:102190002046294606F0F8FD07F05CFACAF8000070
:1021A0000A2003F0B9F98346DAF81C0006F038FF7C
:1021B00042464B4606F09EFF044658460D4606F042
:1021C0002FFF32463B4606F095FF0B460246294656
:1021D000204606F0D9FD07F03DFA0121CAF81C009F
:1021E0000E2003F080F9282001F0EAFB019B9A45BC
:1021F000B0D103B0BDE8F08F9A9999999999C93FE8
:102200009A9999999999E93F70B5084C257855B9EB
:10221000074E3068FEF7E8F83068FEF767FA29469F
:10222000132003F060F90123237070BDD10000205A
:10223000CC00002010B5154B1B780BB9FFF7E4FF5D
:1022400001F0CEFB124C2368C01A092809D901F00D
:10225000C7FB20600F48FFF76FFF0E490E48FFF7DE
:102260000DFF01F0BDFB0D4C2368C01A13280CD9DB
:1022700001F0B6FB0A4B0022206006491868FFF700
:102280002FFD084A13680133136010BDD1000020F0
:10229000740E002094000020D4000020700E002056
:1022A000CC000020680E002030B50024A1B0012130
:1022B0000D2003F007F901210E2003F003F900219E
:1022C0000B2003F0FFF800210A2003F0FBF8FFF7D2
:1022D00012FF544B012113201C6003F0F3F8524B02
:1022E0001C70FFF791FF4FF42770FDF7D6FE0446F0
:1022F00040B14E4B462201934D4B082100930223DF
:10230000FEF798F84B4B4C4D1C6000244B4B1C6067
:1023100002F0B2FB4A4B022218604A4B4A491C6049
:102320004A4B4B481C604B4B2C601C60234601F011
:10233000D5FC234602222946474801F0CFFC474BF3
:1023400022465868214601F0F9FC811C1AA802F0C7
:10235000DDF80A229DF86F1006A802F0BBFA06A964
:102360000AA802F093FA3E490AA802F0E8FA0446E5
:102370000A229DF86E100EA802F0ACFA20460EA9B3
:1023800002F0D1FA364902F0DAFA04460A229DF840
:102390006D1012A802F09EFA204612A902F0C3FAAC
:1023A0002F4902F0CCFA04460A229DF86C1016A8B8
:1023B00002F090FA204616A902F0B5FA014602A8EA
:1023C00002F064FA16A802F0D8F912A802F0D5F9C2
:1023D0000EA802F0D2F90AA802F0CFF906A802F07E
:1023E000CCF9204B029A1B781F498DF8003016A8B3
:1023F0003C2301F0AFFE179C7CB16368013B636036
:102400005BB9236820469B689847A368013BA3609B
:102410001BB923682046DB68984702A802F0ADF993
:1024200021B030BD740E0020D1000020D400002067
:10243000E1A10A08CC0000206C0E0020700E0020E4
:10244000900000207C0E0020800E0020780E0020DE
:10245000C4A10A08680E0020CDA10A08200F0020A0
:10246000D7A10A08D0000020D9A10A0838B5084C25
:10247000227852B1074D0121132003F034F8286867
:10248000FDF7B2FF2868FEF731F90023237038BD4D
:10249000D1000020CC000020002240F2145138B5B9
:1024A000224BDC6918468C4203DC00680433884206
:1024B00037DD1F4B1B780BB9FFF7A6FE02F0DCFAE5
:1024C0001C4B18601A4C22780AB1FFF7B3FE02F0D9
:1024D000D3FA184B1B68C01A1E2803D923780BB1F6
:1024E000FFF7C4FF144C154D23680133236001F03E
:1024F00077FA2B68C01A42F20F7398420CD901F098
:102500006FFA22680E4B28601A600E4B0E4A19684B
:102510001160002222601A600120BDE8384001F0FD
:10252000A5BC0132072ABCD1CCE700BF9400002033
:10253000D1000020900000207C0E0020780E0020AA
:10254000800E0020680E00206C0E002001200B4B36
:1025500010B5187000230A4C2360A380A371A3F563
:102560008033A36001F07EFB2046064A064903F053
:1025700043F8BDE810400548FFF740BCD0000020FC
:10258000840000206C000020E7200A08D40000200E
:1025900038B504460025018001EB410188B2C4E949
:1025A0000255608023716271A57101F01FFCA0606B
:1025B00018B12946628807F031FC204638BD10B5B5
:1025C00004460121407902F07DFF60790021BDE8D9
:1025D000104002F088BF00008368002B00F06F8578
:1025E000F0B503790446032B87B000F08782042BF3
:1025F00014BF32254FF4FA7501F0EAF9E368C01A06
:10260000A842F9D372B663882179ADF80A30BDF8D3
:102610000A300229A5689BB200F03A81052900F032
:102620006F82002900F0E582032900F04985002B24
:1026300000F028814FF400010026184A0491BDF8EB
:102640000A306079033B9BB2ADF80A302B781768EB
:10265000DBB28DF808306B78C0EBC000DBB28DF8D0
:102660000930AB7807EB800CDBB28DF807309DF8B2
:1026700008E09DF80930BCF804C01B0243EA0E4391
:102680009DF807E057F8200043EA0E030393033553
:102690008DF80660A0F81AC07DE000BF840E00200F
:1026A000049B5B080493004600BF00BF00BF00BF4F
:1026B00000BF00BF00BF00BF00BF00BF00BF00BF22
:1026C00000BF00BF00BF00BF00BF00BF00BF00BF12
:1026D00000BF00BF00BF00BF00BF00BF00BF00BF02
:1026E00000BF00BF00BF00BF00BF00BF00BF00BFF2
:1026F00000BF00BF00BF00BF00BF00BF00BF00BFE2
:1027000000BF00BF00BF00BF00BF00BF00BF00BFD1
:1027100000BF00BF00BF00BF00BF00BF00BF00BFC1
:1027200000BF00BF00BF00BF00BF00BF60791768D7
:102730009DF80630C0EBC00007EB800CBCF804C06D
:1027400057F820000133DBB28DF80630A0F818C02E
:10275000004600BF00BF00BF00BF00BF00BF00BFFA
:1027600000BF00BF00BF00BF00BF00BF00BF00BF71
:1027700000BF00BF00BF00BF00BF9DF80630182B90
:102780007AD063791068C3EBC30300EB8307BF887B
:1027900050F823305F830398049B184280D1004691
:1027A00000BF00BF00BF00BF00BF00BF00BF00BF31
:1027B00000BF00BF00BF00BF00BF00BF00BF00BF21
:1027C00063791068C3EBC30300EB8307BF8850F83D
:1027D00023301F839DF806300133DBB28DF80630BD
:1027E000049B5B080493004600BF00BF00BF00BF0E
:1027F00000BF00BF00BF00BF00BF00BF00BF00BFE1
:1028000000BF00BF00BF00BF00BF00BF00BF00BFD0
:1028100000BF00BF00BF00BF00BF00BF00BF00BFC0
:1028200000BF00BF00BF00BF00BF00BF00BF00BFB0
:1028300000BF00BF00BF00BF00BF00BF00BF00BFA0
:1028400000BF00BF00BF00BF00BF00BF00BF00BF90
:1028500000BF00BF00BF00BF00BF00BF00BF00BF80
:1028600000BF00BF00BF00BF00BF00BF00BF00BF70
:102870009DF80630182B84D1BDF80A309BB2002B8E
:102880007FF4DCAE62B601F0A3F8E06007B0F0BD03
:10289000002BF7D04FF400010026134A0491BDF835
:1028A0000A300335033B9BB2ADF80A3015F8033C00
:1028B000DBB28DF8073015F8023CDBB28DF808303A
:1028C00015F8013CDBB28DF809309DF807709DF8D2
:1028D00008309DF809001B0243EA074303430393B2
:1028E0008DF8066080E000BF840E0020004600BF27
:1028F00000BF00BF00BF00BF00BF00BF00BF00BFE0
:1029000000BF00BF00BF00BF00BF00BF00BF00BFCF
:1029100000BF00BF00BF00BF00BF00BF00BF00BFBF
:1029200000BF00BF00BF00BF00BF00BF00BF00BFAF
:1029300000BF00BF00BF00BF00BF00BF00BF00BF9F
:1029400000BF00BF00BF00BF00BF00BF00BF00BF8F
:1029500000BF00BF00BF00BF00BF00BF00BF00BF7F
:1029600000BF00BF00BF00BF00BF00BF00BF00BF6F
:1029700000BF00BF00BF00BF00BF00BF00BF00BF5F
:1029800000BF00BF00BF63791068C3EBC30300EB57
:102990008307BF8850F823305F83004600BF00BF25
:1029A00000BF00BF00BF00BF00BF00BF00BF00BF2F
:1029B00000BF00BF00BF00BF00BF00BF00BF00BF1F
:1029C00000BF00BF00BF00BF00BF00BF00BF00BF0F
:1029D000049B5B0804939DF806300133DBB2172B90
:1029E0008DF8063000F2838063791068C3EBC3036F
:1029F00000EB8307BF8850F823301F830398049BA4
:102A000018427FF473AF004600BF00BF00BF00BF95
:102A100000BF00BF00BF00BF00BF00BF00BF00BFBE
:102A200000BF00BF00BF00BF00BF00BF00BF637991
:102A30001068C3EBC30300EB8307BF8850F8233053
:102A40005F83004600BF00BF00BF00BF00BF00BFE4
:102A500000BF00BF00BF00BF00BF00BF00BF00BF7E
:102A600000BF00BF00BF00BF00BF00BF00BF00BF6E
:102A700000BF00BF00BF00BF00BF00BF00BF00BF5E
:102A800000BF00BF00BF00BF00BF00BF00BF00BF4E
:102A900000BF00BF00BF00BF00BF00BF00BF00BF3E
:102AA00000BF00BF00BF00BF00BF00BF00BF00BF2E
:102AB00000BF00BF00BF00BF00BF00BF00BF00BF1E
:102AC00000BF00BF00BF00BF00BF00BF00BF00BF0E
:102AD00000BF00BF00BF00BF00BF00BF00BF00BFFE
:102AE00000BF00BF00BF00BF00BF00BF70E7BDF860
:102AF0000A309BB2002B7FF4D1AEC3E618257BE5EC
:102B0000002B3FF4BFAE4FF4000E00264E4B196869
:102B10004E4BCDF810E0BDF80A200335033A92B2CF
:102B2000ADF80A2015F8032CD2B28DF8072015F85D
:102B3000022CD2B28DF8082015F8012CD2B28DF8F3
:102B400009209DF807C09DF808209DF80970120221
:102B500042EA0C423A4303928DF806606279586863
:102B6000C2EBC20201EB8207BF8851F82220059018
:102B70001783039F049A174225D05A68059FD21BDA
:102B80004F2AFAD96279C2EBC20201EB8207BF88F1
:102B900051F8222057835A6805925A68059FD21B24
:102BA000072AFAD9049A520804929DF806200132A5
:102BB000D2B2172A8DF80620D0D9BDF80A2092B2D9
:102BC000002AA6D15EE65A68059FD21B182AFAD9B8
:102BD0006279C2EBC20201EB8207BF8851F8222062
:102BE00057835A6805925A68059FD21B452AFAD91D
:102BF000D8E7002B3FF446AE4FF40006124A049685
:102C0000BDF80A300335033B9BB2ADF80A3015F826
:102C1000033CDBB28DF8083015F8023CDBB28DF8CE
:102C2000073015F8013CDBB28DF809309DF80870CB
:102C30009DF807309DF809001B0243EA0743034350
:102C400003938DF806101AE1840E0020001000E0B6
:102C5000004600BF00BF00BF00BF00BF00BF00BFF5
:102C600000BF00BF00BF00BF00BF00BF00BF00BF6C
:102C700000BF00BF00BF00BF00BF00BF00BF00BF5C
:102C800000BF00BF00BF00BF00BF00BF00BF00BF4C
:102C900000BF00BF00BF00BF00BF00BF00BF00BF3C
:102CA00000BF00BF00BF00BF00BF00BF00BF00BF2C
:102CB00000BF00BF00BF00BF00BF00BF00BF00BF1C
:102CC00000BF00BF00BF00BF00BF00BF00BF00BF0C
:102CD00000BF00BF00BF00BF00BF00BF00BF00BFFC
:102CE00000BF00BF00BF00BF00BF00BF00BF00BFEC
:102CF00000BF00BF00BF00BF00BF00BF00BF00BFDC
:102D000000BF00BF00BF00BF00BF00BF00BF00BFCB
:102D100000BF00BF00BF00BF00BF00BF00BF00BFBB
:102D200000BF00BF00BF00BF00BF00BF00BF00BFAB
:102D300000BF00BF00BF00BF00BF00BF00BF00BF9B
:102D400000BF00BF00BF00BF00BF00BF00BF00BF8B
:102D500000BF00BF00BF00BF63791068C3EBC303AF
:102D600000EB8307BF8850F823305F83004600BF25
:102D700000BF00BF00BF00BF00BF00BF00BF00BF5B
:102D800000BF00BF00BF00BF00BF00BF00BF00BF4B
:102D900000BF00BF00BF00BF00BF00BF00BF00BF3B
:102DA00000BF00BF00BF00BF00BF00BF00BF00BF2B
:102DB00000BF00BF00BF00BF00BF00BF00BF00BF1B
:102DC00000BF00BF00BF00BF00BF00BF00BF00BF0B
:102DD00000BF00BF00BF00BF00BF00BF00BF00BFFB
:102DE00000BF00BF00BF00BF00BF00BF00BF00BFEB
:102DF00000BF00BF00BF00BF00BF00BF00BF00BFDB
:102E000000BF00BF00BF00BF00BF00BF00BF00BFCA
:102E100000BF00BF00BF00BF00BF00BF00BF00BFBA
:102E200000BF00BF00BF00BF00BF00BF00BF00BFAA
:102E300000BF00BF00BF00BF00BF00BF00BF00BF9A
:102E400000BF00BF00BF00BF00BF00BF00BF00BF8A
:102E500000BF00BF00BF00BF00BF00BF00BF00BF7A
:102E600000BF00BF00BF049B5B0804939DF80630C1
:102E70000133DBB2172B8DF8063000F2188163792D
:102E80001068C3EBC30300EB8307BF8850F82330FF
:102E90001F830398049B18427FF4DAAE004600BFFC
:102EA00000BF00BF00BF00BF00BF00BF00BF00BF2A
:102EB00000BF00BF00BF00BF00BF00BF00BF00BF1A
:102EC00000BF00BF00BF00BF00BF00BF00BF00BF0A
:102ED00000BF00BF00BF00BF00BF00BF00BF00BFFA
:102EE00000BF00BF00BF00BF00BF00BF00BF6379CD
:102EF0001068C3EBC30300EB8307BF8850F823308F
:102F00005F83004600BF00BF00BF00BF00BF00BF1F
:102F100000BF00BF00BF00BF00BF00BF00BF00BFB9
:102F200000BF00BF00BF00BF00BF00BF00BF00BFA9
:102F300000BF00BF00BF00BF00BF00BF00BF00BF99
:102F400000BF00BF00BF00BF00BF00BF00BF00BF89
:102F500000BF00BF00BF00BF00BF00BF00BF00BF79
:102F600000BF00BF00BF00BF00BF00BF00BF00BF69
:102F700000BF00BF00BF00BF00BF00BF00BF00BF59
:102F800000BF00BF00BF00BF00BF00BF00BF00BF49
:102F900000BF00BF00BF00BF00BF00BF00BF00BF39
:102FA00000BF00BF00BF00BF00BF00BF00BF00BF29
:102FB00000BF00BF00BF00BF00BF00BF00BF00BF19
:102FC00000BF00BF00BF00BF00BF00BF00BF00BF09
:102FD00000BF00BF00BF00BF00BF00BF00BF00BFF9
:102FE00000BF00BF00BF00BF00BF00BF00BF00BFE9
:102FF00000BF00BF00BF00BF00BF00BF00BF00BFD9
:1030000000BF00BF00BF00BF00BF00BF00BF00BFC8
:1030100000BF00BF00BF00BF00BF00BF00BF00BFB8
:1030200000BF00BF00BF00BF00BF00BF00BF00BFA8
:1030300000BF00BF00BF00BF00BF00BF00BF00BF98
:1030400000BF00BF00BF00BF00BF00BF00BF00BF88
:1030500000BF00BF00BF00BF00BF00BF00BF00BF78
:1030600000BF00BF00BF00BF00BF00BF00BF00BF68
:1030700000BF00BF00BF00BF00BF00BF00BF00BF58
:1030800000BF00BF00BF00BF00BF00BF00BF00BF48
:1030900000BF00BF00BF00BF00BF00BF00BF00BF38
:1030A00000BF00BF00BF00BF00BF00BFDBE6BDF830
:1030B0000A309BB2002B7FF4A2ADFFF7E3BB704751
:1030C000002B3FF4DFAB4FF400010026124A0491BD
:1030D000BDF80A300335033B9BB2ADF80A3015F852
:1030E000033CDBB28DF8083015F8023CDBB28DF8FA
:1030F000073015F8013CDBB28DF809309DF80870F7
:103100009DF807309DF809001B0243EA074303437B
:1031100003938DF80660E0E0840E0020004600BFB7
:1031200000BF00BF00BF00BF00BF00BF00BF00BFA7
:1031300000BF00BF00BF00BF00BF00BF00BF00BF97
:1031400000BF00BF00BF00BF00BF00BF00BF00BF87
:1031500000BF00BF00BF00BF00BF00BF00BF00BF77
:1031600000BF00BF00BF00BF00BF00BF00BF00BF67
:1031700000BF00BF00BF00BF00BF00BF00BF00BF57
:1031800000BF00BF00BF00BF00BF00BF00BF00BF47
:1031900000BF00BF00BF00BF00BF00BF00BF00BF37
:1031A00000BF00BF00BF00BF00BF00BF00BF00BF27
:1031B00000BF00BF00BF00BF00BF00BF00BF00BF17
:1031C00000BF00BF00BF00BF00BF00BF00BF00BF07
:1031D00000BF00BF00BF00BF00BF00BF00BF00BFF7
:1031E00000BF00BF00BF00BF00BF00BF00BF00BFE7
:1031F00000BF00BF00BF00BF00BF00BF00BF00BFD7
:1032000000BF00BF00BF00BF00BF00BF00BF00BFC6
:1032100000BF00BF00BF00BF00BF00BF00BF00BFB6
:1032200000BF00BF00BF00BF00BF00BF00BF00BFA6
:1032300000BF00BF00BF00BF00BF00BF00BF637979
:103240001068C3EBC30300EB8307BF8850F823303B
:103250005F83004600BF00BF00BF00BF00BF00BFCC
:1032600000BF00BF00BF00BF00BF00BF00BF00BF66
:1032700000BF00BF00BF00BF00BF00BF00BF00BF56
:1032800000BF00BF00BF00BF00BF00BF00BF00BF46
:1032900000BF00BF00BF00BF00BF00BF00BF00BF36
:1032A00000BF00BF00BF00BF00BF00BF00BF00BF26
:1032B00000BF00BF00BF00BF00BF00BF00BF00BF16
:1032C00000BF049B5B0804939DF806300133DBB21A
:1032D000172B8DF8063000F2E38063791068C3EB9A
:1032E000C30300EB8307BF8850F823301F83039884
:1032F000049B18427FF412AF004600BF00BF00BF1E
:1033000000BF00BF00BF00BF00BF00BF00BF00BFC5
:1033100000BF00BF00BF00BF00BF00BF00BF00BFB5
:1033200000BF00BF00BF00BF00BF00BF00BF00BFA5
:1033300000BF00BF00BF00BF00BF00BF00BF00BF95
:1033400000BF00BF00BF00BF00BF00BF00BF00BF85
:1033500000BF00BF00BF00BF00BF00BF00BF00BF75
:1033600000BF00BF00BF00BF00BF00BF00BF00BF65
:1033700000BF00BF00BF00BF00BF63791068C3EB90
:10338000C30300EB8307BF8850F823305F830046F8
:1033900000BF00BF00BF00BF00BF00BF00BF00BF35
:1033A00000BF00BF00BF00BF00BF00BF00BF00BF25
:1033B00000BF00BF00BF00BF00BF00BF00BF00BF15
:1033C00000BF00BF00BF00BF00BF00BF00BF00BF05
:1033D00000BF00BF00BF00BF00BF00BF00BF00BFF5
:1033E00000BF00BF00BF00BF00BF00BF00BF00BFE5
:1033F00000BF00BF00BF00BF00BF00BF00BF00BFD5
:1034000000BF00BF00BF00BF00BF00BF00BF00BFC4
:1034100000BF00BF00BF00BF00BF00BF00BF00BFB4
:1034200000BF00BF00BF00BF00BF00BF00BF00BFA4
:1034300000BF00BF00BF00BF00BF00BF00BF00BF94
:1034400000BF00BF00BF00BF00BF00BF00BF00BF84
:1034500000BF00BF00BF00BF00BF00BF00BF00BF74
:1034600000BF00BF00BF00BF00BF00BF00BF00BF64
:1034700000BF00BF00BF00BF00BF00BF00BF00BF54
:1034800000BF00BF00BF00BF00BF00BF00BF00BF44
:1034900000BF00BF00BF00BF00BF00BF00BF10E7FC
:1034A000BDF80A309BB2002B7FF411AEFFF7EAB9EA
:1034B00070B505889DF810408D4216D985792DB1DB
:1034C0006A436B436C43120A1B0A240A866800791C
:1034D00001EB4101042806EB010507D0052801D0C6
:1034E00002280AD173546A70AC7070BDFE2A28BFDE
:1034F000FE2272546C70AB70F7E772546B70AC7054
:10350000F3E770B503888B421DD98579C2F3074371
:10351000C2F30724D2B23DB16B436C436A43C3F399
:103520000723C4F30724120A8668007901EB4101DE
:10353000042806EB010507D0052801D002280AD18E
:1035400074546B70AA7070BDFE2B28BFFE23735499
:103550006A70AC70F7E773546C70AA70F3E713B538
:1035600003888B4238D98268047901EB41015318F2
:10357000042C515C9A785B7822D0052C01D0022C67
:1035800024D1090241EA0343134301938179A1B194
:103590009DF804209DF806301202B2FBF1F28DF87E
:1035A00004209DF805201B021202B2FBF1F2B3FBCE
:1035B000F1F38DF805208DF80630019802B010BDAA
:1035C000120242EA014213430193DFE71B0243EA7E
:1035D000014313430193D9E70020EFE708B500F05A
:1035E00017FA014B186008BD840E002070470000D8
:1035F00010B5C3604FF081430361094B044643613A
:10360000029B81618260036200F0EAF9039BE06142
:103610006362049B2046A362059BE36210BD00BF6A
:1036200000000C422DE9F843044600F0D9F9E369A3
:10363000C01A236A984226D900F0D2F9A6682169F7
:10364000E061304606F0A4F8E568616981462061D2
:10365000284606F09DF84FF0000807466061414695
:10366000484606F045FB80B106F10046C4F81080DC
:10367000A6600021384606F03BFB98B105F10045F5
:10368000C4F81480E560BDE8F8834FF082414846F5
:1036900006F038FB0028ECD00D4B06F10046236104
:1036A000A660E6E7A669304606F026F9394606F038
:1036B0006FF8084906F026FB0028E4D0C6F1460062
:1036C00006F01AF905F100456061E560DBE700BF2F
:1036D0000000E04000008C4208B5006906F03CFBA9
:1036E00008BD08B5406906F037FB08BDC0E90912FE
:1036F000C3627047704738B50446A360079B049DBA
:103700006362089B0598A362099B2160E362626083
:103710006561A061E560206100F062F9069BE061EF
:103720002362204638BD00002DE9F84304460D46CB
:1037300000F056F9E369C01A236A984244D900F0B0
:103740004FF9E061D4F80480D5F81090404649461E
:1037500006F0C4FA0027266820B13946A86806F0AA
:10376000BDFA58B94946404606F0D6FA002838D086
:103770000021A86806F0D0FA002832D0D4F80880DA
:103780006D69206806F0B8F8414606F001F8294650
:1037900006F0A4FAD0B1A36923612169A06805F0FD
:1037A000F7FF0546A060304606F0A6F8294605F06A
:1037B000EFFF2C4906F0A6FA002849D0C6F14600D2
:1037C00006F09AF82761A060BDE8F88329464046D4
:1037D00006F0A2FA0028E0D0A36903F100432361B8
:1037E000DBE706EBD670401006F086F8A16805F01E
:1037F000CFFF80463046002EB8BFF01C801006F088
:103800007BF819490546404605F0C0FF20F000410D
:10381000284606F063FAC8B11349404606F07CFA20
:10382000A5694FF07E5148B1284606F075FA18B9DF
:1038300005F100452561B0E70C4DFBE7284606F091
:103840006BFA0028F6D04FF07E55F3E72761A4E726
:103850000021284606F04CFA0028B5D0A760276161
:10386000B2E700BF00008C4200000C42000080BFA5
:1038700008B5406806F070FA08BD08B5806806F023
:103880006BFA08BDC0E90912C3627047704710B5F2
:103890000446182101F0B5FE204610BD10B50446BF
:1038A00001F096FA034904F14C0000F0B0FF204605
:1038B00010BD00BFD8A10A08452313B5074C0093DB
:1038C000A8220123C021204600F048FE2046044AD9
:1038D000044902B0BDE8104001F08EBE880E002001
:1038E0006C0000208D380A08002210B504461146ED
:1038F00001F024F90023022204F17801064800F0C7
:10390000EDF900230222054804F17C0100F0E6F9FC
:103910000023C4E91E3310BDE9A10A08F2A10A0878
:10392000F0B5044689B000F14C05009302A8134697
:103930000A46144901F030F802A9284600F0B1FF08
:1039400004F15C0702A800F018FF3946284600235E
:10395000122201F008F80C4E0C4B03AD02930FCE6F
:103960000FC5336839462B7040F2CA632046009376
:10397000626D02AB01F01FF9A36FE0670133A3672B
:1039800009B0F0BDFAA10A088C0E00205CA20A085A
:1039900008B5024B1B685B6C019308BDD00106089B
:1039A00008B5024B1B689B6C019308BDD00106084B
:1039B00008B5024B1B685B68019308BD9C010608B3
:1039C00008B5024B1B68DB68019308BD9C01060823
:1039D00008B5024B1B681B69019308BD9C010608D2
:1039E00008B5024B1B685B69019308BD9C01060882
:1039F00008B5024B1B689B6D019308BD9C0106082E
:103A000008B5024B1B685B6E019308BD9C0106085C
:103A100008B5024B1B681B68019308BDB00106087E
:103A200008B5024B1B685B68019308BDB00106082E
:103A300008B5024B1B689B68019308BDB0010608DE
:103A400008B5024B1B68DB68019308BDB00106088E
:103A500008B5024B1B681B69019308BDB00106083D
:103A600008B5024B1B681B6B019308BDB00106082B
:103A700008B5024B1B681B6E019308BDAC0106081C
:103A800008B5024B1B685B6E019308BDAC010608CC
:103A900008B5024B1B689B6E019308BDAC0106087C
:103AA00008B5024B1B68DB6E019308BDAC0106082C
:103AB00008B5024B1B681B6F019308BDAC010608DB
:103AC00008B5024B1B685B6F019308BDAC0106088B
:103AD00008B5034B1B68D3F88030019308BD000084
:103AE000AC01060808B5024B1B685B68019308BD72
:103AF000BC01060808B5024B1B689B68019308BD12
:103B0000BC01060808B5024B1B68DB69019308BDC0
:103B1000BC01060808B5024B1B681B6A019308BD6F
:103B2000BC01060808B5024B1B681B6B019308BD5E
:103B3000BC01060808B5024B1B689B6C019308BDCD
:103B4000BC01060808B5024B1B68DB69019308BD80
:103B5000B401060808B5024B1B681B6A019308BD37
:103B6000B401060808B5024B1B689B69019308BDA8
:103B7000C401060808B5024B1B685B6A019308BDC7
:103B8000C401060808B5024B1B689B6A019308BD77
:103B9000C401060808B5024B1B68DB6A019308BD27
:103BA000C401060808B5024B1B681B6B019308BDD6
:103BB000C401060808B5024B1B685B6B019308BD86
:103BC000C401060808B5024B1B689B6B019308BD36
:103BD000C401060808B5024B1B681B6C019308BDA5
:103BE000C401060808B5024B1B681B68019308BD99
:103BF000D801060808B5024B1B681B69019308BD74
:103C0000D801060808B5024B1B685B69019308BD23
:103C1000D801060808B5024B1B689B69019308BDD3
:103C2000D801060808B5024B1B68DB69019308BD83
:103C3000D801060808B5024B1B681B6A019308BD32
:103C4000D801060808B5024B1B689B6C019308BDA0
:103C5000C001060808B5024B1B681B68019308BD2C
:103C6000A401060808B5024B1B685B68019308BDF8
:103C7000A401060808B5024B1B685B69019308BDE7
:103C8000A401060808B5024B1B68DB6C019308BD54
:103C9000A401060808B5024B1B685B6D019308BDC3
:103CA000A401060808B5024B1B689B6D019308BD73
:103CB000A401060808B5034B1B68D3F890300193A4
:103CC00008BD0000A401060808B5034B1B68D3F823
:103CD0009C30019308BD0000A401060808B5024B02
:103CE0001B681B68019308BDCC01060808B5024B90
:103CF0001B689B68019308BDCC01060808B5024B00
:103D00001B685B69019308BDCC01060808B5024B2E
:103D10001B681B6A019308BDCC01060808B5024B5D
:103D20001B681B6B019308BDCC01060808B5024B4C
:103D30001B68DB6B019308BDCC01060808B5024B7C
:103D40001B681B68019308BDC801060808B5024B33
:103D50001B685B68019308BDC801060808B5024BE3
:103D60001B689B68019308BDC801060808B5024B93
:103D70001B68DB68019308BDC801060808B5024B43
:103D80001B681B69019308BDC801060808B5024BF2
:103D90001B685B69019308BDC801060808B5024BA2
:103DA0001B689B69019308BDC801060808B5024B52
:103DB0001B68DB69019308BDC801060808B5024B02
:103DC0001B681B6A019308BDC801060808B5024BB1
:103DD0001B681B6B019308BDC801060808B5024BA0
:103DE0001B685B6B019308BDC801060808B5024B50
:103DF0001B681B68019308BDA001060808B5024BAB
:103E00001B685B68019308BDA001060808B5024B5A
:103E10001B689B68019308BDA001060808B5024B0A
:103E20001B685B6A019308BDA001060808B5024B38
:103E30001B68DB6A019308BDA001060808B5024BA8
:103E40001B681B6B019308BDA001060808B5024B57
:103E50001B68DB6B019308BDA001060808B5024B87
:103E60001B685B6C019308BDA00106080021FFF7E9
:103E700001BF10B5836804460BB901F0C6FBC368E7
:103E80009847A3681BB10322214620469847204645
:103E9000BDE81040102101F0B4BB7047002070470E
:103EA00010B50446102101F0ACFB204610BD08B54A
:103EB000FFF7F6FF08BD10B58368044613B103226F
:103EC00001469847204610BD002230B54FF69C743D
:103ED000026084808D888C800C68858004600A6014
:103EE00030BD10B504460068FFF788FF204610BDBE
:103EF00038B5C468F4B12378022B03D104F10C0067
:103F0000FFF7EFFF656835B12846FFF7D4FF1021B2
:103F1000284601F076FBA56835B12846FFF7CBFFB0
:103F20001021284601F06DFB2046BDE838401421E1
:103F300001F067BB38BD38B5046805467CB16368DD
:103F4000013B63605BB9236820469B689847A36880
:103F5000013BA3601BB923682046DB6898472846CD
:103F600038BD0B68036013B15A6801325A6070475C
:103F700073B50E46044656F8043B0D4601A831467B
:103F80000093FFF7EEFF009B019A2360002362601D
:103F900001A801930093FFF7CEFF3046FFF7CBFF58
:103FA0002846082101F02DFB204602B070BD13B554
:103FB0006C460B46024603C884E8030093E80300FE
:103FC00082E8030094E8030083E8030002B010BD18
:103FD000826810B50AB901F018FBC368BDE810404B
:103FE000184708B5006800F11001FFF7F1FF08BDA0
:103FF000826810B50AB901F008FBC368BDE810403B
:10400000184708B5006800F11001FFF7F1FF08BD7F
:1040100038B500230446036010200D46FCF73DF838
:1040200028B10123C0E90133024BC5600360206061
:10403000204638BD18A20A0838B5002383608B6873
:1040400004460D462BB102229847EB68E360AB684B
:10405000A360204638BD0000F0B589B0046868460A
:10406000FFF732FF4FF00203D4E84F2F002A03D1AD
:10407000C4E8413F0029F7D125D104F10C05694678
:104080002846FFF721FF0123BFF35B8F63700020F9
:10409000BFF35B8F04F1080353E8006F43E80002AD
:1040A000002AF9D1BFF35B8F6EB1FFF7EBFD78B15A
:1040B00029463046FFF78CFF3046FFF7FCFE102103
:1040C000304601F09EFA6846FFF70BFF09B0F0BDDD
:1040D000314602A8FFF7B0FFE068B4F9105008B10C
:1040E00005F004FF06901020ADF81C50FBF7D5FF3B
:1040F0000546E8B1002787601820FBF7CEFF04468D
:1041000088B10146876002A8FFF751FF049BA268AF
:10411000A360059B0492E26806A9E36004F1100025
:104120000592FFF7D1FE084B2C60EB60074BAB60AC
:1041300006A8FFF7D6FE02A8FFF7BDFE002229461B
:104140000348FFF7A7FDB7E7E33F0A0879420A08EB
:10415000733E0A082DE9F0478AB005460C4617461B
:1041600098469DF84890FFF7C9FD07AE824638BBD8
:104170004FF62E73059005A93046ADF81830FFF7BD
:10418000A3FE1420FBF789FF044648B10223037005
:104190000123C0E901AA437031460C30FFF794FEB9
:1041A0002846214640F8044BFFF732FF3046FFF720
:1041B00098FE05A8FFF795FE28460AB0BDE8F087EF
:1041C0000C234FF0000A1420CDE908AA0793FBF74F
:1041D00064FF014628B1C0E901AA80F800A080F878
:1041E00001A004A80391FFF713FF224B08200893B6
:1041F000FBF753FF824628B1039B04A940F8043B18
:10420000FFF7AFFE42463946204600965FFA89F333
:10421000CDF824A0FFF77AFDB8B9039B5B7803F0D3
:10422000FF0293B94FF69C7305A903A80592ADF858
:104230001830FFF711FF05A8FFF753FE05A80999ED
:10424000FFF796FE06A8FFF776FE039B04A906A8D3
:104250000593FFF786FE059B069A2B6000236A6094
:1042600006A806930593FFF766FE04A8FFF763FE12
:10427000A2E700BF3D430A08022AF8B5054607D069
:10428000032A18D0012A01D10B6803600020F8BD71
:1042900018200E68FBF701FF044650B13146FFF7C6
:1042A000CBFE3069B6F9147008B105F01FFE20612D
:1042B000A7822C60EAE70468002CE7D004F1100024
:1042C000FFF70FFE2046FFF7F6FD1821204601F00C
:1042D00098F9DBE738B5002383608B6804460D4608
:1042E0002BB102229847EB68E360AB68A3602046DD
:1042F00038BD022A70B5044607D0032A12D0012A1D
:1043000001D10B680360002070BD14200E68FBF71C
:10431000C4FE054620B13146FFF7DCFF337C2B7429
:104320002560F0E70468002CEDD02046FFF7C3FDC0
:104330001421204601F065F9E5E70000F0B50446D8
:1043400089B00D4601A81146FFF712FEA4B124B2B0
:104350001DB1284605F0CAFD054601A803A903952D
:10436000ADF81040FFF778FE03A8FFF7BAFD02A8EA
:10437000FFF7E1FD09B0F0BD0123019DD5E84F2F06
:10438000002A03D1C5E8413F0029F7D1EFD12B73B3
:10439000BFF35B8F6B70BFF35B8F2B1D53E8006F18
:1043A00043E80042002AF9D1BFF35B8F002EDED034
:1043B0002046FFF767FC074660B1304605F10C0167
:1043C000FFF716FE3046FFF776FD1021304601F06C
:1043D00018F9CCE7314603A8FFF77CFF2B7B1020B0
:1043E0008DF81C30FBF759FE0546D0B187601420CC
:1043F000FBF753FE044678B10146876003A8FFF738
:10440000D6FD059BA268A360069B0592E268E36067
:104410009DF81C3006922374064B2C60EB60064B13
:10442000AB6003A8FFF747FD002229460348FFF7CA
:1044300031FCC7E703400A08F3420A08733E0A0842
:104440007047F8B5064615460C468F18BC4206D094
:10445000336830469B6814F8011B9847F6E72846F6
:10446000F8BD0022007CFFF703BB0021007CFFF7B2
:1044700007BB0021007CFFF70BBB0021007CFFF78E
:104480000FBB0021007CFFF713BB10B504461421BD
:1044900001F0B7F8204610BD10B54FF47A7304460A
:1044A00008460021C4E90113034B11462360207420
:1044B000FFF70EFB204610BD34A20A08F8B50E46E1
:1044C000002400F10807051D17F8011D0A223046D7
:1044D00000F0FDF8AF42044401D12046F8BD002CA5
:1044E000F2D02E21304600F0EFF80444ECE7000053
:1044F00010B50446044B1122002140F8043B05F09E
:104500008DFC204610BD00BF5CA20A080346074A86
:1045100010B543F8042B01F1100251F8044B9142FD
:1045200043F8044BF9D10A781A7010BD5CA20A084E
:10453000024AC0E900210422027570475CA20A0801
:1045400010B59DF8084044EA0324042344EA0244D9
:1045500044EA01644460037510BD000037B5044DA2
:1045600005609DF818500095FFF7EAFF03B030BDD5
:104570005CA20A0813B5CB7800938B784A78097847
:10458000FFF7DEFF02B010BD014B024A1A60704710
:10459000A00E002068A20A08002340681A46FFF710
:1045A000D5BB002202214068FFF7E0BB0022406833
:1045B0001146FFF7D3BB002240681146FFF7DEBB70
:1045C000002340681A461946FFF7E0BB0023406805
:1045D0001A461946FFF7E2BB0022406881F001014C
:1045E000FFF7E4BB00224068FFF7F0BB0022406801
:1045F0001146FFF7F3BB002240681146FFF7DEBB10
:1046000070B515468EB0044608A8FFF771FF112259
:10461000002103A805F002FC0026284605F081FCD5
:104620000A4B009681B25B68284603AAFFF70AFB93
:1046300030B131462046FFF77BFF20460EB070BDFB
:10464000204603A9FFF762FFF7E700BF200F002015
:10465000034A044B042814BF10461846704700BF95
:10466000A40E0020200F0020024B034A1A600022F3
:104670005A607047A40E002074A20A08F8B50646D6
:104680000D4600248F18BD420CD0336830469B681D
:1046900015F8011B9847031E01DB1C44F3E7002CAF
:1046A00008BF1C462046F8BD70B505460C460846B6
:1046B00049B105F036FC2B68024621462846BDE884
:1046C0007040DB68184770BD03689B68184700237B
:1046D000012A98BF0A2230B58BB00C468DF82430E1
:1046E00009A92546B4FBF2F404FB1253DBB2092BF3
:1046F00094BF30333733DBB2AA4201F8013DF0D921
:10470000FFF7D2FF0BB030BD10B5044628B105F05D
:10471000B1FB90FBF4F303FB1404204610BD884268
:1047200010B5044603DA081AFFF7EEFF04442046EA
:1047300010BD10B50446FFF7BEFB204610BD0000BB
:1047400000230348034A0449836000F055BF00BFBB
:10475000AC0E00206C00002033470A0870B500261C
:1047600004460D4640F8086FFFF712F928462570F9
:10477000FFF7E8F92046666070BD10B50446006892
:10478000FFF73CFB204610BD10B50446006808B199
:10479000FFF734FB0023C4E90133236010BD38B5B3
:1047A00004460D4600680131FFF730FB10B1C4E943
:1047B0000005012038BD10B50368044623B14368E5
:1047C0008B4201D3012010BD2046FFF7E8FF0028EF
:1047D000F9D0A368002BF5D122681370F2E770B509
:1047E0000E46114604461546FFF7E5FF20B9204660
:1047F000FFF7CAFF204670BD2A4631462068A560F3
:1048000005F0FEFA00212268A368D154F2E738B51A
:10481000002304460D46C0E900338360037339B1B9
:10482000084605F07EFB294602462046FFF7D7FFE3
:10483000204638BD38B5054600680C4668B16A6840
:104840008B689A4207D3096805F048FBA368AB6000
:104850000023A36038BDFFF7D1FA23682B6063689B
:104860006B60A368AB600023C4E90033F1E78842C2
:1048700010B50B46044604D0096821B19A68FFF7C9
:10488000AEFF204610BDFFF77FFFFAE7002310B50B
:104890000446C0E9003383600373FFF7E8FF204656
:1048A00010BD884210B5044601D0FFF7C3FF204673
:1048B00010BD38B505460C4649B1084605F031FB38
:1048C000214602462846FFF78AFF284638BDFFF7F3
:1048D0005BFFFAE71FB5044600230846C4E900332E
:1048E000A360237301A900F0F4FC204601A9FFF79F
:1048F000E0FF204604B010BD70B505460E4609B96C
:10490000002070BD6AB1846814442146FFF753FF4C
:104910000028F5D02868AB683146184405F0DEFA67
:10492000AC600120EDE710B58A6809680446FFF71E
:10493000E3FF10B92046FFF727FF204610BD38B52A
:1049400004460D4621B92046FFF71EFF204638BD1C
:10495000084605F0E6FA294602462046FFF7CCFF56
:104960000028F0D0F2E758B50E462AB121B184688C
:104970009C4202D800230B7058BDE41A013A9442BD
:1049800028BF1446016822461944304605F0D1FA82
:1049900000233355F0E700000EB4FFB509AD55F81C
:1049A000047B04462B463A46052102A80195FFF7F1
:1049B00035FA06460B492046FFF729FF31462046C7
:1049C000FFF7F9FE206830B12B463A46711C01957D
:1049D000FFF724FAA060204604B0BDE8F04003B021
:1049E000704700BFD8A10A080222002010B5084B6A
:1049F000084C1A60084B2060A080A071A360FFF7EC
:104A000031F92046BDE81040044A054900F0F4BDE4
:104A1000C80E0020BC0E00200000FFFF6C0000202C
:104A2000E7200A0808B50020FFF778F928B1FFF75A
:104A300065F980F00100C0B208BD0120FCE710B5A7
:104A40000020FEF7D5FF0446A0B9FFF703F90128BF
:104A500010D12046FFF726F960B9FFF7E3FF10B940
:104A6000FFF744F9F9E7FFF7DDFFBDE8104000204C
:104A7000FEF7BEBF204610BD1FB5FFF7E0FF1022B6
:104A80000021684605F0CAF900216846FEF7B8FF24
:104A9000009805B05DF804FB024B1A68024B1A60DF
:104AA000704700BF00000020CC0E002010B4046846
:104AB000246BA44610BC604703689B6C1847808E2B
:104AC0007047028FC08E101A704707B503688DF8C3
:104AD00007100122DB680DF10701984703B05DF86C
:104AE00004FB10B5036804461B69984728B1E38EA0
:104AF000E26B591CE186D05C10BD4FF0FF30FBE744
:104B000010B5036804461B69984718B1E38EE26B41
:104B1000D05C10BD4FF0FF30FBE7704703460846FE
:104B200010B4D98EDC6B1A8F0368521ADB682144EB
:104B300010BC1847A0F11000FFF7F0BF2DE9F341BA
:104B40001646036888465B6A044698473046FFF776
:104B50007FFD0368DB689847054688B1022143461C
:104B6000112208460096FEF7C5FF6061FEF7BAFF06
:104B7000074648B10023A4F81880E38623876664BB
:104B8000284602B0BDE8F081236820465B6A98475A
:104B90003D46F5E738B504464569FEF7C3FF854253
:104BA00002D06069FEF7B6FFFEF7BCFF002360612C
:104BB000E386238738BD10B5022486B0ADF80840DF
:104BC000BDF8204064BAADF80A40DC798DF80C409D
:104BD0009C798DF80D405C791B798DF80E408DF82D
:104BE0000F301023019302AB009340690023FEF7BE
:104BF00089FF06B010BD70B50546C06BEE8E68B17A
:104C00002B6C9C1B944228BF14463044224605F06E
:104C1000F7F8EB8E20462344EB8670BD0446F1E79F
:104C200070B5036804461B690E461546984790B157
:104C3000236820461B6998478542A8BF0546E38E36
:104C4000E16B2A461944304605F0DAF8E38E2B442E
:104C5000E386284670BD4FF0FF35FAE72DE9F041B5
:104C600004468AB0406C1F460D461646FFF7F0FC1E
:104C70000368DB68984728B94FF0FF3528460AB02B
:104C8000BDE8F081D4F81480FEF74CFF8045F3D0E6
:104C9000002DF1D010230593002305AA019206AA46
:104CA00029460092CDE9027332466069FEF742FF61
:104CB000051EE3DB9DF81A209DF81B3007A943EA87
:104CC0000223A38604F11C00FFF754FCD6E7000082
:104CD0002DE9F041064694B0406C0D461746FFF7AB
:104CE000B7FC0368DB689847F0B1284605F019F96E
:104CF000002481B2736C2846009403AAFEF7A2FF39
:104D0000A8B903A908A8FFF701FC33680FACD3F8D2
:104D10003880084B09AD0E930FCD0FC42B683A466F
:104D2000304623700EA9C04714B0BDE8F08120467C
:104D3000FAE700BF5CA20A0870B504460646054BB8
:104D400001F1200544F8043B0FCD0FC42B68304619
:104D5000237070BD5CA20A08F0B58C4696460646E4
:104D6000026889B0976A094A03AD1C1D02920FCCF4
:104D70000FC5236872462B70BDF83830614600932A
:104D8000304602ABB84709B0F0BD00BF5CA20A08CC
:104D9000F0B50446036889B09F6A0C4B03AD00F17F
:104DA000200602930FCE0FC53368E28E2B70A38EC0
:104DB000E16B0093204602ABB847054623682046C6
:104DC000DB699847284609B0F0BD00BF5CA20A081D
:104DD00038B500254FF47A73C0E901530C4B0446F3
:104DE00003F108026C3302600361FEF79BFE606111
:104DF00004F11C00FFF77CFB4FF400732046C4E96C
:104E00001035E5862587E56384F8485038BD00BF36
:104E1000BCA20A0810B590F84830044623B1C06B14
:104E200010B1012100F0EDFB0023E36384F848306A
:104E30002364E386238710BD70B5044616460D46ED
:104E4000FFF7E8FF0023E66323642EB12564206C9E
:104E5000003818BF012070BD002DF8D02846FBF7A0
:104E60001EF90123E06384F848300028EFD0EDE715
:104E7000F8B51746C26B05460C461AB9016C09B164
:104E8000FFF7DAFF05F1200604340FCC0FC62368C4
:104E900033700023286CAF86EB862B87F8BD70B586
:104EA000C26B04460D461AB9016C09B1FFF7C4FF85
:104EB0000023E16BE386238749B1226C3AB1236872
:104EC00020461E6B2B46B0470028C8BF20872368AA
:104ED0002046BDE870401B691847000010B5044625
:104EE000064B03F108026C3302600361FFF752FEC8
:104EF0002046FFF78FFF204610BD00BFBCA20A0866
:104F000010B50446FFF7EAFF20464C2100F079FB7C
:104F1000204610BD70474174704708B5007CFEF70D
:104F200059FE20EAE07008BD08B5007CFEF72AFEB5
:104F300020EAE07008BD08B5007CFEF733FE40EAC9
:104F4000E07008BD08B5007CFEF724FE40EAE07082
:104F500008BD007CFEF72EBE70B5467C04460D46AB
:104F60002EB12946207CBDE87040FEF703BE007CD0
:104F7000FEF730FE0028F4DC304670BD10B5044664
:104F8000142100F03EFB204610BD00004FF0000C45
:104F900010B50446084611464FF47A72C4E901C2BE
:104FA000044A20742260012262741A46FEF7DAFD78
:104FB000204610BD34A30A08F8B51A4C26684EB92D
:104FC0008420FBF76AF8054618B18422314604F0C4
:104FD00025FF2560144D2F684FB98420FBF75DF83D
:104FE000064618B18422394604F018FF2E600F4F90
:104FF0003978BFF35B8F11F0010611D13846FBF70A
:1050000052F868B1314622682B680948FFF7BEFFA5
:105010003846FBF74DF8074A0749054800F0ECFA17
:105020000348F8BDD40E0020D80E0020D00E00207A
:10503000DC0E00206C000020154F0A0841747047F8
:10504000704708B50021007CFEF7E4FD40EAE070FF
:1050500008BD08B50121007CFEF7DCFD40EAE070E8
:1050600008BD08B5007CFEF7CDFD20EAE07008BD64
:1050700008B5007CFEF7BEFD20EAE07008BD38B53B
:105080000446007C0D46FEF7BDFD002801DC607C77
:1050900028B12946207CFEF7C5FD20EAE07038BD26
:1050A000007CFEF7C7BD10B50446142100F0A9FA34
:1050B000204610BD10B54FF47A730446084600210F
:1050C000C4E90113044B2074236001231146637467
:1050D000FEF788FD204610BD64A30A0810B50446FB
:1050E0001422002104F09AFE204610BD30B50F4D69
:1050F00087B001A8FFF7F2FF2978BFF35B8F11F0AB
:10510000010410D12846FAF7CEFF60B1214601AA6A
:105110000748FFF7CFFF2846FAF7CAFF054A0649B6
:10512000034800F069FA024807B030BDF00E0020D5
:10513000F80E00206C00002041500A0810B504460B
:105140001422002104F06AFE204610BD10B50F4C59
:1051500086B001A8FFF7F2FF2378BFF35B8FDB0770
:1051600010D42046FAF79FFF60B1012101AA084838
:10517000FFF7A0FF2046FAF79BFF064A06490448BE
:1051800000F03AFA024806B010BD00BFF40E00204D
:105190000C0F00206C00002041500A0800224068DB
:1051A0001146FEF7EBBDF0B5154689B011220E464B
:1051B0000446002103A804F031FE284604F0B1FEA5
:1051C000002781B273682846009703AAFEF73AFDCC
:1051D00030B139462046FFF7ABF9204609B0F0BDA3
:1051E000204603A9FFF792F9F7E70022406811462D
:1051F000FEF7E4BD002240681146FEF7EFBD002235
:105200004068FEF7E3BD0022406881F00101FEF72F
:10521000CDBD002340681A461946FEF7BFBD0023E6
:1052200040681A461946FEF7B1BD00224068114693
:10523000FEF794BD002202214068FEF797BD0023CF
:1052400040681A46FEF782BD0422024B5A60024AA9
:105250001A607047200F002094A30A0810B5044676
:1052600004F05FFE431E20462344834206D90278A1
:10527000197800F8011B03F80129F6E710BD70B595
:105280000C46911E222922D8254668B1B0FBF2F6C1
:1052900002FB1600C1B2092894BF30315731C9B2A0
:1052A000304605F8011BF0E72A463021234493429B
:1052B00002D902F8011BFAE75A1BAB4238BF0022A1
:1052C00000232046AB54FFF7C9FF204670BD0020E5
:1052D000FCE708B50123FFF7D2FF08BD014B1860BA
:1052E000704700BF0800002008B5134B43B1FFF71B
:1052F000FDFE03681B699847002801DDAFF30080BD
:105300000E4B43B1FFF758FE03681B69984700280E
:1053100001DDAFF300800A4B0BB1AFF30080094B06
:1053200043B1FFF713FF03681B699847002801DDAD
:10533000AFF3008008BD00BF0000000000000000C7
:10534000000000000000000008B5FFF7CDFFFEF7E9
:1053500047FB014B186008BD400F00200248034A7C
:105360000349121A04F04CBD0040024004400240C0
:10537000C0A90A08002307B51A466FF07701009309
:10538000FEF7A2FC03B05DF804FB000007B54388FC
:105390000A2B08D0502B0BD1094B1B684BB103B023
:1053A0005DF804EB1847FFF7E5FF03B05DF804FB79
:1053B00000231A466FF077010093FEF785FCF4E7AF
:1053C0002C0F002038B5124C00211248FEF746FD84
:1053D000114D2368AB420CBF012200220F4B1A7003
:1053E00002D0FFF7BBFF2560FEF7E2FA044604F0A7
:1053F0001DFD0B4B13B12046AFF300800021084880
:10540000FEF794FCBDE8384000210648FEF752BC88
:1054100000400240DD520A081E1C279A280F002077
:10542000000000008D530A0810B50446806808B1DA
:10543000FEF7B6FA204610BD172870B5044601D90C
:10544000002070BDA0F10D03022B0BD9012826D836
:1054500000F092F80021007CFEF732FB80F00100A2
:10546000C0B2EEE7134E3178BFF35B8F11F0010548
:105470000FD13046FAF717FE58B129460E48FFF70C
:105480006DF93046FAF714FE0C4A0D490A4800F04F
:10549000B3F8094B1878FEF75DFB0028D0D1123C19
:1054A000012C05D8FFF788FD007CFEF78BFBD5E7C4
:1054B0000120C6E7300F0020340F00206C000020D0
:1054C00029540A08172838B504460D460AD8FF297A
:1054D00008D0FFF7B1FF28B129462046BDE8384083
:1054E000FEF7A6BA38BD38B504460D46FEF7A8FA51
:1054F000FF2810D0062804D84D2323FA00F0C30754
:1055000009D42046FFF798FF28B129462046BDE878
:105510003840FEF79DBA38BD10B5044609289CBF37
:105520000A34A4B22046FFF787FF50B1032120467A
:10553000FEF776FA032804D12046BDE81040FEF7B6
:105540008FBA002010BD0000002370B520254380D5
:105550001423084E044603803146856005612846C1
:1055600000F051F831466060284600F04CF8E060E9
:10557000204670BDC0A30A0830B50F4D87B029780A
:10558000BFF35B8F11F0010413D12846FAF78BFDAE
:1055900078B101A8FFF7D8FF214601AA0748FEF716
:1055A0007BFF2846FAF784FD054A0649034800F0C8
:1055B00023F8024807B030BD440F0020480F0020F8
:1055C0006C00002041440A08002313B5074C1A461A
:1055D000194620460093FEF7C1FF2046044A0549BC
:1055E00002B0BDE8104000F007B800BF5C0F00201B
:1055F0006C0000208D380A080B460146184604F05E
:10560000F1BBFAF74EBDFAF74ABD08B5FEF70EFC3E
:10561000F0B5284D21F00043AB4287B021DD264D87
:10562000AB4209DD02460B4603F0ACFB02460B46DB
:105630001046194607B0F0BD02AA01F091F800F03B
:105640000300012817D0022829D0F8B1DDE904238E
:10565000DDE902010124009402F0EAFB02460B4658
:10566000E6E70022002301F097FE02460B461046B3
:10567000194607B0F0BDDDE904230090DDE9020121
:1056800002F0D6FB024601F10043D1E7DDE9042335
:10569000DDE9020101F080FE02460B46C8E7DDE9C4
:1056A0000423DDE9020101F077FE024601F1004327
:1056B000BEE700BFFB21E93FFFFFEF7F00B51C4ABB
:1056C00020F00043934283B018DDB3F1FF4F05DBB8
:1056D000014604F05BF803B05DF804FB694601F095
:1056E000E7FC00F00302012A0ED0022A18D092B182
:1056F00001220199009803F095F8ECE7002102F0EF
:1057000059FC03B05DF804FB0199009803F08AF896
:1057100000F10040DFE70199009802F04BFCDAE766
:105720000199009802F046FC00F10040D3E700BF69
:10573000D80F493F2DE9F04F8FB01D4606460F4662
:10574000144600F075FAA44BCDE9000193F90090DE
:10575000B9F1FF3F38D022462B462046294603F0B8
:1057600063FF834680BB32463B463046394603F0F2
:105770005BFF8046002840F0D9804FF0000A4FF0D0
:10578000000B3046394652465B4603F01BFF00B320
:1057900052465B462046294603F014FF039000283A
:1057A00048D001228D4BCDE90667CDE90845CDE90A
:1057B0000AABCDE90423CDF83080B9F1000F68D0F1
:1057C0000023874CCDE90034DDE900010FB0BDE8CE
:1057D000F08FDDE9000103F09FF88046002869D0D2
:1057E000DDE900014FF000084FF0000942464B464A
:1057F00003F0E8FE0028E7D03046394603F08CF885
:105800000028E1D02046294603F086F80028DBD0A6
:1058100004200021704B714A93F90030CDE90667EE
:10582000022BCDE90845CDE90A8904900C91059237
:1058300072D176E02046294603F06EF80028C3D0E6
:1058400052465B462046294603F0C6FE0028BBD0E0
:105850000121039A604B0C9293F900305F4ACDE925
:105860000667CDE90845CDE90412002B7BD1CDE9CF
:105870000AAB04A803F0D4F800287BD00C9B1BB122
:10588000FEF7E4FA0C9B0360DDE90A34CDE900344D
:105890009AE704A803F0C4F8002870D00C9B002BF2
:1058A000F2D0FEF7D3FADDE90A34CDE900340C9BDF
:1058B000036089E73046394603F02EF800288FD080
:1058C0002046294603F028F8002889D0DDE9002386
:1058D0001046194603F0A8FE002840F0A4800322D9
:1058E00004923D4A3D4B92F90080CDE90667CDE92F
:1058F00008450C900593B8F1000F45D14FF0604872
:10590000DFF8F09052465B4630463946CDE90A89C9
:1059100003F062FE002846D104A803F081F80028B5
:10592000ACD1FEF793FA22230360A7E700220023FD
:105930002046294603F046FE00283FF445AF0122E9
:1059400000202749254BB9F1020FCDE90667CDE9C3
:105950000845CDE90A01CDF830B00492059398D1FD
:10596000CDE9000130E700201E49022BCDE90A01F4
:105970007FF47FAFFEF76AFA212303607EE7FEF72C
:1059800065FA2123036089E7304600263946164F21
:1059900052465B46CDE90A6703F01EFE60BBB8F1D4
:1059A000020FBED0B8E70022104B2046294603F074
:1059B000A1FB04460D4603F03BF822462B4603F0BC
:1059C00001FE60BB4FF06042094B0349CDE90A2359
:1059D00091F90080E3E700BF04000020C4A30A0897
:1059E0000000F03F0000F0FF0000F07F0000E03F0B
:1059F000FFFFEFC7FFFFEF470022194B2046294664
:105A000003F078FB04460D4603F012F822462B46BD
:105A100003F0D8FD18B90022124BCDE90A23124B2E
:105A200093F90080BBE701220F4BCDE9066793F99C
:105A300000900E4BCDE90845CDE90423CDF8308028
:105A4000B9F1000F3FF413AF52465B46504659463A
:105A500003F07AFCB9F1020FCDE90A018AD008E718
:105A60000000E03F0000F0FF04000020C4A30A088B
:105A70002DE9F0418AB007460C4601F057F92A4B50
:105A8000054693F90080B8F1FF3F3AD02146204601
:105A900004F04CF9002834D13946384604F046F970
:105AA000064670BB0021204604F00EF948B30122DF
:105AB0001E4B3846CDE90023089603F0C3FA06468C
:105AC0000F462046CDE9026703F0BCFACDE9040198
:105AD000B8F1000F19D0002200231046194603F038
