:02000004080AE8
:1000000000000A08D8DE0A08000006000600050104
:080010000402BD0B000000001A
:04001800A8C60A0864
:1000200009480A4908B5884205D0094A824202D0E7
:10003000121A0CF051F90748074A0021121A0CF065
:1000400073F9064808BD00BF0000002044DE0A081E
:100050006C0000206C0000202415002024150020D6
:1000600070B507F03FFA0025054E064CA41BA40806
:10007000A54200D170BD56F8043B98470135F7E71B
:100080000CDE0A0834DE0A0802F06CB908B502F08A
:1000900079FABDE8084007F0E7B905F02FBB05F095
:1000A0002DBB05F033BB000000210C2008B5024A2F
:1000B00005F038FAFEE700BF01520A080078B0FAEE
:1000C00080F0400970470123037070472DE9F04F1D
:1000D00092469B460026284F87B0284AF3B2B2F9D1
:1000E0000020934244DA4FF000094FEA8308244B82
:1000F0005FFA89F4B3F9003009F101099C4235DA5D
:100100003B68A4B253F80800214603F028FB0546DB
:10011000C0F307200BF0F0F952465B460BF056FA9D
:100120000BF02CFDC3B2C5F3074003930BF0E4F9C9
:1001300052465B460BF04AFA0BF020FDC3B2049323
:100140003B68E8B205930BF0D7F952465B460BF0DB
:100150003DFA0BF013FDDDE90332C0B200900598C3
:10016000214650F8080003F0A3FAC0E70136B4E7CF
:1001700007B0BDE8F08F00BF700000207E000020B7
:100180007C0000202DE9F04F4FF0000985B0CDE94B
:100190000223DFF8BCB02C4B5FFA89F4B3F90030CE
:1001A0009C424DDA4FF0000AA400284B5FFA8AF512
:1001B000B3F900300AF1010A9D423EDADBF8003063
:1001C000ADB21859294603F0CAFA8046C0F3074079
:1001D0000BF092F9DDE902230BF0F8F90BF0A6FC25
:1001E0000646C8F307200BF087F9DDE902230BF080
:1001F000EDF90BF09BFC07465FFA88F00BF07CF9F9
:10020000DDE902230BF0E2F90BF090FC0F9B9F421B
:10021000B8BF1F460E9B9E42B8BF1E46109BF2B24F
:100220008342B8BF0346DBF80000D9B20091005901
:100230002946FBB203F03CFAB7E709F10109AAE746
:1002400005B0BDE8F08F00BF7E0000207C000020DC
:10025000700000202DE9F74316460024DFF83080B7
:10026000DFF830908D00DFB2B8F90030A3420CDD2A
:100270000A9BD9F80000DBB20093A1B23B4640597B
:10028000F2B203F015FA0134EEE703B0BDE8F083F3
:100290007C000020700000202DE9F743002402AB11
:1002A00003E906000E4E0F4FB6F90030A34213DDEE
:1002B0000025DFF834904FEA8408B9F90030AB42EA
:1002C00008DD3B68A9B2009A53F8080003F019FA58
:1002D0000135F2E70134E7E703B0BDE8F08300BF82
:1002E0007E000020700000207C00002070B50024FB
:1002F000094E0A4DB6F90030A3420BDD2B6853F8C6
:10030000240002F05CFA2B6853F8240002F064FA2F
:100310000134EFE770BD00BF7E00002070000020B8
:100320002DE9F74F0F469046DFF8CCB09DF830200E
:10033000DBF800001C469DF83830414650F8270095
:10034000009301929DF834A003F009FA2146064675
:100350004FF07E500BF086FC0546C6F307200BF0ED
:1003600037FD29460BF088FD814650460BF030FDE5
:1003700021460BF081FD014648460BF075FC0BF061
:100380007DFF5FFA80FAC6F307400BF021FD294696
:100390000BF072FD019A814610460BF019FD2146C3
:1003A0000BF06AFD014648460BF05EFC0BF066FF61
:1003B0005FFA80F9F0B20BF00BFD29460BF05CFD03
:1003C000009B054618460BF003FD21460BF054FD3B
:1003D000014628460BF048FC0BF050FF53464A46B6
:1003E0004146DBF800B0C0B20C905BF8270003B0C8
:1003F000BDE8F04F03F05CB9700000202DE9F84330
:1004000000240E4E0E4FB6F90030A34213DD002536
:10041000DFF830904FEA8408B9F90030AB4208DDCC
:100420003B68A9B2002253F8080003F06AF90135CD
:10043000F2E70134E7E7BDE8F88300BF7E00002063
:10044000700000207C0000202DE9F04F044697B09A
:1004500000F5B0700D46CDE9082303F04BFA04F522
:10046000C87003F047FA04F5E07003F0BFF9954B4C
:100470000899954A19806FF060418D422CBF4FF06A
:10048000FF3A4FEA850A5046904699461580FFF795
:1004900006FE00266FF0604B8C4F3860B8F90020E4
:1004A000B2420FDDB9F900003B6858452CBF4FF050
:1004B000FF3080000793FFF7F2FD079B43F826000B
:1004C0000136EBE75046FFF7EAFD814B2646002751
:1004D0009A46DFF81492DFF80CB21860A4F1040811
:1004E0003BB29D4249DD1020FFF7D7FD079030B1A8
:1004F000209A099BD25DBDF8201002F049F9DAF884
:100500000030079A1D2143F827200A2005F091FDAD
:100510003A2148F8040F002005F08BFD0BF058FC41
:100520000A21C8F82000002005F083FD0528CCBF73
:1005300001234FF0FF330A21C8F86030052005F091
:1005400078FD0BF045FC49460BF04AFDC8F8400029
:10055000DBF8000001F0CDFDC6F88000DBF80000FC
:1005600001F0C9FDC6F88400DBF8000001F0C5FD0C
:100570000137C6F888000C36B2E70123192532216D
:100580001E226427C4E93832C4E93D514B20C4F827
:1005900014116FF01D029621C4F8E820C4E94671D9
:1005A000C4E94D014FF0FF32E1214FF00F0AC4E9D9
:1005B0003F02C4E94F124FF4E872C4F80451E82531
:1005C0004FF0C80CC4E951A22E224FF000084FF0A2
:1005D0000009C4F808511426B9250421C4E956C2FB
:1005E000DFF808B13B4AC4E94965C4E93B83C4E983
:1005F0004383C4E94B83C4F82031C4F854711160BB
:100600000AA8C4E953834A465146CDE90477CDE9A7
:1006100002A7314BCDF804B0CDF8009004F5B076C8
:100620000AAD03F068F90FCD0FC60FCD0FC695E8E0
:100630000F0086E80F005146274B284ACDF804B03A
:10064000CDF800900AA8CDE90477CDE902A704F51A
:10065000C87603F050F90DF1280CBCE80F000FC666
:10066000BCE80F000FC695E80F0086E80F00CDE943
:100670000277CDE900A74FF076520321184B0AA864
:1006800004F5E0770AAE03F0B3F80FCE0FC70FCE34
:100690000FC795E80F0087E80F00C4F8F08104F059
:1006A000BFFDC4F81492C4F818022046FFF71EFEDE
:1006B0002046FFF7A3FE2046219A0A4B1A6017B086
:1006C000BDE8F08F7C0000207E000020800000202C
:1006D00070000020780000200000E8410000E040A9
:1006E000CDCC4C3F74000020000070416666663F30
:1006F000002370B5074E084DB6F900205C1CDBB234
:10070000934206DA2A6852F8230002F065F823467D
:10071000F2E770BD7E000020700000202DE9F3415B
:1007200000244FF47A774026DFF82C80D8F8005068
:1007300004F076FDB0FBF7F04023009600F00700D0
:10074000A1B21A4655F82000013402F0B1FF3A2C4C
:10075000ECD102B0BDE8F081700000202DE9F04F2F
:100760000646054600274FF07E5A87B0041F6D4BA2
:10077000B3F90030BB4240F3D180606A0BF058FD02
:10078000636E5FFA87F9012B1FFA80F840F09180C1
:1007900000280BDD002308F1FF32CDE9013300937F
:1007A00049465346304692B2FFF7BAFD95F8883075
:1007B0006268029395F884300132019395F8803095
:1007C000424492B24946304600935346FFF7A8FD93
:1007D000D4F864B058460BF0FBFA616C0BF04CFB9C
:1007E000616A0BF041FA60620AF098FE804654F8A4
:1007F000040F89460AF080FE02460B46CDE9042329
:100800000022494B0AF0E2FE02460B4640464946AA
:100810000BF04EF9002866D0BBF1000F63DA01231C
:100820000A210020236605F004FC05281ADD1D219D
:100830000A2005F0FEFB2268C30F82420344B8BFC2
:1008400002EBD2728046B8BF52104FEA6300C0F18B
:100850000000BCBFC2EB6303C01A0BF0B9FAC4F8C6
:10086000008020620A21002005F0E3FB072809DD53
:100870000A21052005F0DDFB0BF0AAFA2B490BF04D
:10088000AFFB2064DFF8B080D8F8000001F031FC45
:10089000C5F88000D8F8000001F02DFCC5F88400F0
:1008A000D8F8000001F029FCC5F8880001370C35A4
:1008B0005DE7002810DD95F8883008F1FF320293DB
:1008C00095F884304946019395F88030304600937E
:1008D00092B25346FFF724FD00236268CDE901334D
:1008E000013242446DE70022DDE90401104B0AF0B9
:1008F0006DFE02460B4600200E490AF0AFFC024690
:100900000B46404649460BF0F1F80028CED0BBF12B
:10091000000FCBDD4FF0FF332366B3E707B0BDE830
:10092000F08F00BF7E0000200000E0BF000070419B
:100930000000E03F00004D40740000202DE9F3412D
:10094000FFF75CFD00244FF47A770A25DFF8348046
:10095000D8F800301E5904F063FCB0FBF7F0B0FB90
:10096000F5F1402305FB1101C1F13A011A46304669
:10097000009389B2043402F09BFE202CE8D102B02F
:10098000BDE8F0817000002070B5064608460AF008
:10099000B3FD04460D4630460AF0C0FD22462B4604
:1009A000BDE8704007F034B92DE9F04F8FB00C92DC
:1009B0009DF860208146184609920C460AF0AEFD6B
:1009C00002460B464846FFF781FB099B002B4AD0A5
:1009D000E369206818440BF0FBF94FF07C510BF0F1
:1009E0004BFAB1490BF0FCFA07F010FBAF490BF0E2
:1009F0003BF9AF490BF040FAAE490BF03DFA0890D5
:100A00004FF0000BAC4B5FFA8BF5B3F900309D4211
:100A100080F2338100230793A84B9DF81CA0B3F903
:100A200000309A4580F22681099B6BB108980BF043
:100A300025FCC0B2CDE9010000904FF07C53524636
:100A400029464846FFF76CFC9B4BB3F90030082B56
:100A500040F09E80072D00F2BB80DFE805F0078B99
:100A60008D8F9193959700230893C9E760680BF0E9
:100A7000AFF90BF0DDFB0D900BF0AAF98A490BF0F2
:100A8000AFFA0221FFF780FFCDE90A0150460AF0D4
:100A900033FD002207468846DDE90A01884B0AF04B
:100AA00095FD02460B46384641460BF001F80028FA
:100AB0005CD00D9B58000AF01FFD71A3D3E9002301
:100AC0000AF084FD70A3D3E900230AF0A9FE0BF01D
:100AD00075F87C4B8046186801F009FB032390FBF6
:100AE000F3F303EB4303C01A012873D0022800F08C
:100AF000928068BB404607F04FF86E490BF0BCF996
:100B00000BF096FB059040460AF008FD60A3D3E980
:100B1000002306460F460AF0A1FB06F0E7FF5EA39E
:100B2000D3E900230AF052FD0BF000F85CA3D3E9EF
:100B300000230690304639460AF090FB06F0D6FFB7
:100B400055A3D3E900230AF041FD0AF0EFFF064662
:100B5000F3B202939DF81830524601939DF8143079
:100B60002946009348460C9BFFF7DAFB079B0133AD
:100B7000079351E7E0687AE7606978E7A06976E76C
:100B8000606B74E7206B72E7A06A70E7206A6EE71B
:100B90000A2B1DD1092D1BD801A353F825F000BF46
:100BA0006D0A0A08C90B0A08750B0A08790B0A08AE
:100BB0007D0B0A08810B0A08850B0A08890B0A08B5
:100BC000CD0B0A088D0B0A08A06850E7606A4EE753
:100BD00000204CE740460AF0A1FC31A3D3E90023F2
:100BE00006460F460AF03AFB06F080FF2AA3D3E937
:100BF00000230AF0EBFC0AF099FF0590404606F04E
:100C0000CBFF2C490BF038F90BF012FB20A3D3E9F2
:100C1000002306908EE740460AF080FC1CA3D3E92F
:100C2000002306460F460AF019FB06F05FFF1AA3E1
:100C3000D3E900230AF0CAFC0AF078FF18A3D3E92D
:100C400000230590394630460AF008FB06F04EFFB7
:100C500011A3D3E900230AF0B9FC0AF067FF06905C
:100C6000404606F099FF13490BF006F90BF0E0FA45
:100C700006466DE70BF1010BC4E60FB0BDE8F08F3F
:100C80007A008BFCFA2109400000000000FEAF4012
:100C90005100B2FD51C100400000000000E06F4073
:100CA0005100B2FD51C1104000F07F453333333F56
:100CB0000000A04000007F437E0000207C00002058
:100CC00000004D40740000202DE9F04F064689B029
:100CD000184690460C460AF021FC664D02460B462B
:100CE0003046FFF7F3F90021286801F0FCF908B35A
:100CF000332061490B68013393FBF0F200FB1233A0
:100D00000B600023DFF87C91DFF87CA105935B4B3F
:100D10009DF81450B3F900309D4280F2A78000275F
:100D2000DFF854B1072D58D8DFE805F00B4B4D4FD5
:100D300051534F550121286801F0D5F90028D7D12A
:100D4000DFE720680BF044F80BF072FA0BF040F884
:100D500049460BF045F9079038460BF039F80799EA
:100D6000069008460BF088F851460BF085F8069B74
:100D7000014618460BF01EFAA8B10C23DBF8000060
:100D80003F494343C81890F808C0CB5C0079C7F1CD
:100D90001D0201900093294643463046CDF808C015
:100DA00092B2FFF7BDFA01371D2FBBD10027DFF844
:100DB000C8B0072D58D8DFE805F0124B4D4F5153FE
:100DC0004F556068BEE7A068BCE7E068BAE72069F5
:100DD000B8E76069B6E7A069B4E70020B2E7E06968
:100DE0000AF0F6FF0BF024FA0AF0F2FF49460BF086
:100DF000F7F8079038460AF0EBFF07990690084687
:100E00000BF03AF851460BF037F8069B01461846AE
:100E10000BF0D0F9A8B10C23DBF8000018494343CC
:100E2000C81890F808C0CB5C007907F11D0201904A
:100E30000093294643463046CDF808C092B2FFF7EA
:100E40006FFA01371D2FB4D1059B013305935EE77F
:100E5000206AC5E7606AC3E7A06AC1E7E06ABFE746
:100E6000206BBDE7606BBBE70020B9E709B0BDE8C8
:100E7000F08F00BF74000020780000207E0000206A
:100E8000BCC60A0800F07F450000E8412DE9F04F9C
:100E9000044689B0184690460D460AF03FFB434E83
:100EA00002460B462046FFF711F9306801F01FF9A2
:100EB000D4F8F03198420DD0306801F018F9C4F838
:100EC000F00133203A490B68013393FBF0F200FB49
:100ED00012330B602B68E869072618442B6ADFF889
:100EE000D0B018446B68002518440AF071FF4FF029
:100EF0007A510AF0C1FF2F490BF072F801460AF04F
:100F0000BBFF2D490AF0B8FF0AF008FB00222B4B6B
:100F10000AF0A6F90AF00AFEDFF8A4900490049BF8
:100F2000C5F1040793FBF7F74FF0000A07EBD773FF
:100F30005B10C3F11D030593EBB20693BA452CDA9F
:100F40000C21059B03EB0A02DBF8003092B24B4305
:100F500009EB0301087A19F803300979029001912D
:100F600020460699009343460792FFF7D9F90C21D2
:100F7000DBF80030079A4B4309EB0301087A19F8B4
:100F8000033009790290019100933146434620468F
:100F9000FFF7C6F90AF1010AD0E70135013E042D39
:100FA000F6B2BCD109B0BDE8F08F00BF74000020DC
:100FB0007800002000F07F45000068420000E03F1C
:100FC000BCC60A082DE9F04F044689B018461746FA
:100FD0000D460AF0A3FA6C4E02460B462046FFF778
:100FE00075F8306801F083F8D4F8F03198420DD0EC
:100FF000306801F07CF8C4F8F001332063490B68D5
:10100000013393FBF0F200FB12330B602A68EB69AB
:10101000696813442A6AE8680A441344A9686A6A3A
:101020000A441344AA6A02441344E86A2A69104431
:1010300003446A69286B10440344AA69686B10442E
:1010400018440AF0C5FE4FF07C510AF015FF0AF073
:1010500065FA00224E4B0AF0B9FA8046D4F8140221
:1010600089460AF05BFA0022494B0AF0AFFA0B46B8
:101070000246494640460AF0F3F80AF09FFDC4F8DC
:101080001402054604F0CCF8D4F81832C01A23280C
:101090002BD904F0C5F8D4F8F8314FF07A51C4F8E0
:1010A000F431D4F8FC31C4F81802C4F8F831D4F89B
:1010B00000322846C4F8FC31D4F80432C4F80032B7
:1010C0000AF0DAFE33490AF08BFF01460AF0D4FE3B
:1010D00031490AF0D1FE0AF021FA00222C4B0AF025
:1010E000BFF80AF023FDC4F804020725002604F522
:1010F000FA73DFF898B0DFF8A48004934FF000098A
:10110000049B53F804AB04930AEBDA735B10C3F14E
:101110001D030593F3B20693D1452CDA0C21059BF0
:1011200003EB0902DBF8003092B24B4308EB0301FA
:10113000087A18F80330097902900191204606993F
:1011400000933B460792FFF7EBF80C21DBF80030E9
:10115000079A4B4308EB0301087A18F80330097922
:1011600002900191009329463B462046FFF7D8F8AC
:1011700009F10109D0E70136013D042EEDB2BDD1E0
:1011800009B0BDE8F08F00BF740000207800002097
:101190000000E03F00F07F4500006842BCC60A083E
:1011A0002DE9F043054685B018460AF0B7F900244A
:1011B0000B460A210246CDE9014128460094FEF77C
:1011C000E1FFDFF870901A4EDFF86C802146D9F805
:1011D000000000F088FF28B3C82333271A46009385
:1011E00021462846FFF736F83368062C03F1010341
:1011F00093FBF7F207FB1233336013D10C225A43EF
:1012000008EB0203996858F802205B6800912846B1
:101210000721FFF71FF83368013393FBF7F207FB51
:10122000123737600134072CD0D105B0BDE8F08308
:101230007800002074000020BCC60A0800000000EE
:101240002DE9F04F80468BB0184691460D460AF0C6
:1012500065F902460B464046FEF738FF002305932A
:10126000694B9DF81470B3F900309F4280F2B8804A
:10127000664BDFF8A4B11C88BB00013C24B2089384
:10128000002C25DDA4B2DBF80030089A611E9858C6
:1012900089B202F064FAC0F30743C0F3072AC6B26A
:1012A00022463946404606930093CDE901A64B46B7
:1012B000FFF736F8069B621C009339464B464046C2
:1012C000CDE901A692B2023CFFF72AF824B2D7E793
:1012D000072F00F28380DFE807F004737577797BCE
:1012E0007D7F68680AF074FD0AF0A2FF04464000A2
:1012F0000AF002F93CA3D3E900230AF067F93CA302
:10130000D3E900230AF08CFA0AF058FC064620467E
:101310000AF05EFD3E490AF063FE3E490AF0ACFD6C
:1013200001460AF0A9FD3B4904460AF061FF00B1FD
:10133000384C30460AF0F2F82FA3D3E90023824656
:101340008B4609F08BFF06F0D1FBCDE90801204662
:101350000AF0E4F82AA3D3E90023CDE906015046B8
:10136000594609F07BFF06F0C1FB824630468B46AA
:1013700006F012FC014620460AF07EFD0AF07EFFD0
:10138000C0B252465B460290DDE906010AF01EF942
:101390000AF0F4FBDDE90623C0B20190DDE90801A3
:1013A0000AF014F90AF0EAFBC0B24B4600900022A2
:1013B00039464046FEF7B4FF059B013305934FE7DE
:1013C000E8688FE768698DE7A8698BE7686B89E74C
:1013D000286B87E7A86A85E7286A83E7002081E70A
:1013E0000BB0BDE8F08F00BF7A008BFCFA210940FA
:1013F0000000000000FEAF405100B2FD51C110409E
:101400005100B2FD51C100407E0000207C00002050
:1014100000F07F4500007F43700000202DE9F04F71
:10142000044600F5E07600F5B07A85B050460F46E8
:1014300004F5C879314602F077FA514D31464846F5
:1014400002F072FA304602F0EDF9286800F04FFE23
:10145000D4F8F03198421BD0286800F048FE0321F0
:10146000C4F8F001002004F0E4FD00283AD1286817
:1014700000F03FFE8046286800F03DFE8246286866
:1014800000F03BFE524603464146484602F0F8FA59
:101490002046FEF7B3FF254604F1600B4FF000082D
:1014A00005F5B07AD5F86031434544DD504602F089
:1014B000DDFA8146504602F0DEFA95F88C3100EBF9
:1014C0000802029395F888312046019395F88431FB
:1014D00092B200935FFA89F13B46FEF721FF08F1D3
:1014E0000108DFE70221002004F0A3FD88B9286885
:1014F00000F0FFFD8046286800F0FDFD8146286869
:1015000000F0FBFD4A4603464146504602F0B8FA59
:10151000BEE7286800F0EDFD8046286800F0EBFD8E
:101520008146286800F0E9FD4A46034641463046B8
:1015300002F0DCF9ACE730355D45AFD10025D4F8D9
:10154000D831AB4219DD304602F0C6F9804630464C
:1015500002F0C7F994F8EC314219029394F8E8319B
:101560002046019394F8E43192B200935FFA88F137
:101570003B46FEF7D5FE0135E1E705B0BDE8F08F4B
:10158000740000202DE9F04F054699B018460C462E
:10159000079209F0C3FF261F02460B462846FEF7B6
:1015A00095FD374618340DF1280957F8040F0AF055
:1015B0000FFC8046F8690AF00BFC014640460AF031
:1015C0000FFDBC4249F8040BEFD14FF07C59DFF816
:1015D000FC800DF1440A56F8040F0AF0F9FB0746A7
:1015E000F0690AF0F5FB014638460AF03DFB494632
:1015F0000AF042FC41460AF0F3FCB4424AF8040BFC
:10160000E9D100272E4B5FFA87F9B3F900309945ED
:1016100053DA4FF000082B4B5FFA88FAB3F9004019
:10162000274BA245B3F9000045DA99FBF0F00AF028
:10163000CFFB83469AFBF4F00AF0CAFB01462398DD
:101640000AF0CEFC002400260AAA069011AB0592EF
:1016500053F8042B5946CDE90823059B013453F870
:10166000040BE4B205930AF0FDFA20F00041229841
:101670000AF0B6FC06990AF0F7FA089A11460AF041
:10168000FBFB014630460AF0EFFA072C0646099BA1
:10169000DED10D490AF0F0FB0AF0F0FDC0B2CDE951
:1016A00001000090524649462846079BFEF738FE47
:1016B00008F10108AFE70137A4E719B0BDE8F08FE2
:1016C0007E0000207C00002000007F4300F07F456A
:1016D0002DE9F04F8DB0059018460A928A4609F020
:1016E0001DFF02460B460598FEF7F0FC4FF0000B7D
:1016F000B44B5FFA8BF7B3F9003003EBD373B7EB5E
:10170000630F4FEA63046DDA00240A26A046B4FB97
:10171000F6F35AF823000AF05BFB0AF089FD0AF0A1
:1017200057FBA9490AF05CFC0221FFF72DF902469C
:101730000B463846CDE9082309F0DEFEA14BCDE982
:101740000601B3F9000000EBD070401009F0D4FEA0
:10175000DDE9082309F03AFF02460B46DDE9060100
:101760000AF0A6F9002830D01FFA88F505F15003D9
:101770009BB20693F943934BB3F90090934B09EB5B
:10178000D979186801EB690900F0B3FC8F4B0B9015
:10179000186800F0B0FC8D4B0890186800F0ADFCA4
:1017A000089A0B9BC0B20290D0B201905FFA89F9FF
:1017B000D8B22A460A9B009049460598FEF7B0FD2C
:1017C0000835069BADB2AB42D4D108F10103B3FB9F
:1017D000F6F20A34E4B23C2C06FB123897D10BF136
:1017E000010B85E7794FE4B2764BB3F900309C42A8
:1017F00069DA00254FF00A082E46B5FBF8F30AEB2C
:101800008303D8690AF0E4FA6E4B8146B3F90030DD
:1018100003EBD373A4EB630009F06EFECDE9060180
:1018200048460AF005FD0AF0D3FA67490AF0D8FBEA
:101830000221FFF7A9F802460B46CDE90823614BC8
:10184000B3F9000000EBD070401009F055FEDDE95F
:10185000082309F0BBFE02460B46DDE906010AF04B
:1018600027F920B31FFA86FB0BF150091FFA89F9FB
:10187000386800F03EFC0890386800F03CFC0690A8
:10188000386800F03AFC069A089BD2B2C0B20192C6
:10189000DBB25A460BF1080B0290009321460A9BDB
:1018A00005981FFA8BFBFEF73BFDD945E0D10136C9
:1018B000B6FBF8F30A35EDB23C2D08FB13669CD15C
:1018C0000134E4B290E700233F4D0A933D4B9DF86D
:1018D0002840B3F900309C4280F2DC804FF0000BCE
:1018E000072C6DD8DFE804F0045A5D606366606918
:1018F000DAF800000AF06CFA0AF09AFC0AF068FACA
:1019000029460AF06DFB0221FFF73EF88046584653
:10191000894609F0F1FD002206460F462C4B404651
:10192000494609F053FE02460B46304639460AF056
:10193000BFF800B3DFF89480D8F8000000F0D9FBBE
:101940000646D8F8000000F0D6FB0746D8F800009D
:1019500000F0D3FBFF43C043F643C0B2CBF11D02FE
:10196000FFB2F6B2029021461A4B059801970096F5
:1019700092B2FEF7D5FC0BF1010BBBF10E0FAFD10C
:101980004FF01D0BBBF12C0F00F08080072C7BD893
:10199000DFE804F022686B6E71746E77DAF8040089
:1019A000A8E7DAF80800A5E7DAF80C00A2E7DAF809
:1019B00010009FE7DAF814009CE7DAF8180099E7BE
:1019C000002097E77E00002000F07F457400002093
:1019D00000003D403333733FDAF81C000AF0F8F999
:1019E0000AF026FC0AF0F4F929460AF0F9FA022175
:1019F000FEF7CAFF0646ABF11D000F4609F07CFD5D
:101A0000002280468946254B3046394609F0DEFDE6
:101A100002460B46404649460AF04AF8F8B1DFF85C
:101A20008480D8F8000000F064FB0646D8F8000077
:101A300000F061FB0746D8F8000000F05EFBFF43B2
:101A4000C043F643C0B2FFB2F6B202902146144B37
:101A50000598019700961FFA8BF2FEF761FC0BF1D7
:101A6000010B8FE7DAF82000B8E7DAF82400B5E7D1
:101A7000DAF82800B2E7DAF82C00AFE7DAF830003D
:101A8000ACE7DAF83400A9E70020A7E70A9B0133A6
:101A90000A931BE70DB0BDE8F08F00BF00003D408A
:101AA0003333733F7400002000232DE9F0470546CF
:101AB00086B00493ADF814308DF8163006AB13E9F8
:101AC0000600FEF7E9FB2C4601263A27DFF81491C1
:101AD00005F180084FF0000AD4F8E430534521DDC9
:101AE000D4F8E8202846524492FBF7F101F00103B4
:101AF0000029B8BF5B42012B94F8FC3007FB112290
:101B0000029394F8F83008BFC2F14502019394F8AB
:101B1000F43092B20093C9B24B46FEF701FC0AF1D1
:101B2000010AD9E7B6B10A21002004F082FA072899
:101B300010DD2A4E306800F0DCFAC4F8F40030689A
:101B400000F0D9FAC4F8F800306800F0D6FA0026A0
:101B5000C4F8FC00D4F8EC30D4F8F0200133934200
:101B6000C4F8EC30D4F8E02007DB0023C4F8EC30F4
:101B7000D4F8E8301344C4F8E830002A0DDDD4F876
:101B8000E430D4F8E82003F5E8739A420DDC203401
:101B9000A0459FD106B0BDE8F087F8D0D4F8E43076
:101BA000D4F8E8205B429A42F1DA0A21002004F0DE
:101BB00040FA32210A4A1368184490FBF1F301FB02
:101BC00013001060D4F8E030002BD2BF4FF4E8735C
:101BD000D4F8E4305B42C4F8E830D8E77400002061
:101BE000780000203333733F2DE9F74F0C468346CE
:101BF00003F016FB0AF0E8F83D490AF0F1F94FF05E
:101C00007E5106F0A3F901460AF02EF809F086FC91
:101C10002FA3D3E9002309F0D9FC09F0CFFF054633
:101C200005F0BAFF33490AF027F921460AF024F9F2
:101C30000AF024FB5FFA80FA284609F06FFC26A31D
:101C4000D3E9002306460F4609F008FB05F04EFFD6
:101C500080462046894609F061FC21A3D3E9002390
:101C600004460D464046494609F0B0FC22462B4644
:101C700009F0ACFC09F082FF1BA3D3E900235FFA53
:101C800080F83946304609F0E9FA05F02FFF14A331
:101C9000D3E9002309F09AFC22462B4609F096FC72
:101CA00009F06CFF4FEA0823C0B243EA0A4303433A
:101CB0008DF80600584600938DF804A08DF8058035
:101CC00002AB13E9060003B0BDE8F04FFEF7E4BA3B
:101CD0007A008BFCFA2109405100B2FD51C100404D
:101CE0000000000000E06F405100B2FD51C1104003
:101CF00000401C4600007F43092A1FB504460BDC48
:101D0000002A10DB013A082A1ED8DFE802F0243945
:101D1000434D52343F292E004E2A53D00DDC422A27
:101D200058D04D2A4BD0334B186800F0D3F92046D9
:101D300004B0BDE81040FEF7DBBC582A47D0632A48
:101D4000F1D1FEF7FBFDEEE700232B4A00932B4B6E
:101D5000FEF72AFEE7E7294B274AFEF7B5FFE2E741
:101D6000274B254AFFF792F8DDE74FF07D53224AD3
:101D7000FFF728F9D7E7234B1F4AFFF711FAD2E7FD
:101D80004FF07C52204BFFF75BFACCE71E49FFF780
:101D900045FBC8E71D4B184A01934FF07E53009353
:101DA000174BFFF7EFFBBEE7154B134AFFF790FC0D
:101DB000B9E74FF07A51164AFFF716FFB3E7FEF77F
:101DC000CDFCB0E74FF07D51FFF76EFEABE7FEF7BD
:101DD000A5FCA8E74FF47F030293FF23ADF80C3076
:101DE00000238DF80E3004AB13E90600FEF754FA19
:101DF00099E700BF740000209A99193E9A99593FBB
:101E0000CDCC4C3F6666663F3D0A773F0000A0415F
:101E1000000020410322002342610022C0E9013377
:101E2000C0E90333C0E9073330B503808370C0F8DD
:101E30008C2DC0F8902D00F53A6100F6D83400F6EC
:101E4000BC3541F8042B8A61A94204F8013BA37117
:101E5000F7D130BD000000002DE9F047036A02EB26
:101E600082051D4400EB820800EB850507460E46FF
:101E7000D8F8BC0BD5F8141B14464FEA820A09F0B7
:101E8000F1FEC8F8BC0B814656F82400B24440432A
:101E9000401009F09DFF0646C5F8140BDAF81C0047
:101EA0004043401009F094FF314609F0DDFE06463C
:101EB0000146C5F8140B484609F0D6FE64252449AE
:101EC000C8F8BC0B0AF08CF8FB69814605FB0435A9
:101ED00007EB8505696AD8F8A00B09F0C3FE6E62AE
:101EE0000146304609F0C0FE1A49C8F8A00B0AF0B6
:101EF00077F83C4494F8D83B0546D3B9484609F0F6
:101F00000DFB064628460F4609F008FB0EA3D3E951
:101F1000002309F05BFB02460B463046394609F0C8
:101F2000E5FD20B1012384F8D83B84F8DF3BBDE810
:101F3000F087014648460AF03DF90028F7D0002313
:101F400084F8D83BF3E700BF9A9999999999F93F9A
:101F50000000A0400000C8422DE9F041066A044696
:101F600000EB86060D46D0F8900DD6F8781D09F0E6
:101F700079FEC4F8900DEB6907465B43286800FBC7
:101F80000030801009F024FF8046C6F8780D2B6AD7
:101F900068685B4300FB0030801009F019FF414680
:101FA00009F062FE05460146C6F8780D384609F08C
:101FB0005BFEE769C4F8900D04EB8707D7F8E81BD0
:101FC0000646D4F88C0D09F04DFEC7F8E85B0146D3
:101FD000284609F049FE2C490546C4F88C0D3046C8
:101FE00009F0FEFF09F09AFA06460F4628462749EF
:101FF00009F0F6FF09F092FA237883BB20A3D3E916
:10200000002309F0E3FA32463B4609F051FD20B3C4
:1020100023696169013393FBF1F2236101FB123300
:102020001BB9A37883F00103A370FF26D4E9015301
:102030002B4493FBF6F2C2EB02229B1AC4E9025333
:10204000304603F0EBFF054495FBF6F640F2011332
:10205000C6EB0626AD1B65602380BDE8F0814FF01E
:1020600033320B4B09F0B2FA32463B4609F03EFDE3
:102070000028F2D000232370EFE700BFAFF3008009
:10208000666666666666F63F0000A0400000C842CD
:102090003333F33F70B504460E460025FFF75CFF6F
:1020A0002A46314620460135FFF7D6FE072DF7D1E7
:1020B0006421E369013393FBF1F201FB1233052242
:1020C000E361236A013393FBF2F202EB82029B1A73
:1020D000236270BD0023437080F8DF3BC0F8E03B13
:1020E000A0F8E43B7047084490F8DF0B70470069A4
:1020F00070474068704780687047C068704710B587
:102100000446006808B103F001FB204610BD000042
:1021100030B5044685B04C20FDF7BFFF054608B139
:1021200004F0BEFE25600C20FDF7B7FF054618B190
:102130004FF4007101F0DAFD1E496560684603F056
:10214000F0FF1820FDF7A9FF054620B100236946DE
:102150001A4601F061FEA560684603F098FF164933
:10216000684603F0DEFF1820FDF797FF054620B113
:1021700000236946A26801F04FFE6846E56003F05F
:1021800086FF0120FDF789FF002304F12002206172
:10219000C4E90932C4E90B23C4E90D33074984F8C3
:1021A0002030E36304F1400003F0BBFF204605B09C
:1021B00030BD00BF76D10A0814C90A081AC90A0836
:1021C00008B501210F2005F01EFA01210C2005F0B1
:1021D0001AFA012003F0D2FA00210C2005F013FABC
:1021E000012003F0CBFA00210F2005F00CFA0C209F
:1021F000012105F008FABDE80840012003F0BEBA4D
:102200002DE9F74F0FF2B809D9E900892EA7D7E9D0
:10221000006700F11803A0F1040A019300210C20CB
:1022200005F0F1F9282002F0EBFF0A2005F004FA8E
:1022300083465AF8040F09F05FF942464B4609F00D
:10224000C5F9044658460D4609F056F932463B4654
:1022500009F0BCF902460B462046294609F000F871
:1022600009F064FCCAF800000B2005F0E5F983468C
:10227000DAF81C0009F040F942464B4609F0A6F98D
:10228000044658460D4609F037F932463B4609F0F8
:102290009DF90B4602462946204608F0E1FF09F069
:1022A00045FC0121CAF81C000C2005F0ACF92820DF
:1022B00002F0A6FF019B9A45B0D103B0BDE8F08FB4
:1022C0009A9999999999C93F9A9999999999E93FB0
:1022D00010B502F0A5FF124C2368C01A092809D9CD
:1022E00002F09EFF20600F48FFF78AFF0D490E485D
:1022F000FFF7D0FE02F094FF0C4C2368C01A0E28A2
:102300000CD902F08DFF0A4B0222206005491868A3
:10231000FFF7F2FC074A13680133136010BD00BFDA
:10232000780E002094000020D4000020700E0020C1
:10233000CC000020680E002070B5084C257855B9F7
:10234000074E3068FEF75AF83068FEF7D1F9294693
:102350000E2005F058F90123237070BDD100002034
:10236000CC00002030B50024A1B001210F2005F0E1
:1023700039F901210C2005F035F9FFF721FF5F4BFA
:1023800001210E201C6005F02DF95D4B1C70FFF73C
:10239000D3FF4FF40770FDF780FE044640B1594B60
:1023A0003A220193584B082100930223FEF74CF880
:1023B000564B574D1C600024564B1C6004F0C0FB6C
:1023C000554B1860554801F0E7FB554B55491AA885
:1023D0001C6003F0A6FE1AA9534802F0C7F81AA819
:1023E00003F055FE504801F0A5FE504B02221C6040
:1023F0004F4B50491C60504B50481C60504B2C6058
:102400001C60234603F0E2F82346022229464D4889
:1024100003F0DCF84C4B22465868214603F006F9DD
:10242000811C1AA803F0ECFC0A229DF86F1006A884
:1024300003F0E5FE06A90AA803F0BDFE43490AA879
:1024400003F012FF04460A229DF86E100EA803F056
:10245000D6FE20460EA903F0FBFE3C4903F004FF24
:1024600004460A229DF86D1012A803F0C8FE20460B
:1024700012A903F0EDFE354903F0F6FE04460A22E8
:102480009DF86C1016A803F0BAFE204616A903F0BA
:10249000DFFE014602A803F08EFE16A803F0F7FD4A
:1024A00012A803F0F4FD0EA803F0F1FD0AA803F052
:1024B000EEFD06A803F0EBFD254B029A1B7825499B
:1024C0008DF8003016A83C2303F0B6FA179C7CB1B7
:1024D0006368013B63605BB9236820469B6898474B
:1024E000A368013BA3601BB923682046DB689847BB
:1024F00002A803F0CCFD21B030BD00BF780E002053
:10250000D1000020D40000203FC90A08CC000020E0
:102510006C0E0020700E002090000020D40E0020D1
:102520007C0E00201DC90A08840E0020740E0020B5
:10253000F40E0020F80E0020800E002022C90A08A8
:10254000680E00202BC90A08D014002035C90A08DB
:10255000D000002037C90A0838B5084C227852B19B
:10256000074D01210E2005F04EF82868FDF746FFC3
:102570002868FEF7BDF80023237038BDD100002085
:10258000CC00002038B5FFF7A3FE002240F2145122
:10259000444BDC6918468C4203DC006804338842F3
:1025A0006EDD414B1B780BB9FFF7C6FE04F0C8FA8D
:1025B0003E4B186004F0C4FA3C4B1B68C01A1E283E
:1025C00004D9394B1B780BB1FFF7C6FF384801F02F
:1025D00035FB012858D1344B1B780BB9FFF7ACFE03
:1025E00002F01EFE334C2368C01A0E2813D902F0E5
:1025F00017FE20602B48FFF703FE2F4B2C481C686A
:1026000001F01EFB274902462046FFF775FB2B4AC7
:1026100013680133136002F003FE294C2368C01ACB
:10262000302834D902F0FCFD2060264802F0E4F89E
:1026300002F0F6FD244C2368C01A30282AD802F094
:10264000EFFD224C224D23680133236002F0E8FDA8
:102650002B68C01A42F20F7398420CD902F0E0FDC9
:1026600022681C4B28601A60144B1B4A19681160C1
:10267000002222601A600120BDE8384003F07EB8D5
:102680000132072A85D195E7FFF766FFC3E702F01D
:10269000C7FDCDE702F0C4FD2060054801F0BEFA99
:1026A000CFE700BF94000020D10000209000002060
:1026B000D40E0020700E0020CC000020680E0020F8
:1026C000740E0020840E00207C0E0020F40E0020EA
:1026D000800E0020F80E00206C0E002070B505461C
:1026E0000C466CB1E1682846FFF7F8FFA66804F1D4
:1026F000100003F0CCFC2046FDF7D3FC3446F0E795
:1027000070BD10B50446403003F0C1FC606B08B1E9
:10271000FDF7C7FC04F11C00616AFFF7DFFF2046EC
:1027200010BD0000012038B5114B124C1870002369
:10273000114D2360A380A371A3F58033A36002F041
:1027400009FF2A460D49204604F0E6FF0C4C0D48CF
:10275000FFF760FB0C4801F01DFA2046FFF7D8FC9C
:102760002A462046BDE83840084904F0D5BF00BFDE
:10277000D0000020840000206C000020FF200A0808
:10278000840E0020D4000020D40E002003270A0865
:1027900038B504460025018001EB410188B2C4E947
:1027A0000255608023716271A57102F0A7FFA060DD
:1027B00018B12946628809F0B7FD204638BD10B52A
:1027C00004460121407904F00DFF60790021BDE845
:1027D000104004F018BF00008368002B00F06F85E4
:1027E000F0B503790446032B87B000F08782042BF1
:1027F00014BF32254FF4FA7502F00AFDE368C01ADF
:10280000A842F9D372B663882179ADF80A30BDF8D1
:102810000A300229A5689BB200F03A81052900F030
:102820006F82002900F0E582032900F04985002B22
:1028300000F028814FF400010026184A0491BDF8E9
:102840000A306079033B9BB2ADF80A302B781768E9
:10285000DBB28DF808306B78C0EBC000DBB28DF8CE
:102860000930AB7807EB800CDBB28DF807309DF8B0
:1028700008E09DF80930BCF804C01B0243EA0E438F
:102880009DF807E057F8200043EA0E030393033551
:102890008DF80660A0F81AC07DE000BFFC0E002095
:1028A000049B5B080493004600BF00BF00BF00BF4D
:1028B00000BF00BF00BF00BF00BF00BF00BF00BF20
:1028C00000BF00BF00BF00BF00BF00BF00BF00BF10
:1028D00000BF00BF00BF00BF00BF00BF00BF00BF00
:1028E00000BF00BF00BF00BF00BF00BF00BF00BFF0
:1028F00000BF00BF00BF00BF00BF00BF00BF00BFE0
:1029000000BF00BF00BF00BF00BF00BF00BF00BFCF
:1029100000BF00BF00BF00BF00BF00BF00BF00BFBF
:1029200000BF00BF00BF00BF00BF00BF60791768D5
:102930009DF80630C0EBC00007EB800CBCF804C06B
:1029400057F820000133DBB28DF80630A0F818C02C
:10295000004600BF00BF00BF00BF00BF00BF00BFF8
:1029600000BF00BF00BF00BF00BF00BF00BF00BF6F
:1029700000BF00BF00BF00BF00BF9DF80630182B8E
:102980007AD063791068C3EBC30300EB8307BF8879
:1029900050F823305F830398049B184280D100468F
:1029A00000BF00BF00BF00BF00BF00BF00BF00BF2F
:1029B00000BF00BF00BF00BF00BF00BF00BF00BF1F
:1029C00063791068C3EBC30300EB8307BF8850F83B
:1029D00023301F839DF806300133DBB28DF80630BB
:1029E000049B5B080493004600BF00BF00BF00BF0C
:1029F00000BF00BF00BF00BF00BF00BF00BF00BFDF
:102A000000BF00BF00BF00BF00BF00BF00BF00BFCE
:102A100000BF00BF00BF00BF00BF00BF00BF00BFBE
:102A200000BF00BF00BF00BF00BF00BF00BF00BFAE
:102A300000BF00BF00BF00BF00BF00BF00BF00BF9E
:102A400000BF00BF00BF00BF00BF00BF00BF00BF8E
:102A500000BF00BF00BF00BF00BF00BF00BF00BF7E
:102A600000BF00BF00BF00BF00BF00BF00BF00BF6E
:102A70009DF80630182B84D1BDF80A309BB2002B8C
:102A80007FF4DCAE62B602F0C3FBE06007B0F0BDDD
:102A9000002BF7D04FF400010026134A0491BDF833
:102AA0000A300335033B9BB2ADF80A3015F8033CFE
:102AB000DBB28DF8073015F8023CDBB28DF8083038
:102AC00015F8013CDBB28DF809309DF807709DF8D0
:102AD00008309DF809001B0243EA074303430393B0
:102AE0008DF8066080E000BFFC0E0020004600BFAD
:102AF00000BF00BF00BF00BF00BF00BF00BF00BFDE
:102B000000BF00BF00BF00BF00BF00BF00BF00BFCD
:102B100000BF00BF00BF00BF00BF00BF00BF00BFBD
:102B200000BF00BF00BF00BF00BF00BF00BF00BFAD
:102B300000BF00BF00BF00BF00BF00BF00BF00BF9D
:102B400000BF00BF00BF00BF00BF00BF00BF00BF8D
:102B500000BF00BF00BF00BF00BF00BF00BF00BF7D
:102B600000BF00BF00BF00BF00BF00BF00BF00BF6D
:102B700000BF00BF00BF00BF00BF00BF00BF00BF5D
:102B800000BF00BF00BF63791068C3EBC30300EB55
:102B90008307BF8850F823305F83004600BF00BF23
:102BA00000BF00BF00BF00BF00BF00BF00BF00BF2D
:102BB00000BF00BF00BF00BF00BF00BF00BF00BF1D
:102BC00000BF00BF00BF00BF00BF00BF00BF00BF0D
:102BD000049B5B0804939DF806300133DBB2172B8E
:102BE0008DF8063000F2838063791068C3EBC3036D
:102BF00000EB8307BF8850F823301F830398049BA2
:102C000018427FF473AF004600BF00BF00BF00BF93
:102C100000BF00BF00BF00BF00BF00BF00BF00BFBC
:102C200000BF00BF00BF00BF00BF00BF00BF63798F
:102C30001068C3EBC30300EB8307BF8850F8233051
:102C40005F83004600BF00BF00BF00BF00BF00BFE2
:102C500000BF00BF00BF00BF00BF00BF00BF00BF7C
:102C600000BF00BF00BF00BF00BF00BF00BF00BF6C
:102C700000BF00BF00BF00BF00BF00BF00BF00BF5C
:102C800000BF00BF00BF00BF00BF00BF00BF00BF4C
:102C900000BF00BF00BF00BF00BF00BF00BF00BF3C
:102CA00000BF00BF00BF00BF00BF00BF00BF00BF2C
:102CB00000BF00BF00BF00BF00BF00BF00BF00BF1C
:102CC00000BF00BF00BF00BF00BF00BF00BF00BF0C
:102CD00000BF00BF00BF00BF00BF00BF00BF00BFFC
:102CE00000BF00BF00BF00BF00BF00BF70E7BDF85E
:102CF0000A309BB2002B7FF4D1AEC3E618257BE5EA
:102D0000002B3FF4BFAE4FF4000E00264E4B196867
:102D10004E4BCDF810E0BDF80A200335033A92B2CD
:102D2000ADF80A2015F8032CD2B28DF8072015F85B
:102D3000022CD2B28DF8082015F8012CD2B28DF8F1
:102D400009209DF807C09DF808209DF8097012021F
:102D500042EA0C423A4303928DF806606279586861
:102D6000C2EBC20201EB8207BF8851F82220059016
:102D70001783039F049A174225D05A68059FD21BD8
:102D80004F2AFAD96279C2EBC20201EB8207BF88EF
:102D900051F8222057835A6805925A68059FD21B22
:102DA000072AFAD9049A520804929DF806200132A3
:102DB000D2B2172A8DF80620D0D9BDF80A2092B2D7
:102DC000002AA6D15EE65A68059FD21B182AFAD9B6
:102DD0006279C2EBC20201EB8207BF8851F8222060
:102DE00057835A6805925A68059FD21B452AFAD91B
:102DF000D8E7002B3FF446AE4FF40006124A049683
:102E0000BDF80A300335033B9BB2ADF80A3015F824
:102E1000033CDBB28DF8083015F8023CDBB28DF8CC
:102E2000073015F8013CDBB28DF809309DF80870C9
:102E30009DF807309DF809001B0243EA074303434E
:102E400003938DF806101AE1FC0E0020001000E03C
:102E5000004600BF00BF00BF00BF00BF00BF00BFF3
:102E600000BF00BF00BF00BF00BF00BF00BF00BF6A
:102E700000BF00BF00BF00BF00BF00BF00BF00BF5A
:102E800000BF00BF00BF00BF00BF00BF00BF00BF4A
:102E900000BF00BF00BF00BF00BF00BF00BF00BF3A
:102EA00000BF00BF00BF00BF00BF00BF00BF00BF2A
:102EB00000BF00BF00BF00BF00BF00BF00BF00BF1A
:102EC00000BF00BF00BF00BF00BF00BF00BF00BF0A
:102ED00000BF00BF00BF00BF00BF00BF00BF00BFFA
:102EE00000BF00BF00BF00BF00BF00BF00BF00BFEA
:102EF00000BF00BF00BF00BF00BF00BF00BF00BFDA
:102F000000BF00BF00BF00BF00BF00BF00BF00BFC9
:102F100000BF00BF00BF00BF00BF00BF00BF00BFB9
:102F200000BF00BF00BF00BF00BF00BF00BF00BFA9
:102F300000BF00BF00BF00BF00BF00BF00BF00BF99
:102F400000BF00BF00BF00BF00BF00BF00BF00BF89
:102F500000BF00BF00BF00BF63791068C3EBC303AD
:102F600000EB8307BF8850F823305F83004600BF23
:102F700000BF00BF00BF00BF00BF00BF00BF00BF59
:102F800000BF00BF00BF00BF00BF00BF00BF00BF49
:102F900000BF00BF00BF00BF00BF00BF00BF00BF39
:102FA00000BF00BF00BF00BF00BF00BF00BF00BF29
:102FB00000BF00BF00BF00BF00BF00BF00BF00BF19
:102FC00000BF00BF00BF00BF00BF00BF00BF00BF09
:102FD00000BF00BF00BF00BF00BF00BF00BF00BFF9
:102FE00000BF00BF00BF00BF00BF00BF00BF00BFE9
:102FF00000BF00BF00BF00BF00BF00BF00BF00BFD9
:1030000000BF00BF00BF00BF00BF00BF00BF00BFC8
:1030100000BF00BF00BF00BF00BF00BF00BF00BFB8
:1030200000BF00BF00BF00BF00BF00BF00BF00BFA8
:1030300000BF00BF00BF00BF00BF00BF00BF00BF98
:1030400000BF00BF00BF00BF00BF00BF00BF00BF88
:1030500000BF00BF00BF00BF00BF00BF00BF00BF78
:1030600000BF00BF00BF049B5B0804939DF80630BF
:103070000133DBB2172B8DF8063000F2188163792B
:103080001068C3EBC30300EB8307BF8850F82330FD
:103090001F830398049B18427FF4DAAE004600BFFA
:1030A00000BF00BF00BF00BF00BF00BF00BF00BF28
:1030B00000BF00BF00BF00BF00BF00BF00BF00BF18
:1030C00000BF00BF00BF00BF00BF00BF00BF00BF08
:1030D00000BF00BF00BF00BF00BF00BF00BF00BFF8
:1030E00000BF00BF00BF00BF00BF00BF00BF6379CB
:1030F0001068C3EBC30300EB8307BF8850F823308D
:103100005F83004600BF00BF00BF00BF00BF00BF1D
:1031100000BF00BF00BF00BF00BF00BF00BF00BFB7
:1031200000BF00BF00BF00BF00BF00BF00BF00BFA7
:1031300000BF00BF00BF00BF00BF00BF00BF00BF97
:1031400000BF00BF00BF00BF00BF00BF00BF00BF87
:1031500000BF00BF00BF00BF00BF00BF00BF00BF77
:1031600000BF00BF00BF00BF00BF00BF00BF00BF67
:1031700000BF00BF00BF00BF00BF00BF00BF00BF57
:1031800000BF00BF00BF00BF00BF00BF00BF00BF47
:1031900000BF00BF00BF00BF00BF00BF00BF00BF37
:1031A00000BF00BF00BF00BF00BF00BF00BF00BF27
:1031B00000BF00BF00BF00BF00BF00BF00BF00BF17
:1031C00000BF00BF00BF00BF00BF00BF00BF00BF07
:1031D00000BF00BF00BF00BF00BF00BF00BF00BFF7
:1031E00000BF00BF00BF00BF00BF00BF00BF00BFE7
:1031F00000BF00BF00BF00BF00BF00BF00BF00BFD7
:1032000000BF00BF00BF00BF00BF00BF00BF00BFC6
:1032100000BF00BF00BF00BF00BF00BF00BF00BFB6
:1032200000BF00BF00BF00BF00BF00BF00BF00BFA6
:1032300000BF00BF00BF00BF00BF00BF00BF00BF96
:1032400000BF00BF00BF00BF00BF00BF00BF00BF86
:1032500000BF00BF00BF00BF00BF00BF00BF00BF76
:1032600000BF00BF00BF00BF00BF00BF00BF00BF66
:1032700000BF00BF00BF00BF00BF00BF00BF00BF56
:1032800000BF00BF00BF00BF00BF00BF00BF00BF46
:1032900000BF00BF00BF00BF00BF00BF00BF00BF36
:1032A00000BF00BF00BF00BF00BF00BFDBE6BDF82E
:1032B0000A309BB2002B7FF4A2ADFFF7E3BB70474F
:1032C000002B3FF4DFAB4FF400010026124A0491BB
:1032D000BDF80A300335033B9BB2ADF80A3015F850
:1032E000033CDBB28DF8083015F8023CDBB28DF8F8
:1032F000073015F8013CDBB28DF809309DF80870F5
:103300009DF807309DF809001B0243EA0743034379
:1033100003938DF80660E0E0FC0E0020004600BF3D
:1033200000BF00BF00BF00BF00BF00BF00BF00BFA5
:1033300000BF00BF00BF00BF00BF00BF00BF00BF95
:1033400000BF00BF00BF00BF00BF00BF00BF00BF85
:1033500000BF00BF00BF00BF00BF00BF00BF00BF75
:1033600000BF00BF00BF00BF00BF00BF00BF00BF65
:1033700000BF00BF00BF00BF00BF00BF00BF00BF55
:1033800000BF00BF00BF00BF00BF00BF00BF00BF45
:1033900000BF00BF00BF00BF00BF00BF00BF00BF35
:1033A00000BF00BF00BF00BF00BF00BF00BF00BF25
:1033B00000BF00BF00BF00BF00BF00BF00BF00BF15
:1033C00000BF00BF00BF00BF00BF00BF00BF00BF05
:1033D00000BF00BF00BF00BF00BF00BF00BF00BFF5
:1033E00000BF00BF00BF00BF00BF00BF00BF00BFE5
:1033F00000BF00BF00BF00BF00BF00BF00BF00BFD5
:1034000000BF00BF00BF00BF00BF00BF00BF00BFC4
:1034100000BF00BF00BF00BF00BF00BF00BF00BFB4
:1034200000BF00BF00BF00BF00BF00BF00BF00BFA4
:1034300000BF00BF00BF00BF00BF00BF00BF637977
:103440001068C3EBC30300EB8307BF8850F8233039
:103450005F83004600BF00BF00BF00BF00BF00BFCA
:1034600000BF00BF00BF00BF00BF00BF00BF00BF64
:1034700000BF00BF00BF00BF00BF00BF00BF00BF54
:1034800000BF00BF00BF00BF00BF00BF00BF00BF44
:1034900000BF00BF00BF00BF00BF00BF00BF00BF34
:1034A00000BF00BF00BF00BF00BF00BF00BF00BF24
:1034B00000BF00BF00BF00BF00BF00BF00BF00BF14
:1034C00000BF049B5B0804939DF806300133DBB218
:1034D000172B8DF8063000F2E38063791068C3EB98
:1034E000C30300EB8307BF8850F823301F83039882
:1034F000049B18427FF412AF004600BF00BF00BF1C
:1035000000BF00BF00BF00BF00BF00BF00BF00BFC3
:1035100000BF00BF00BF00BF00BF00BF00BF00BFB3
:1035200000BF00BF00BF00BF00BF00BF00BF00BFA3
:1035300000BF00BF00BF00BF00BF00BF00BF00BF93
:1035400000BF00BF00BF00BF00BF00BF00BF00BF83
:1035500000BF00BF00BF00BF00BF00BF00BF00BF73
:1035600000BF00BF00BF00BF00BF00BF00BF00BF63
:1035700000BF00BF00BF00BF00BF63791068C3EB8E
:10358000C30300EB8307BF8850F823305F830046F6
:1035900000BF00BF00BF00BF00BF00BF00BF00BF33
:1035A00000BF00BF00BF00BF00BF00BF00BF00BF23
:1035B00000BF00BF00BF00BF00BF00BF00BF00BF13
:1035C00000BF00BF00BF00BF00BF00BF00BF00BF03
:1035D00000BF00BF00BF00BF00BF00BF00BF00BFF3
:1035E00000BF00BF00BF00BF00BF00BF00BF00BFE3
:1035F00000BF00BF00BF00BF00BF00BF00BF00BFD3
:1036000000BF00BF00BF00BF00BF00BF00BF00BFC2
:1036100000BF00BF00BF00BF00BF00BF00BF00BFB2
:1036200000BF00BF00BF00BF00BF00BF00BF00BFA2
:1036300000BF00BF00BF00BF00BF00BF00BF00BF92
:1036400000BF00BF00BF00BF00BF00BF00BF00BF82
:1036500000BF00BF00BF00BF00BF00BF00BF00BF72
:1036600000BF00BF00BF00BF00BF00BF00BF00BF62
:1036700000BF00BF00BF00BF00BF00BF00BF00BF52
:1036800000BF00BF00BF00BF00BF00BF00BF00BF42
:1036900000BF00BF00BF00BF00BF00BF00BF10E7FA
:1036A000BDF80A309BB2002B7FF411AEFFF7EAB9E8
:1036B00070B505889DF810408D4216D985792DB1D9
:1036C0006A436B436C43120A1B0A240A866800791A
:1036D00001EB4101042806EB010507D0052801D0C4
:1036E00002280AD173546A70AC7070BDFE2A28BFDC
:1036F000FE2272546C70AB70F7E772546B70AC7052
:10370000F3E770B503888B421DD98579C2F307436F
:10371000C2F30724D2B23DB16B436C436A43C3F397
:103720000723C4F30724120A8668007901EB4101DC
:10373000042806EB010507D0052801D002280AD18C
:1037400074546B70AA7070BDFE2B28BFFE23735497
:103750006A70AC70F7E773546C70AA70F3E713B536
:1037600003888B4238D98268047901EB41015318F0
:10377000042C515C9A785B7822D0052C01D0022C65
:1037800024D1090241EA0343134301938179A1B192
:103790009DF804209DF806301202B2FBF1F28DF87C
:1037A00004209DF805201B021202B2FBF1F2B3FBCC
:1037B000F1F38DF805208DF80630019802B010BDA8
:1037C000120242EA014213430193DFE71B0243EA7C
:1037D000014313430193D9E70020EFE708B501F057
:1037E00037FD014B186008BDFC0E0020704700003B
:1037F00010B5C3604FF081430361094B0446436138
:10380000029B81618260036201F00AFD039BE0611B
:103810006362049B2046A362059BE36210BD00BF68
:103820000000E8412DE9F843044601F0F9FCE369A2
:10383000C01A236A984226D901F0F2FCA6682169D1
:10384000E061304608F010FAE56861698146206160
:10385000284608F009FA4FF0000807466061414623
:10386000484608F0B1FC80B106F10046C4F810806B
:10387000A6600021384608F0A7FC98B105F1004584
:10388000C4F81480E560BDE8F8834FF082414846F3
:1038900008F0A4FC0028ECD00D4B06F10046236193
:1038A000A660E6E7A669304608F092FA394608F0C5
:1038B000DBF9084908F092FC0028E4D0C6F13A0090
:1038C00008F086FA05F100456061E560DBE700BFBE
:1038D0000000E0400000684208B5006908F0A8FC5C
:1038E00008BD08B5406908F0A3FC08BDC0E909128D
:1038F000C3627047704738B50446A360079B049DB8
:103900006362089B0598A362099B2160E362626081
:103910006561A061E560206101F082FC069BE061C9
:103920002362204638BD00002DE9F84304460D46C9
:1039300001F076FCE369C01A236A984244D901F089
:103940006FFCE061D4F80480D5F8109040464946F9
:1039500008F030FC0027266820B13946A86808F036
:1039600029FC58B94946404608F042FC002838D0A6
:103970000021A86808F03CFC002832D0D4F8088068
:103980006D69206808F024FA414608F06DF929466F
:1039900008F010FCD0B1A36923612169A06808F088
:1039A00063F90546A060304608F012FA294608F08F
:1039B0005BF92B4908F012FC002848D0C6F13A0008
:1039C00008F006FA2761A060BDE8F8832946404662
:1039D00008F00EFC0028E0D0A36903F10043236146
:1039E000DBE706EBD670401008F0F2F9A16808F0AA
:1039F0003BF91C49804608F035F920F00045304677
:103A0000002EB8BFF01C801008F0E2F901462846ED
:103A100008F0EEFBC8B11349404608F0E9FBA56980
:103A20004FF07E5148B1284608F0E2FB18B905F185
:103A300000452561B1E70C4DFBE7284608F0D8FBAF
:103A40000028F6D04FF07E55F3E72761A5E7002167
:103A5000284608F0B9FB0028B6D0A7602761B3E775
:103A6000000068420000E841000080BF08B54068DF
:103A700008F0DEFB08BD08B5806808F0D9FB08BD7A
:103A8000C0E90912C362704738B50D4600220649E5
:103A9000044601F0D9F8022D05D02046BDE8384093
:103AA000024901F00FB838BD49C90A089AC90A0885
:103AB0002DE9F04703298AB004460D46129E50D1E5
:103AC000DFF8C480DFF8C490DFF8C4A0102206AB92
:103AD000009202A9204601F0F8F94146074602A8E3
:103AE00008F08FFC054688B901460A2206A808F0AE
:103AF0004BFD052888BF2846F061002FE6D12046FF
:103B00001D4901F0F3F80AB0BDE8F087494602A864
:103B100008F077FC014698B90A2206A808F034FD9F
:103B2000422808D0A0F14D02162A06D8012393405E
:103B3000124A134201D0F061DFE74D23F361DCE765
:103B4000514602A808F05DFC05460028D5D1014683
:103B50000A2206A808F018FD012888BF2846B0618F
:103B6000CBE70022064901F06FF8012DCBD12046AA
:103B7000044900F0A7FFC6E779C90A080108400018
:103B800049C90A089AC90A0862C90A086DC90A0817
:103B900073C90A087047000030B50446184D89B053
:103BA0002846184900F051FF23462846164A17496F
:103BB00000F04EFF284600F045FF21460023042276
:103BC000134801F003FD0022124B1146586801F022
:103BD0002DFD811C02A802F013F99DF80C3020463F
:103BE00001939DF80D309DF80F2000930A499DF830
:103BF0000E3001F09BFD0123A36109B030BD00BF71
:103C0000000F0020893A0A08B13A0A087AC90A085E
:103C100084C90A08D01400208EC90A084FF48073A2
:103C200000B5C3B0044801AA02A9019301F030FA1B
:103C300043B05DF804FB00BF000F002080697047AF
:103C4000C069704738B5046805467CB16368013BBC
:103C500063605BB9236820469B689847A368013B73
:103C6000A3601BB923682046DB689847284638BD07
:103C700038B50446094B0A4D036085635030FFF7A1
:103C8000E1FF2046074B40F8083F02F04BFEE5619C
:103C900004F13400FFF7D6FF204638BDB0D10A0842
:103CA00034D40A08F4D40A0810B50446FFF7E0FF3C
:103CB00020464FF4A47103F034FD204610BD0000EF
:103CC00010B5064C50222046054900F097FE2046CC
:103CD000BDE81040034A044903F01EBD000F002058
:103CE00076D10A086C000020713C0A0838B5002320
:103CF000C380A3F580330446836008460D4601F077
:103D0000FDFC002808BF00252060A580204638BDA6
:103D10000389C088834234BFC31A1B1A98B2704704
:103D20004FF6FF7342899A4204BF0389438170476B
:103D30004FF6FF7342899A421CBF0281438170474C
:103D4000018170470089704710B500230446238124
:103D50000B6808469B6CA28821689847E08010BDDC
:103D600003890268591C0181D05C704738B505464B
:103D7000FFF7F6FF04462846FFF7F2FF40EA04206B
:103D800080B238BD0389828810B59A4281BF02682B
:103D90005C1C0481D15410BD38B50C46090AFFF7EC
:103DA000F1FFE1B2BDE83840FFF7ECBF38B50C4693
:103DB000090EFFF7E7FFC4F30741FFF7E3FFC4F382
:103DC0000721FFF7DFFFE1B2BDE83840FFF7DABFB8
:103DD00010B504460B680846DB68228921689847BD
:103DE0000023238110BD00230381C38070477047E7
:103DF000012910B5044601D0FF2907D1A06900F0C0
:103E00007DFDE069BDE8104000F082BDC069BDE8FD
:103E1000104000F073BD00002DE9F0471F46154B20
:103E2000002603604FF6FF7304464660838288686D
:103E30000D460130904601F061FCA06088B1AB688E
:103E40000370AB68F1B28B4206F101060BD928462C
:103E5000D4F808A001F1010902F03DFA0AF80900BE
:103E6000EFE76368A3602046C4F810802773BDE8BD
:103E7000F08700BF64D00A08F8B504460D46B4F9CF
:103E800014305A1C16D12846FFF75CFF0027A368A0
:103E9000A0821E780136F6B2FBB2B34206D2A36806
:103EA0002846D95DFFF76EFF0137F5E72469002C3E
:103EB000E5D1F8BD6FEA83436FEA9343284699B290
:103EC000BDE8F840FFF768BF4FF6FF7383820069D3
:103ED0000028FBD1704708B50346007928B118685F
:103EE000FFF716FF003818BF012008BD38B504469B
:103EF0002068FFF735FF2071207900F0C003C02B48
:103F000015D12068FFF704FF0028F5D02068FFF7DF
:103F100027FF25792D0205F47C550543ADB22068B5
:103F2000FFF7FEFE29462068FFF70AFFE0E738BDED
:103F3000002242720122C0E9001182728A6812785E
:103F400002727047A1F16103192B08D84268437AC5
:103F500092682039D05C431A584258417047A1F109
:103F60004103192B05D84268437A92682031D05C0E
:103F7000F1E70020704770B50446807AC8B100228E
:103F8000657A267A6368AE4215D2B3B11B69636065
:103F90009B681B7862722372F2E79A68525D8A42CC
:103FA00004D01B7B4BB92046FFF7CCFF0135A07234
:103FB0006572A07A70BD002BEFD10020F6E72DE9E5
:103FC000F04F83B04B6900AF9B00073323F007032A
:103FD000ADEB030D0E461546E8464FF00009CC68E0
:103FE00001F1040A544514D00C20D4F820B0FCF799
:103FF00054F8034610B15946FFF79AFF5FFA89F269
:10400000204648F8223003F0E5FB09F10109044697
:10401000E8E70820FCF741F8044610B101230560E9
:1040200003712046FFF757FF90B32046FFF75EFF6E
:1040300000238146726903F1010ADBB29A4206D974
:1040400058F823004946FFF796FF5346F2E74FF032
:10405000000A5FFA8AF39945E3D92046FFF73BFF50
:104060000028DED02046FFF741FF00230146726999
:1040700003F1010BDBB29A4207D958F823007960AB
:10408000FFF779FF5B467968F1E70AF1010AE0E79B
:104090002846FFF74DFE2379E3B971698B4219D2A7
:1040A00058F823200133907ADBB20028F6D0156847
:1040B000002DF3D04FF0000972695FFA89F3934243
:1040C0000AD258F8230010B10C2103F02AFB09F1A1
:1040D0000109F1E70025EDE72046082103F021FB67
:1040E00028460C37BD46BDE8F08F00007FB504467A
:1040F0000E4668461946154602F05DF89DF82430D4
:104100006946089A2046FFF787FE684601F0BFFF20
:104110002046034BC4E90665236004B070BD00BFB0
:1041200070D00A0808B502F0C8F8003818BF01209E
:1041300008BD000030B504460F4D89B00022686804
:10414000114601F093FA0028F8D020680022036895
:1041500041F2E9411B6A9847FB232468009300233E
:10416000E0211A4602A801F073FE204602A902F0DF
:1041700039FF012009B030BDD014002038B5044605
:1041800010461546FFF7C4FD0B2817D92846FFF740
:10419000EDFD20802846FFF7E9FD60802846FFF707
:1041A000E5FDA0802846FFF7E1FDE0802846FFF707
:1041B000DDFD20812846FFF7D9FD6081204638BD0E
:1041C0002DE9F041002504462F46466BA36BB0460F
:1041D000B3420FD0306800F094FB08B10137FFB252
:1041E000D8F80000043600F096FB0028EED0013528
:1041F000EDB2EBE7002F34D000216068FFF7CCFD73
:104200004FF404416068FFF7C7FD00216068FFF7C5
:10421000C3FD39466068FFF7BFFD00216068FFF706
:10422000BBFD29466068FFF7B7FD656BA36BAB422A
:1042300009D0286800F065FB18B16168286800F0B3
:1042400075FB0435F2E7656BA36BAB4209D02868B8
:1042500000F061FB18B16168286800F067FB043565
:10426000F2E7A56A04F12006B54207D0286AFFF7F5
:104270002BFE284603F0AEFA0546F5E7656BA36B07
:104280009D4204D055F8040B00F069FBF7E7BDE848
:10429000F08138B50C460025A368E9B28B4213D9EA
:1042A000204602F018F820F02003413BDBB2192B26
:1042B00008D9A0F13003DBB2092B03D92D2801D096
:1042C000002002E00135E7E7012038BDF8B50546DA
:1042D00016461C46071D89B9BA420FD002F11001DB
:1042E00003F11000FFF71EFF3B463246214603F064
:1042F00086FA6B69204601336B61F8BD0120F3E754
:104300002DE9F84F6FF06043D0E900989346A8EB91
:104310000902B3EBA20F07468A464FEAA20402D174
:104320001E4803F0C8FA012C224638BF0122A41807
:10433000A1EB09052FD23CB19C4228BF1C46A0002E
:10434000FBF7ABFE064600E02646EE421CBFDBF85C
:1043500000307351002D04DD2A464946304607F0EF
:10436000C9FFA8EB0A080435B8F1000F354404DD95
:1043700042465146284607F0AFFF4544B9F1000FC9
:1043800002D04846FBF78DFE06EB8404C7E90065C2
:10439000BC60BDE8F88F1C46D1E700BF74D00A08A6
:1043A0000A4610B5D0E90114A142034606D009B16E
:1043B00012680A605A6804325A6010BDFFF7A0FF05
:1043C000FBE72DE9F04104460F46904601208D6839
:1043D0000E1D5DB1404605F11001FFF7A3FE18B1B7
:1043E000AB682E461D46F4E7EB68FAE7A0B1FB6820
:1043F000B34204D1256066602046BDE8F0813046B6
:1044000003F0FBF90546414605F11000FFF78AFE6F
:1044100020B100232360EEE73546F4E7C4E90050FD
:10442000EAE72DE9F8431F460B1D9A4204460E4663
:10443000154610D14B69002B49D008693946103018
:10444000FFF770FE002842D00023236033696360C9
:104450002046BDE8F88302F1100949463846FFF7C7
:1044600061FE8046B8B1F368AB4201D12360EEE74C
:10447000284603F0C2F9394680461030FFF752FE55
:1044800028B3D8F80C301BB92360C4F80480DFE7E8
:1044900025606560DCE739464846FFF743FEE0B13A
:1044A0003369AB4202D1C4F80080D0E7284603F05C
:1044B0007EF9804600F110013846FFF733FE30B137
:1044C000EB680BB92360E4E7C4F80080DDE73A4607
:1044D00031462046FFF775FFBAE7C4E90050B7E759
:1044E0002DE9F34100F1040806460F46444685686D
:1044F00055B1394605F11000FFF714FE10B92C46EE
:10450000AD68F5E7ED68F3E7A0451BD12420FBF784
:10451000C4FD00F1100805463946404601F031FE61
:10452000002322462B62314643466846FFF779FF57
:10453000DDE9004292B9404601F0A9FD2846FBF7AB
:10454000B0FD06E0384604F11001FFF7EBFD00284E
:10455000DCD104F1200002B0BDE8F08121462B46F9
:104560003046FFF7B3FE0446F3E700002DE9F043C1
:1045700004468BB00E4602A8424901F0D2FD04F178
:104580001C09414906A801F0CCFD484606A9FFF7E1
:10459000A7FF056806A801F07AFD002D5CD1B3687D
:1045A0003E2B6AD8314606A801F005FE204606A932
:1045B000FFF76FFE074606A801F069FD002F5CD0EB
:1045C0001420FBF76AFD054608B100F0CDF96561DE
:1045D0001420FBF762FD054608B100F0DDF96369C0
:1045E00004F13408404606A90693FFF7D9FE404679
:1045F00006A90695FFF7D4FE314606A801F0DBFDBB
:104600002020FBF74AFD064640B100230193E368F2
:104610002A460093616906ABFFF768FD06A801F022
:1046200036FD194906A801F07CFD06A94846FFF7AA
:1046300057FF066006A801F02AFD3146606900F0C8
:104640005BF93146284600F057F902A801F01FFD3A
:1046500038460BB0BDE8F0830C4902A801F0BEFD5E
:1046600002A906A801F0A7FD06A902A801F0AEFD67
:1046700006A801F00CFD0027E7E7054906A801F0B0
:1046800050FDF1E71AC90A0876D10A088ED00A0847
:10469000A3D00A082DE9F047074624200D46164608
:1046A0009846FBF7FAFC044605F11001103001F0C2
:1046B00082FD2B6AE96823622B78666023700023F1
:1046C000C4E9023329B1434622463846FFF7E2FFE8
:1046D000E060A1464FF0000AAE68EEB12420FBF77F
:1046E000DCFC054606F11001103001F064FD336A70
:1046F0002B623378C5E902AA2B70C9F80850C5F8B7
:104700000490F16829B143462A463846FFF7C2FFB4
:10471000E860A946B668E0E72046BDE8F0870000FB
:104720002DE9F0478AB001464268044601A8FFF728
:1047300025FDBDF90630002B04DBBDF80880B8F17B
:10474000000F02D10AB0BDE8F0870027DFF8A4907F
:1047500004AE08E0FFF7F6FA09EB000104F14000AF
:1047600001F03CFD0137FBB24345EBDA6068FFF72F
:10477000CFFA0028E6D00023616A05AACDE9072216
:1047800025698DF814300693099399B16B4630462C
:104790000096FFF77FFF03461A469B68002BFBD16C
:1047A000034607921A46DB68002BFBD1236B089265
:1047B00009930690626831462846FFF700FC069987
:1047C00005463046FDF78AFF6068FFF7A1FA032827
:1047D0006068BFD9FFF7CAFA82466068FFF7C6FA79
:1047E0000246002DBED02B68514628461B689847CC
:1047F000B8E700BFB4D00A08F0B50446006800214D
:10480000036889B05B6C984785B265B3D4E9001042
:10481000FFF79AFA20680368DB6998472046FFF79C
:104820007FFF6068FFF7DFFA2046FFF7C9FC60688A
:10483000FFF76EFAB8B12668E021336802A89F6BD3
:10484000FB23009300231A4601F002FB41F2E942E8
:1048500002A93046B847D4E90010FFF7B9FA20683A
:1048600003681B6C9847281E18BF012009B0F0BDD3
:1048700038B50C46054605212046FFF78DFA21463E
:104880006868FFF7F9FA20460021FFF77BFA204617
:104890000121FFF777FA2046BDE838404021FFF7B5
:1048A00071BA000010B50C4686B020460421FFF70F
:1048B00073FA00220F4B1146586800F0B7FE811CB6
:1048C000684601F09DFA20469DF80710FFF75AFA56
:1048D00020469DF80610FFF755FA20469DF8051072
:1048E000FFF750FA20469DF80410FFF74BFA06B088
:1048F00010BD00BFD0140020416070470123037435
:1049000070470346007C10B1987C80F0010070472E
:104910000123437470470346407C30B11A7C1AB9B6
:10492000987C80F0010070470020704770B50D46FC
:1049300004464068FFF7A0FA28462189FFF72CFAC1
:1049400028460121FFF728FA2846E168FFF72EFAEA
:10495000236829462046BDE870401B68184700239D
:104960000382837470470000012202817822C260B2
:10497000002202828274014A02607047F0D00A0865
:104980002F2202817822C260002202828274014AB0
:1049900002607047D8D00A0808B50346FFF7F0FF59
:1049A000014A18461A6008BDE4D00A0810B590F80C
:1049B000443104465A1CD2B20344202A80F84421D0
:1049C00083F8241107D100F59271383001F0B1FC61
:1049D000002384F84431012010BD10B5044603685B
:1049E0009B689847A368013BA3602BB923682046C6
:1049F000BDE81040DB68184710BD000070B5002509
:104A000004460E460D4B114645602A4640F8083BC9
:104A100001F058FF04F1380001F0B0FE084B2046C9
:104A2000C4E92D33666584F87850E56784F81C5135
:104A3000C4F8205184F8445170BD00BFB0D10A08B9
:104A4000454C0A08083001F079BFC0F8B81070472B
:104A500030B590F81C51072D09D80C2404FB05042F
:104A60000135C4E92F1280F81C51C4F8C43030BDA0
:104A700010B590F8442104463AB100F592713830EF
:104A800001F057FC002384F8443110BD70B5044692
:104A90000D461646FFF7ECFF3246294604F1380072
:104AA000BDE8704001F045BC70B505460C468E1857
:104AB000B44206D02B6828469B6814F8011B98471F
:104AC000F6E770BD38B504460D4615F8011B21B157
:104AD000236820469B689847F7E738BD014901F0F5
:104AE00079BA00BF74D10A082DE9F04F1478064650
:104AF000884699468FB024B12F2C40F08880547896
:104B000064B900234146009330464B46D6F8B8407E
:104B1000404AA04701200FB0BDE8F08F3F2C05D1DF
:104B200000240094D0F8B8400232F2E7541C3F2130
:104B3000204607F059FC074690BB204607F08FFC43
:104B400085B2003F18BF01274FF0000B96F81C31CB
:104B5000039306F1BC030493039B5FFA8BF2934229
:104B600024D90C2303FB0BFA049B53F80A100846C4
:104B7000059107F074FC8542059914D12A46204618
:104B800007F075FC78B9B244DAF8C4307A190093AA
:104B900041464B463046DAF8C0702244B847B9E780
:104BA000051BADB2CDE70BF1010BD5E7D6F820011F
:104BB0000028B0D01C2200210DEB020007F0B4FB4E
:104BC000002122460123084604EB050C615506949A
:104BD000944511D912F8011B2F29F9D1591CC9B2DA
:104BE0000DF1380E0EEB8303082902F8010C43F88F
:104BF000202C01D00B46EBE73D4441463046D6F829
:104C00002071CDF80090631906AAB84782E700200A
:104C100081E700BF76D10A0810B504460649FFF7C0
:104C200051FF20460549FFF74DFF2046BDE81040E3
:104C30000349FFF747BF00BFEBD20A0890D10A082B
:104C400006D30A08FFF7E8BF70B504460E461546BE
:104C50000D49FFF737FF20460C49FFF733FF204689
:104C60000B49FFF72FFF3146204601F0B3F92046EC
:104C7000FFF734FF1DB12946204601F0ABF920466D
:104C8000BDE87040FFF72ABFC0D10A0890D10A08DA
:104C9000D2D10A0838B50D46002206490446FFF76E
:104CA000D3FF022D05D02046BDE838400249FFF76A
:104CB00009BF38BDF4D00A0834D30A0838B50D4608
:104CC000074A08490446FFF7BFFF022D06D02046D9
:104CD000BDE83840C6220449FFF7E6BE38BD00BF34
:104CE000FFD00A0821D10A0825D20A0838B504469F
:104CF0000D460B49FFF7E6FE20460A49FFF7E2FEA4
:104D000020460949FFF7DEFE2946204601F062F9F8
:104D10002046FFF7E3FE2046BDE83840FFF7DEBE41
:104D200001D20A0890D10A081AD20A084B1C0ED0E8
:104D300090F87820531CDBB2202B80F8783008BF25
:104D40001F23024482F8581008BF80F8783070475B
:104D5000002310B500F1380480F87830204601F0C7
:104D6000FCFA2046BDE8104001F058BCF8B500F14F
:104D700038070446384601F084FC18B94FF0FF3577
:104D80002846F8BD94F8780020BB00F049FA00F5F9
:104D90007A76384601F099FC0028EFD094F8B330C9
:104DA00013B1E36F002BE9D0384601F040FB431C00
:104DB000054607D094F8B330002BE1D0E36F013BF8
:104DC000E367DDE700F02CFA8642E2D22046FFF7E7
:104DD000BFFFD5E70138C0B284F87800044494F8E6
:104DE0005850CDE770B505460E460C4614F8013B09
:104DF0009BB12846FFF7BAFF14F8013C01468342F5
:104E0000F4D02846FFF792FF013CB44207D0284671
:104E100014F8011DFFF78AFFF7E7012070BD00209D
:104E2000FCE700232DE9F04105460C460B602846BF
:104E3000FFF79CFF2028FAD00928F8D02D2814D19C
:104E40002846FFF793FF012600274FF00A08A0F13C
:104E50003003092B0BD82368012708FB03013039E5
:104E600028462160FFF782FFF1E70026ECE70146C4
:104E70002846FFF75BFF16B123685B422360384684
:104E8000BDE8F08170B50C46154606460021204667
:104E900007F04AFA013D3046FFF768FF2028014637
:104EA000F9D00928F7D0012DC8BF04F8011B3046FE
:104EB000C8BF05F1FF35FFF759FF0D280146F2D1B4
:104EC0003046BDE87040FFF731BF2DE9F3470D468E
:104ED0001C464FF0000A0A9F0021804628461646CD
:104EE00007F022FA3A460021204607F01DFAD14683
:104EF000013E013F4046FFF739FF421C15D02B28E9
:104F00002CD03D2815D0262830D0252820D1404649
:104F1000FFF72CFF82464046FFF728FFBAF1FF3F1C
:104F200001D0431C09D14FF0000A504602B0BDE841
:104F3000F08700264FF0010ADCE78DF8050010220B
:104F4000002101A88DF806908DF804A007F0A2FBBF
:104F5000002E05DD05F8010B013EEBE72020F7E709
:104F6000002FE7DD04F8010B013FE3E74FF0010AF2
:104F7000DBE70000F8B51E461B680C46013B3360BA
:104F800000230B70224905461746FFF72BFF70B12F
:104F90000123237044F601042846FFF7E7FE431C73
:104FA0000E2B28D920282AD100233B70F8BD284693
:104FB0001849FFF717FF08B10223EAE72846164908
:104FC000FFF710FF08B10323E3E728461349FFF773
:104FD00009FF08B10423DCE728461149FFF702FF67
:104FE00008B10523D5E728460E49FFF7FBFE002848
:104FF000DCD00623CDE724FA03F3DB07D4D43368EF
:10500000002BC8BF07F8010B3368013B3360C3E7CF
:105010002ED10A0833D10A0839D10A083FD10A082B
:1050200044D10A084CD10A08F8B500230446154DAE
:10503000154E164F80F8803029462046FFF7D2FEE5
:1050400028B1204604F17C01FFF7EBFEF4E731467E
:105050002046FFF7C7FE30B13322204604F180011D
:10506000FFF710FFE8E739462046FFF7BBFE18B10F
:10507000012384F8B330F8BD2046FFF777FE0130F6
:10508000DAD1F8E753D10A0863D10A0872D10A08C5
:105090002DE9F04304468BB0406D0D46164607F0EF
:1050A000DEF904F10801804603A801F0B7FC049B77
:1050B000099FE363059B04F138092364069B63643D
:1050C000079BA364089BE364236D9F420CD017B138
:1050D0007B6801337B60206D28B14368013B4360EE
:1050E0000BB9FFF77AFC2765324B09A80393FEF74B
:1050F000A9FD484601F0C5FA002839D000232A4608
:1051000084F8B3308DF80C302B702046334603A959
:10511000FFF730FF9DF80C306BB12046FFF784FF9E
:105120002846254907F06DF99DF80C7018BB3946E3
:105130002046FFF7AFFD37689DF80C90FF43FF0F47
:10514000B9F1000F05D042462846616D07F08FF98E
:10515000E0B100232A46009349463B46D4F8B460A8
:105160002046B0472046FFF783FC2046FFF7F0FDBE
:105170000BB0BDE8F0832846104907F042F900283B
:10518000D9D139462046FFF799FDD4E73B46494639
:10519000204605EB0802FFF7A7FC0028E2D13368A0
:1051A0002A46DB43D4F8B4609DF80C100090DB0F66
:1051B000D6E700BF34D40A0877D10A0883D10A0899
:1051C00008B5024B1B68DB69019308BDD0010608D6
:1051D00008B5024B1B685B6C019308BDD001060843
:1051E00008B5024B1B689B6C019308BDD0010608F3
:1051F00008B5024B1B685B68019308BD9C0106085B
:1052000008B5024B1B68DB68019308BD9C010608CA
:1052100008B5024B1B681B69019308BD9C01060879
:1052200008B5024B1B685B69019308BD9C01060829
:1052300008B5024B1B689B6D019308BD9C010608D5
:1052400008B5024B1B685B6E019308BD9C01060804
:1052500008B5024B1B681B68019308BDB001060826
:1052600008B5024B1B685B68019308BDB0010608D6
:1052700008B5024B1B689B68019308BDB001060886
:1052800008B5024B1B68DB68019308BDB001060836
:1052900008B5024B1B681B69019308BDB0010608E5
:1052A00008B5024B1B681B6B019308BDB0010608D3
:1052B00008B5024B1B681B6E019308BDAC010608C4
:1052C00008B5024B1B685B6E019308BDAC01060874
:1052D00008B5024B1B689B6E019308BDAC01060824
:1052E00008B5024B1B68DB6E019308BDAC010608D4
:1052F00008B5024B1B681B6F019308BDAC01060883
:1053000008B5024B1B685B6F019308BDAC01060832
:1053100008B5034B1B68D3F88030019308BD00002B
:10532000AC01060808B5024B1B681B68019308BD59
:10533000BC01060808B5024B1B685B68019308BDF9
:10534000BC01060808B5024B1B689B68019308BDA9
:10535000BC01060808B5024B1B68DB68019308BD59
:10536000BC01060808B5024B1B681B69019308BD08
:10537000BC01060808B5024B1B68DB69019308BD38
:10538000BC01060808B5024B1B681B6A019308BDE7
:10539000BC01060808B5024B1B689B6A019308BD57
:1053A000BC01060808B5024B1B68DB6A019308BD07
:1053B000BC01060808B5024B1B681B6B019308BDB6
:1053C000BC01060808B5024B1B685B6B019308BD66
:1053D000BC01060808B5024B1B68DB6B019308BDD6
:1053E000BC01060808B5024B1B685B6C019308BD45
:1053F000BC01060808B5024B1B689B6C019308BDF5
:10540000BC01060808B5024B1B68DB69019308BDA7
:10541000B401060808B5024B1B681B6A019308BD5E
:10542000B401060808B5024B1B689B69019308BDCF
:10543000C401060808B5024B1B685B6A019308BDEE
:10544000C401060808B5024B1B689B6A019308BD9E
:10545000C401060808B5024B1B68DB6A019308BD4E
:10546000C401060808B5024B1B681B6B019308BDFD
:10547000C401060808B5024B1B685B6B019308BDAD
:10548000C401060808B5024B1B689B6B019308BD5D
:10549000C401060808B5024B1B681B6C019308BDCC
:1054A000C401060808B5024B1B681B68019308BDC0
:1054B000D801060808B5024B1B681B69019308BD9B
:1054C000D801060808B5024B1B685B69019308BD4B
:1054D000D801060808B5024B1B689B69019308BDFB
:1054E000D801060808B5024B1B68DB69019308BDAB
:1054F000D801060808B5024B1B681B6A019308BD5A
:10550000D801060808B5024B1B685B6C019308BD07
:10551000C001060808B5024B1B689B6C019308BDCF
:10552000C001060808B5024B1B685B6B019308BD00
:10553000A801020808B5024B1B681B6D019308BD4A
:10554000A801020808B5024B1B681B68019308BD3F
:10555000A401060808B5024B1B685B68019308BDEF
:10556000A401060808B5024B1B685B69019308BDDE
:10557000A401060808B5024B1B68DB6C019308BD4B
:10558000A401060808B5024B1B685B6D019308BDBA
:10559000A401060808B5024B1B689B6D019308BD6A
:1055A000A401060808B5034B1B68D3F8903001939B
:1055B00008BD0000A401060808B5034B1B68D3F81A
:1055C0009C30019308BD0000A401060808B5024BF9
:1055D0001B681B68019308BDCC01060808B5024B87
:1055E0001B689B68019308BDCC01060808B5024BF7
:1055F0001B685B69019308BDCC01060808B5024B26
:105600001B681B6A019308BDCC01060808B5024B54
:105610001B681B6B019308BDCC01060808B5024B43
:105620001B68DB6B019308BDCC01060808B5024B73
:105630001B681B68019308BDC801060808B5024B2A
:105640001B685B68019308BDC801060808B5024BDA
:105650001B689B68019308BDC801060808B5024B8A
:105660001B68DB68019308BDC801060808B5024B3A
:105670001B681B69019308BDC801060808B5024BE9
:105680001B685B69019308BDC801060808B5024B99
:105690001B689B69019308BDC801060808B5024B49
:1056A0001B68DB69019308BDC801060808B5024BF9
:1056B0001B681B6A019308BDC801060808B5024BA8
:1056C0001B681B6B019308BDC801060808B5024B97
:1056D0001B685B6B019308BDC801060808B5024B47
:1056E0001B681B6C019308BDC801060808B5024B76
:1056F0001B685B6C019308BDC801060808B5024B26
:105700001B681B68019308BDA001060808B5024B81
:105710001B685B68019308BDA001060808B5024B31
:105720001B689B68019308BDA001060808B5024BE1
:105730001B68DB68019308BDA001060808B5024B91
:105740001B68DB6A019308BDA001060808B5024B7F
:105750001B681B6B019308BDA001060808B5024B2E
:105760001B68DB6B019308BDA001060808B5024B5E
:105770001B685B6C019308BDA00106080021FFF7C0
:10578000F1BE10B5836804460BB902F097F8C36800
:105790009847A3681BB1032221462046984720461C
:1057A000BDE81040102101F0BCBF704700207047D9
:1057B00010B50446102101F0B4FF204610BD08B515
:1057C000FFF7F6FF08BD10B58368044613B1032246
:1057D00001469847204610BD002230B54FF69C7414
:1057E000026084808D888C800C68858004600A60EB
:1057F00030BD10B504460068FFF788FF204610BD95
:1058000038B5C468F4B12378022B03D104F10C003D
:10581000FFF7EFFF656835B12846FFF7D4FF102189
:10582000284601F07EFFA56835B12846FFF7CBFF7B
:105830001021284601F075FF2046BDE838401421AC
:1058400001F06FBF38BD0B68036013B15A680132B5
:105850005A60704773B50E46044656F8043B0D4631
:1058600001A831460093FFF7EEFF009B019A2360E9
:105870000023626001A801930093FEF7E3F930462C
:10588000FEF7E0F92846082101F04BFF204602B060
:1058900070BD13B56C460B46024603C884E803008E
:1058A00093E8030082E8030094E8030083E8030020
:1058B00002B010BD826810B50AB901F0FFFFC368DD
:1058C000BDE81040184708B5006800F11001FFF767
:1058D000F1FF08BD826810B50AB901F0EFFFC36897
:1058E000BDE81040184708B5006800F11001FFF747
:1058F000F1FF08BD38B500230446036010200D46B3
:10590000FAF7CBFB28B10123C0E90133024BC56094
:1059100003602060204638BD5CD30A0838B50023F8
:1059200083608B6804460D462BB102229847EB68D2
:10593000E360AB68A360204638BD0000F0B589B0D5
:1059400004686846FFF748FF4FF00203D4E84F2F82
:10595000002A03D1C4E8413F0029F7D125D104F141
:105960000C0569462846FFF737FF0123BFF35B8F1D
:1059700063700020BFF35B8F04F1080353E8006FEE
:1059800043E80002002AF9D1BFF35B8F6EB1FFF745
:10599000F1FD78B129463046FFF78CFF3046FFF71E
:1059A00012FF1021304601F0BCFE6846FFF721FFD0
:1059B00009B0F0BD314602A8FFF7B0FFE068B4F9C6
:1059C000105008B106F030FD06901020ADF81C50C4
:1059D000FAF763FB0546E8B1002787601820FAF75D
:1059E0005CFB044688B10146876002A8FFF751FFBF
:1059F000049BA268A360059B0492E26806A9E36089
:105A000004F110000592FFF7E7FE084B2C60EB60F5
:105A1000074BAB6006A8FFF7ECFE02A8FFF7D3FE2A
:105A2000002229460348FFF7ADFDB7E7C7580A082B
:105A30005D5B0A0883570A082DE9F0478AB00546DE
:105A40000C46174698469DF84890FFF7CFFD07AEE5
:105A5000824638BB4FF62E73059005A93046ADF847
:105A60001830FFF7B9FE1420FAF717FB044648B1C7
:105A7000022303700123C0E901AA437031460C30B0
:105A8000FFF7AAFE2846214640F8044BFFF732FFF5
:105A90003046FFF7AEFE05A8FFF7ABFE28460AB07A
:105AA000BDE8F0870C234FF0000A1420CDE908AAC6
:105AB0000793FAF7F2FA014628B1C0E901AA80F883
:105AC00000A080F801A004A80391FFF713FF224B68
:105AD00008200893FAF7E1FA824628B1039B04A94B
