:02000004080AE8
:1000000000000A0898E00A08000006000600050142
:080010000402BD0B000000001A
:0400180050C80A08BA
:1000200009480A4908B5884205D0094A824202D0E7
:10003000121A0CF025FA0748074A0021121A0CF090
:1000400047FA064808BD00BF0000002004E00A0887
:100050006C0000206C0000202415002024150020D6
:1000600070B507F011FB0025054E064CA41BA40833
:10007000A54200D170BD56F8043B98470135F7E71B
:10008000D4DF0A08FCDF0A0802F04ABA08B502F019
:1000900057FBBDE8084007F0B9BA05F001BC05F010
:1000A000FFBB05F005BC000000210C2008B5024A8A
:1000B00005F00AFBFEE700BFA5530A080078B0FA76
:1000C00080F0400970470123037070472DE9F04F1D
:1000D00092469B460026284F87B0284AF3B2B2F9D1
:1000E0000020934244DA4FF000094FEA8308244B82
:1000F0005FFA89F4B3F9003009F101099C4235DA5D
:100100003B68A4B253F80800214603F0F6FB05460D
:10011000C0F307200BF0C4FA52465B460BF02AFBF3
:100120000BF000FEC3B2C5F3074003930BF0B8FA1F
:1001300052465B460BF01EFB0BF0F4FDC3B204937A
:100140003B68E8B205930BF0ABFA52465B460BF006
:1001500011FB0BF0E7FDDDE90332C0B2009005981A
:10016000214650F8080003F071FBC0E70136B4E700
:1001700007B0BDE8F08F00BF700000207E000020B7
:100180007C0000202DE9F04F4FF0000985B0CDE94B
:100190000223DFF8BCB02C4B5FFA89F4B3F90030CE
:1001A0009C424DDA4FF0000AA400284B5FFA8AF512
:1001B000B3F900300AF1010A9D423EDADBF8003063
:1001C000ADB21859294603F098FB8046C0F30740AA
:1001D0000BF066FADDE902230BF0CCFA0BF07AFDA6
:1001E0000646C8F307200BF05BFADDE902230BF0AB
:1001F000C1FA0BF06FFD07465FFA88F00BF050FA7A
:10020000DDE902230BF0B6FA0BF064FD0F9B9F4271
:10021000B8BF1F460E9B9E42B8BF1E46109BF2B24F
:100220008342B8BF0346DBF80000D9B20091005901
:100230002946FBB203F00AFBB7E709F10109AAE777
:1002400005B0BDE8F08F00BF7E0000207C000020DC
:10025000700000202DE9F74316460024DFF83080B7
:10026000DFF830908D00DFB2B8F90030A3420CDD2A
:100270000A9BD9F80000DBB20093A1B23B4640597B
:10028000F2B203F0E3FA0134EEE703B0BDE8F08325
:100290007C000020700000202DE9F743002402AB11
:1002A00003E906000E4E0F4FB6F90030A34213DDEE
:1002B0000025DFF834904FEA8408B9F90030AB42EA
:1002C00008DD3B68A9B2009A53F8080003F0E7FA8A
:1002D0000135F2E70134E7E703B0BDE8F08300BF82
:1002E0007E000020700000207C00002070B50024FB
:1002F000094E0A4DB6F90030A3420BDD2B6853F8C6
:10030000240002F02AFB2B6853F8240002F032FB91
:100310000134EFE770BD00BF7E00002070000020B8
:100320002DE9F74F0F469046DFF8CCB09DF830200E
:10033000DBF800001C469DF83830414650F8270095
:10034000009301929DF834A003F0D7FA21460646A7
:100350004FF07E500BF05AFD0546C6F307200BF018
:100360000BFE29460BF05CFE814650460BF004FE66
:1003700021460BF055FE014648460BF049FD0CF0B6
:1003800051F85FFA80FAC6F307400BF0F5FD2946F5
:100390000BF046FE019A814610460BF0EDFD21461A
:1003A0000BF03EFE014648460BF032FD0CF03AF8E9
:1003B0005FFA80F9F0B20BF0DFFD29460BF030FE5A
:1003C000009B054618460BF0D7FD21460BF028FE92
:1003D000014628460BF01CFD0CF024F853464A4613
:1003E0004146DBF800B0C0B20C905BF8270003B0C8
:1003F000BDE8F04F03F02ABA700000202DE9F84361
:1004000000240E4E0E4FB6F90030A34213DD002536
:10041000DFF830904FEA8408B9F90030AB4208DDCC
:100420003B68A9B2002253F8080003F038FA0135FE
:10043000F2E70134E7E7BDE8F88300BF7E00002063
:10044000700000207C0000202DE9F04F044697B09A
:1004500000F5CC700D46CDE9082303F019FB04F537
:10046000E47003F015FB04F5FC7003F08DFA964B75
:100470000899964A19806FF060418D422CBF4FF069
:10048000FF3A4FEA850A5046904699461580FFF795
:1004900006FE00266FF0604B8D4F3860B8F90020E3
:1004A000B2420FDDB9F900003B6858452CBF4FF050
:1004B000FF3080000793FFF7F2FD079B43F826000B
:1004C0000136EBE75046FFF7EAFD824B2646002750
:1004D0009A46DFF81892DFF810B21860A4F1040809
:1004E0003BB29D4249DD1020FFF7D7FD079030B1A8
:1004F000209A099BD25DBDF8201002F017FADAF8B5
:100500000030079A1D2143F827200A2005F063FEDA
:100510003A2148F8040F002005F05DFE0BF02CFD99
:100520000A21C8F82800002005F055FE0528CCBF98
:1005300001234FF0FF330A21C8F87830052005F079
:100540004AFE0BF019FD49460BF01EFEC8F850009C
:10055000DBF8000001F0A5FEC6F8A000DBF8000003
:1005600001F0A1FEC6F8A400DBF8000001F09DFE3A
:100570000137C6F8A8000C36B2E70123192532214D
:100580001E226427C4E94632C4E94B514B20C4F80B
:100590004C116FF01D029621C4F82021C4E954715A
:1005A000C4E95B014FF0FF32E1214FF00F0AC4E9CB
:1005B0004D02C4E95D124FF41172C4F83C514FF47E
:1005C00091754FF0C80CC4E95FA22E224FF00008CD
:1005D0004FF00009C4F840511426B9250421C4E99C
:1005E00064C2DFF80CB13C4AC4E95765C4E94983E9
:1005F000C4E95183C4E95983C4F85831C4F88C71F3
:1006000011600AA8C4E961834A465146CDE90477DE
:10061000CDE902A7314BCDF804B0CDF8009004F538
:10062000CC760AAD03F035FA0FCD0FC60FCD0FC64D
:1006300095E80F0086E80F005146284B284ACDF870
:1006400004B0CDF800900AA8CDE90477CDE902A75F
:1006500004F5E47603F01DFA0DF1280CBCE80F0058
:100660000FC6BCE80F000FC695E80F0086E80F0024
:10067000CDE90277CDE900A74FF076520321194B5F
:100680000AA804F5FC770AAE03F080F90FCE0FC775
:100690000FCE0FC795E80F0087E80F00C4F8288237
:1006A00004F090FEC4F85492C4F858022046FFF7B4
:1006B0001DFE2046FFF7A2FE2046219A0A4B1A6033
:1006C00017B0BDE8F08F00BF7C0000207E00002046
:1006D0008000002070000020780000200000E84129
:1006E00000001041CDCC4C3F740000200000704150
:1006F0006666663F002370B5074E084DB6F90020C8
:100700005C1CDBB2934206DA2A6852F8230002F03E
:1007100031F92346F2E770BD7E0000207000002012
:100720002DE9F34100244FF47A770A25DFF8308071
:10073000D8F8006004F046FEB0FBF7F0B0FBF5F32C
:1007400005FB130040230093A1B21A4656F820007F
:10075000013403F07BF83A2CEAD102B0BDE8F08115
:10076000700000202DE9F04F0646054600274FF0A7
:100770007E5A87B0041F6D4BB3F90030BB4240F383
:10078000D180E06A0BF028FEE36F5FFA87F9012B56
:100790001FFA80F840F0918000280BDD002308F15B
:1007A000FF32CDE90133009349465346304692B2B9
:1007B000FFF7B6FD95F8A8306268029395F8A4306B
:1007C0000132019395F8A030424492B24946304636
:1007D00000935346FFF7A4FDD4F87CB058460BF0C5
:1007E000CBFB616D0BF01CFCE16A0BF011FBE062CE
:1007F0000AF068FF804654F8040F89460AF050FF5B
:1008000002460B46CDE904230022494B0AF0B2FF11
:1008100002460B46404649460BF01EFA002866D0B9
:10082000BBF1000F63DA01230A210020A36705F062
:10083000D2FC05281ADD1D210A2005F0CCFC226817
:10084000C30F82420344B8BF02EBD2728046B8BFE6
:1008500052104FEA6300C0F10000BCBFC2EB63035B
:10086000C01A0BF089FBC4F80080A0620A210020A6
:1008700005F0B1FC072809DD0A21052005F0ABFCD5
:100880000BF07AFB2B490BF07FFC2065DFF8B08082
:10089000D8F8000001F005FDC5F8A000D8F8000068
:1008A00001F001FDC5F8A400D8F8000001F0FDFC3E
:1008B000C5F8A80001370C355DE7002810DD95F874
:1008C000A83008F1FF32029395F8A430494601930D
:1008D00095F8A0303046009392B25346FFF720FDC2
:1008E00000236268CDE90133013242446DE7002202
:1008F000DDE90401104B0AF03DFF02460B460020E3
:100900000E490AF07FFD02460B46404649460BF071
:10091000C1F90028CED0BBF1000FCBDD4FF0FF3383
:10092000A367B3E707B0BDE8F08F00BF7E000020EB
:100930000000E0BF000070410000E03F00004D40BB
:10094000740000202DE9F341FFF758FD00244FF417
:100950007A770A25DFF83480D8F800301E5904F081
:1009600031FDB0FBF7F0B0FBF5F1402305FB1101C1
:10097000C1F13A011A463046009389B2043402F0BC
:1009800065FF282CE8D102B0BDE8F081700000209E
:1009900070B5064608460AF083FE04460D4630460A
:1009A0000AF090FE22462B46BDE8704007F002BADE
:1009B0002DE9F04F8FB00C929DF8602081461846CB
:1009C00009920C460AF07EFE02460B464846FFF7A7
:1009D0007DFB099B002B4AD0E369206818440BF08B
:1009E000CBFA4FF07C510BF01BFBB3490BF0CCFB67
:1009F00007F0DEFBB1490BF00BFAB1490BF010FB2D
:100A0000B0490BF00DFB08904FF0000BAE4B5FFAB6
:100A10008BF5B3F900309D4280F2378100230793B4
:100A2000AA4B9DF81CA0B3F900309A4580F22A81A8
:100A3000099B6BB108980BF0F5FCC0B2CDE9010041
:100A400000904FF07C53524629464846FFF768FC19
:100A50009D4BB3F90030082B40F09C80072D00F22D
:100A6000BF80DFE805F0B5078B8D8F91939500234C
:100A70000893C9E7E0680BF07FFA0BF0ADFC0D902E
:100A80000BF07AFA8C490BF07FFB0221FFF780FF15
:100A9000CDE90A0150460AF003FE002207468846C7
:100AA000DDE90A018A4B0AF065FE02460B4638462C
:100AB00041460BF0D1F800285CD00D9B58000AF09D
:100AC000EFFD73A3D3E900230AF054FE72A3D3E928
:100AD00000230AF079FF0BF045F97E4B8046186839
:100AE00001F0DDFB032390FBF3F303EB4303C01A98
:100AF000012877D0022800F0968068BB404607F0B6
:100B00001DF970490BF08CFA0BF066FC059040461D
:100B10000AF0D8FD62A3D3E9002306460F460AF087
:100B200071FC07F0B5F860A3D3E900230AF022FEB8
:100B30000BF0D0F85EA3D3E9002306903046394687
:100B40000AF060FC07F0A4F857A3D3E900230AF0E9
:100B500011FE0BF0BFF80646F3B202939DF8183071
:100B6000524601939DF814302946009348460C9B49
:100B7000FFF7D6FB079B0133079351E760697AE7DC
:100B8000A06978E7606B76E7206B74E7A06A72E78C
:100B9000206A70E70A2B23D1092D21D801A353F82D
:100BA00025F000BFCD0B0A08D10B0A08D50B0A08A7
:100BB000750A0A087D0B0A08890B0A088D0B0A08BA
:100BC000D90B0A08910B0A08DD0B0A08206852E7C6
:100BD000606850E7A0684EE7606A4CE7E0694AE762
:100BE000002048E740460AF06DFD31A3D3E9002319
:100BF00006460F460AF006FC07F04AF82AA3D3E996
:100C000000230AF0B7FD0BF065F80590404607F0A9
:100C100095F82C490BF004FA0BF0DEFB20A3D3E986
:100C2000002306908AE740460AF04CFD1CA3D3E956
:100C3000002306460F460AF0E5FB07F029F81AA341
:100C4000D3E900230AF096FD0BF044F818A3D3E98A
:100C500000230590394630460AF0D4FB07F018F817
:100C600011A3D3E900230AF085FD0BF033F80690B9
:100C7000404607F063F813490BF0D2F90BF0ACFBD8
:100C8000064669E70BF1010BC0E60FB0BDE8F08F37
:100C90007A008BFCFA2109400000000000FEAF4002
:100CA0005100B2FD51C100400000000000E06F4063
:100CB0005100B2FD51C1104000F07F453333333F46
:100CC0000000A04000007F437E0000207C00002048
:100CD00000004D40740000202DE9F04F064689B019
:100CE000184690460C460AF0EDFC924D02460B4623
:100CF0003046FFF7EBF90021286801F0CCFA38B351
:100D000033208D490B68013393FBF0F200FB123363
:100D10000B600023DFF82C92DFF82CA20593874BA1
:100D20009DF81450B3F900309D4280F2FF800027F7
:100D3000DFF804B2814BB3F90030082B62D1072DE4
:100D400000F28680DFE805F07C0B525456585A5C5E
:100D50000121286801F09FFA0028D1D1D9E7E06885
:100D60000BF00AF90BF038FB0BF006F949460BF0D3
:100D70000BFA079038460BF0FFF8079906900846E3
:100D80000BF04EF951460BF04BF9069B0146184605
:100D90000BF0E4FAA8B10C23DBF8000068494343E8
:100DA000C81890F808C0CB5C0079C7F11D0201900B
:100DB0000093294643463046CDF808C092B2FFF76B
:100DC000AFFA01371D2FB5D10027DFF86CB15B4BAF
:100DD000B3F90030082B40F08280072D00F2A48088
:100DE000DFE805F09A3871737577797B6069B7E74A
:100DF000A069B5E7606BB3E7206BB1E7A06AAFE726
:100E0000206AADE70A2B23D1092D21D801A353F87D
:100E100025F000BF3D0E0A08410E0A08450E0A08DB
:100E20005F0D0A08ED0D0A08F90D0A08FD0D0A0804
:100E3000490E0A08010E0A084D0E0A0820688FE7BD
:100E400060688DE7A0688BE7606A89E7E06987E7FB
:100E5000002085E7E0680BF08FF80BF0BDFA0BF08F
:100E60008BF849460BF090F9079038460BF084F860
:100E70000799069008460BF0D3F851460BF0D0F8CE
:100E8000069B014618460BF069FAA8B10C23DBF863
:100E900000002B494343C81890F808C0CB5C007988
:100EA00007F11D0201900093294643463046CDF8D4
:100EB00008C092B2FFF734FA01371D2F87D1059B86
:100EC000013305932BE76069C5E7A069C3E7606B51
:100ED000C1E7206BBFE7A06ABDE7206ABBE70A2B2A
:100EE00022D1092D20D801A353F825F0150F0A08A7
:100EF000190F0A081D0F0A08550E0A08C70E0A081E
:100F0000D30E0A08D70E0A08210F0A08DB0E0A08BA
:100F1000250F0A0820689EE760689CE7A0689AE7AA
:100F2000606A98E7E06996E7002094E709B0BDE8B9
:100F3000F08F00BF74000020780000207E000020A9
:100F400064C80A0800F07F450000E8412DE9F04F31
:100F5000044689B0184690460D460AF0B3FB434E4E
:100F600002460B462046FFF7B1F8306801F097F9CA
:100F7000D4F8283298420DD0306801F090F9C4F8C6
:100F8000280233203A490B68013393FBF0F200FB4F
:100F900012330B602B68E869092618442B6ADFF8C6
:100FA000D0B018446B68002518440AF0E5FF4FF0F4
:100FB0007A510BF035F82F490BF0E6F801460BF0AB
:100FC0002FF82D490BF02CF80AF07CFB00222B4B5C
:100FD0000AF01AFA0AF07EFEDFF8A4900490049B4F
:100FE000C5F1050793FBF7F74FF0000A07EBD7733E
:100FF0005B10C3F11D030593EBB20693BA452CDADF
:101000000C21059B03EB0A02DBF8003092B24B4344
:1010100009EB0301087A19F803300979029001916C
:1010200020460699009343460792FFF779F90C2171
:10103000DBF80030079A4B4309EB0301087A19F8F3
:1010400003300979029001910093314643462046CE
:10105000FFF766F90AF1010AD0E70135013E052DD7
:10106000F6B2BCD109B0BDE8F08F00BF740000201B
:101070007800002000F07F45000068420000E03F5B
:1010800064C80A082DE9F04F044689B0184617468F
:101090000D460AF017FB6C4E02460B462046FFF742
:1010A00015F8306801F0FBF8D4F8283298420DD0DA
:1010B000306801F0F4F8C4F82802332063490B6863
:1010C000013393FBF0F200FB12330B602A68EB69EB
:1010D000696813442A6AE8680A441344A9686A6A7A
:1010E0000A441344AA6A02441344E86A2A69104471
:1010F00003446A69286B10440344AA69686B10446E
:1011000018440AF039FF4FF07C510AF089FF0AF0C9
:10111000D9FA00224E4B0AF02DFB8046D4F8540237
:1011200089460AF0CFFA0022494B0AF023FB0B460E
:101130000246494640460AF067F90AF013FEC4F831
:101140005402054604F03EF9D4F85832C01A232858
:101150002BD904F037F9D4F830324FF07A51C4F873
:101160002C32D4F83432C4F85802C4F83032D4F8EF
:1011700038322846C4F83432D4F83C32C4F8383215
:101180000AF04EFF33490AF0FFFF01460AF048FF1C
:1011900031490AF045FF0AF095FA00222C4B0AF07B
:1011A00033F90AF097FDC4F83C020925002604F53E
:1011B0000B73DFF898B0DFF8A48004934FF00009B8
:1011C000049B53F804AB04930AEBDA735B10C3F18E
:1011D0001D030593F3B20693D1452CDA0C21059B30
:1011E00003EB0902DBF8003092B24B4308EB03013A
:1011F000087A18F80330097902900191204606997F
:1012000000933B460792FFF78BF80C21DBF8003088
:10121000079A4B4308EB0301087A18F80330097961
:1012200002900191009329463B462046FFF778F84B
:1012300009F10109D0E70136013D052EEDB2BDD11E
:1012400009B0BDE8F08F00BF7400002078000020D6
:101250000000E03F00F07F450000684264C80A08D3
:101260002DE9F043054685B018460AF02BFA002414
:101270000B460A210246CDE9014128460094FEF7BB
:1012800081FFDFF870901A4EDFF86C802146D9F8A4
:10129000000001F000F828B3C82333271A46009352
:1012A00021462846FEF7D6FF3368062C03F10103DA
:1012B00093FBF7F207FB1233336013D10C225A432E
:1012C00008EB0203996858F802205B6800912846F1
:1012D0000721FEF7BFFF3368013393FBF7F207FBEB
:1012E000123737600134072CD0D105B0BDE8F08348
:1012F000780000207400002064C80A080000000084
:101300002DE9F04F80468BB0184691460C460AF006
:10131000D9F902460B464046FEF7D8FE0023059356
:101320007F4B9DF81460B3F900309E4280F2E2805A
:101330007C4BDFF8FCB11D88B300013D2DB2089352
:10134000002D25DDADB2DBF80030089A691E9858F3
:1013500089B202F0D2FAC0F30743C0F3072AC7B23A
:101360002A463146404606930093CDE901A74B46F5
:10137000FEF7D6FF069B6A1C009331464B4640465B
:10138000CDE901A792B2023DFEF7CAFF2DB2D7E721
:10139000634BB3F90030082B40F08480072E00F235
:1013A000A780DFE806F09D04737577797B7DE068A0
:1013B0000AF0E2FD0BF010F8054640000AF070F963
:1013C0004FA3D3E900230AF0D5F94FA3D3E90023B3
:1013D0000AF0FAFA0AF0C6FC074628460AF0CCFDE5
:1013E00051490AF0D1FE51490AF01AFE01460AF0AD
:1013F00017FE4E4905460AF0CFFF00B14B4D384667
:101400000AF060F942A3D3E9002382468B4609F033
:10141000F9FF06F03DFCCDE9080128460AF052F933
:101420003DA3D3E90023CDE906015046594609F012
:10143000E9FF06F02DFC824638468B4606F07EFC1E
:10144000014628460AF0ECFD0AF0ECFFC0B2524615
:101450005B460290DDE906010AF08CF90AF062FCB5
:10146000DDE90623C0B20190DDE908010AF082F946
:101470000AF058FCC0B24B4600900022314640466C
:10148000FEF74EFF059B0133059349E760698FE73F
:10149000A0698DE7606B8BE7206B89E7A06A87E71F
:1014A000206A85E70A2B23D1092E21D801A353F8FE
:1014B00026F000BFDD140A08E1140A08E5140A0842
:1014C000AF130A088D140A0899140A089D140A0813
:1014D000E9140A08A1140A08ED140A08206867E74D
:1014E000606865E7A06863E7606A61E7E0695FE7F5
:1014F00000205DE70BB0BDE8F08F00BFAFF30080C8
:101500007A008BFCFA2109400000000000FEAF4089
:101510005100B2FD51C110405100B2FD51C1004017
:101520007E0000207C00002000F07F4500007F430B
:10153000700000202DE9F04F044600F5FC7600F520
:10154000CC7A85B050460F4604F5E479314602F076
:10155000B9FA514D3146484602F0B4FA304602F02D
:101560002FFA286800F09BFED4F8283298421BD04E
:10157000286800F094FE0321C4F82802002004F03B
:101580002AFE00283AD1286800F08BFE80462868A1
:1015900000F089FE8246286800F087FE5246034626
:1015A0004146484602F03AFB2046FEF727FF254613
:1015B00004F1600B4FF0000805F5CC7AD5F89831AE
:1015C000434544DD504602F01FFB8146504602F081
:1015D00020FB95F8C43100EB0802029395F8C03166
:1015E0002046019395F8BC3192B200935FFA89F1DD
:1015F0003B46FEF795FE08F10108DFE702210020D7
:1016000004F0E9FD88B9286800F04BFE80462868A0
:1016100000F049FE8146286800F047FE4A4603462E
:101620004146504602F0FAFABEE7286800F039FE5B
:101630008046286800F037FE8146286800F035FEB5
:101640004A4603464146304602F01EFAACE73035C2
:101650005D45AFD10025D4F81032AB4219DD3046DC
:1016600002F008FA8046304602F009FA94F8243273
:101670004219029394F820322046019394F81C32C8
:1016800092B200935FFA88F13B46FEF749FE0135BE
:10169000E1E705B0BDE8F08F740000202DE9F04FC0
:1016A000054699B018460C4607920AF00BF8261F1B
:1016B00002460B462846FEF709FD374618340DF161
:1016C000280957F8040F0AF057FC8046F8690AF019
:1016D00053FC014640460AF057FDBC4249F8040B52
:1016E000EFD14FF07C59DFF8FC800DF1440A56F839
:1016F000040F0AF041FC0746F0690AF03DFC014680
:1017000038460AF085FB49460AF08AFC41460AF051
:101710003BFDB4424AF8040BE9D100272E4B5FFA97
:1017200087F9B3F90030994553DA4FF000082B4B95
:101730005FFA88FAB3F90040274BA245B3F90000DD
:1017400045DA99FBF0F00AF017FC83469AFBF4F0B7
:101750000AF012FC014623980AF016FD0024002628
:101760000AAA069011AB059253F8042B5946CDE90D
:101770000823059B013453F8040BE4B205930AF0E7
:1017800045FB20F0004122980AF0FEFC06990AF081
:101790003FFB089A11460AF043FC014630460AF026
:1017A00037FB072C0646099BDED10D490AF038FCB1
:1017B0000AF038FEC0B2CDE9010000905246494619
:1017C0002846079BFEF7ACFD08F10108AFE701379B
:1017D000A4E719B0BDE8F08F7E0000207C00002057
:1017E00000007F4300F07F452DE9F04F8DB005905C
:1017F00018460A920C4609F065FF02460B4605980A
:10180000FEF764FC4FF00009B64B5FFA89F7B3F9B5
:10181000003003EBD373B7EB630F4FEA63056FDA66
:1018200000254FF00A080695B5FBF8F354F823009D
:101830000AF0A2FB0AF0D0FD0AF09EFBAA490AF0CA
:10184000A3FC0221FFF7A4F802460B463846CDE977
:10185000082309F025FFA34B8246B3F900008B460D
:1018600000EBD070401009F01BFFDDE9082309F000
:1018700081FF02460B46504659460AF0EDF968B919
:10188000069B0A350133B3FBF8F208FB1233EDB2C5
:101890003C2D0693C8D109F10109B5E7BDF81860E0
:1018A00006F164039BB20893F9438E4BB3F900A091
:1018B0008E4B0AEBDA7A186801EB6A0A00F0F1FC49
:1018C0008A4B8346186800F0EEFC884B0B90186832
:1018D00000F0EBFC0B9BC0B20290DBB25FFA8BF026
:1018E0005FFA8AFA3246019300900A9B51460598A6
:1018F000FEF716FD0A36089BB6B2B342D4D1BFE755
:10190000DFF8E881EDB2774BB3F900309D426BDA36
:1019100000264FF00A093746B6FBF9F304EB8303C0
:10192000D8690AF029FB6F4B8246B3F9003003EB0C
:10193000D373A5EB630009F0B3FECDE90601504671
:101940000AF04AFD0AF018FB67490AF01DFC022163
:10195000FFF71EF882468B46624BB3F9000000EB9E
:10196000D070401009F09CFE52465B4609F002FF21
:1019700002460B46DDE906010AF06EF958B9013757
:10198000B7FBF9F30A36F6B23C2E09FB1377C3D145
:101990000135EDB2B7E71FFA87FB0BF1640A1FFAB6
:1019A0008AFAD8F8000000F07CFC0890D8F8000013
:1019B00000F079FC0690D8F8000000F076FC06995B
:1019C000089BC0B2C9B2DBB25A46029001910093A3
:1019D00029460A9B0598FEF7A3FC0BF10A021FFAA1
:1019E00082FBDA45DDD1CAE74FF0000BDFF8F88063
:1019F000DFF800913B4B5FFA8BF5B3F900309D4265
:101A000080F221814FF0000A364BB3F90030082BE9
:101A100078D1072D00F29C80DFE805F092045D5F2D
:101A2000616E7072E0680AF0A7FA0AF0D5FC0AF05D
:101A3000A3FA41460AF0A8FB0221FEF7A9FF0646D9
:101A400050460F4609F02CFE0022CDE90601284B36
:101A50003046394609F08EFE02460B46DDE90601A6
:101A60000AF0FAF8E8B1214E306800F01AFC06904E
:101A7000306800F018FC0746306800F016FC069B42
:101A8000C043DE43FF43C0B2CAF11D02FFB2F6B24B
:101A900002904B46294605980197009692B2FEF7B0
:101AA0003FFC0AF1010ABAF10E0FADD14FF01D0A49
:101AB0000C4BBAF12C0FB3F9003000F0C180082BA9
:101AC00040F09680072D00F2B980DFE805F0AF43C3
:101AD0008587898B8D8F6069A5E7A069A3E7606B17
:101AE000A1E700BF7E00002000F07F4574000020C9
:101AF00000003D403333733F206B94E7A06A92E7C8
:101B0000206A90E70A2B23D1092D21D801A353F88D
:101B100025F000BF3D1B0A08411B0A08451B0A08A7
:101B2000251A0A08D71A0A08F91A0A08FD1A0A0813
:101B3000491B0A08011B0A084D1B0A08206872E7A6
:101B4000606870E7A0686EE7606A6CE7E0696AE762
:101B5000002068E7E0680AF00FFA0AF03DFC0AF09E
:101B60000BFA41460AF010FB0221FEF711FF064670
:101B7000AAF11D000F4609F093FD0022CDE90601F0
:101B8000324B3046394609F0F5FD02460B46DDE999
:101B900006010AF061F8E0B12D4E306800F081FBDB
:101BA0000690306800F07FFB0746306800F07DFB50
:101BB000069BC043DE43FF43C0B2FFB2F6B20290C1
:101BC0004B4629460598019700961FFA8AF2FEF7C0
:101BD000A7FB0AF1010A6BE76069BCE7A069BAE7F5
:101BE000606BB8E7206BB6E7A06AB4E7206AB2E79B
:101BF0000A2B23D1092D21D801A353F825F000BFCA
:101C0000291C0A082D1C0A08311C0A08551B0A0841
:101C1000D91B0A08E51B0A08E91B0A08351C0A0833
:101C2000ED1B0A08391C0A08206894E7606892E7EF
:101C3000A06890E7606A8EE7E0698CE700208AE799
:101C40000BF1010BD6E60DB0BDE8F08F00003D4072
:101C50007400002000232DE9F047054686B0049368
:101C6000ADF814308DF8163006AB13E90600FEF718
:101C700013FB2C4601263A27DFF8149105F1800862
:101C80004FF0000AD4F81C31534521DDD4F820214F
:101C90002846524492FBF7F101F001030029B8BF36
:101CA0005B42012B94F8343107FB1122029394F824
:101CB000303108BFC2F14502019394F82C3192B241
:101CC0000093C9B24B46FEF72BFB0AF1010AD9E794
:101CD000B6B10A21002004F07EFA072810DD2A4E52
:101CE000306800F0DEFAC4F82C01306800F0DBFA4E
:101CF000C4F83001306800F0D8FA0026C4F8340186
:101D0000D4F82431D4F8282101339342C4F8243183
:101D1000D4F8182107DB0023C4F82431D4F820318B
:101D20001344C4F82031002A0DDDD4F81C31D4F856
:101D3000202103F511739A420DDC2034A0459FD178
:101D400006B0BDE8F087F8D0D4F81C31D4F82021D3
:101D50005B429A42F1DA0A21002004F03CFA322177
:101D60000A4A1368184490FBF1F301FB130010605A
:101D7000D4F81831002BD2BF4FF41173D4F81C31B2
:101D80005B42C4F82031D8E77400002078000020BE
:101D90003333733F000000002DE9F74F0C468346B4
:101DA00003F010FB0AF0E4F83D490AF0EDF94FF0BA
:101DB0007E5106F09DF901460AF02AF809F082FCEE
:101DC0002FA3D3E9002309F0D5FC09F0CBFF05468A
:101DD00005F0B4FF33490AF023F921460AF020F94F
:101DE0000AF020FB5FFA80FA284609F06BFC26A374
:101DF000D3E9002306460F4609F004FB05F048FF2F
:101E000080462046894609F05DFC21A3D3E90023E2
:101E100004460D464046494609F0ACFC22462B4696
:101E200009F0A8FC09F07EFF1BA3D3E900235FFAA9
:101E300080F83946304609F0E5FA05F029FF14A389
:101E4000D3E9002309F096FC22462B4609F092FCC8
:101E500009F068FF4FEA0823C0B243EA0A4303438C
:101E60008DF80600584600938DF804A08DF8058083
:101E700002AB13E9060003B0BDE8F04FFEF70CBA61
:101E80007A008BFCFA2109405100B2FD51C100409B
:101E90000000000000E06F405100B2FD51C1104051
:101EA00000401C4600007F43092A1FB504460BDC96
:101EB000002A10DB013A082A1ED8DFE802F0243994
:101EC000434D52343F292E004E2A53D00DDC422A76
:101ED00058D04D2A4BD0334B186800F0D3F9204628
:101EE00004B0BDE81040FEF705BC582A47D0632A6D
:101EF000F1D1FEF727FDEEE700232B4A00932B4B91
:101F0000FEF756FDE7E7294B274AFEF7E5FEE2E735
:101F1000274B254AFFF71AF8DDE74FF07D53224A99
:101F2000FFF7B0F8D7E7234B1F4AFFF799F9D2E73D
:101F30004FF07C52204BFFF7E3F9CCE71E49FFF747
:101F4000F9FAC8E71D4B184A01934FF07E530093EE
:101F5000174BFFF7A3FBBEE7154B134AFFF744FCF3
:101F6000B9E74FF07A51164AFFF716FFB3E7FEF7CD
:101F7000F9FBB0E74FF07D51FFF76CFEABE7FEF7E2
:101F8000CFFBA8E70F4B029349F2C863ADF80C30C2
:101F900064238DF80E3004AB13E90600FEF77CF9DC
:101FA00099E700BF740000209A99193E9A99593F09
:101FB000CDCC4C3F6666663F3D0A773F0000A041AE
:101FC000000020416496C8000322002342610022E1
:101FD000C0E90133C0E90333C0E9073330B50380FA
:101FE0008370C0F88C2DC0F8902D00F53A6100F692
:101FF000D83400F6BC3541F8042B8A61A94204F8B4
:10200000013BA371F7D130BD2DE9F047036A02EB24
:1020100082051D4400EB820800EB850507460E464D
:10202000D8F8BC0BD5F8141B14464FEA820A09F005
:10203000EDFEC8F8BC0B814656F82400B24440437C
:10204000401009F099FF0646C5F8140BDAF81C0099
:102050004043401009F090FF314609F0D9FE064692
:102060000146C5F8140B484609F0D2FE6425244900
:10207000C8F8BC0B0AF088F8FB69814605FB0435FB
:1020800007EB8505696AD8F8A00B09F0BFFE6E6200
:102090000146304609F0BCFE1A49C8F8A00B0AF008
:1020A00073F83C4494F8D83B0546D3B9484609F048
:1020B00009FB064628460F4609F004FB0EA3D3E9A8
:1020C000002309F057FB02460B463046394609F01B
:1020D000E1FD20B1012384F8D83B84F8DF3BBDE863
:1020E000F087014648460AF039F90028F7D0002366
:1020F00084F8D83BF3E700BF9A9999999999F93FE9
:102100000000A0400000C8422DE9F041066A0446E4
:1021100000EB86060D46D0F8900DD6F8781D09F034
:1021200075FEC4F8900DEB6907465B43286800FB19
:102130000030801009F020FF8046C6F8780D2B6A29
:1021400068685B4300FB0030801009F015FF4146D2
:1021500009F05EFE05460146C6F8780D384609F0DE
:1021600057FEE769C4F8900D04EB8707D7F8E81B22
:102170000646D4F88C0D09F049FEC7F8E85B014625
:10218000284609F045FE2C490546C4F88C0D30461A
:1021900009F0FAFF09F096FA06460F462846274945
:1021A00009F0F2FF09F08EFA237883BB20A3D3E96C
:1021B000002309F0DFFA32463B4609F04DFD20B31B
:1021C00023696169013393FBF1F2236101FB12334F
:1021D0001BB9A37883F00103A370FF26D4E9015350
:1021E0002B4493FBF6F2C2EB02229B1AC4E9025382
:1021F000304603F0E5FF054495FBF6F640F2011387
:10220000C6EB0626AD1B65602380BDE8F0814FF06C
:1022100033320B4B09F0AEFA32463B4609F03AFD39
:102220000028F2D000232370EFE700BFAFF3008057
:10223000666666666666F63F0000A0400000C8421B
:102240003333F33F70B504460E460025FFF75CFFBD
:102250002A46314620460135FFF7D6FE072DF7D135
:102260006421E369013393FBF1F201FB1233052290
:10227000E361236A013393FBF2F202EB82029B1AC1
:10228000236270BD0023437080F8DF3BC0F8E03B61
:10229000A0F8E43B7047084490F8DF0B70470069F2
:1022A00070474068704780687047C068704710B5D5
:1022B0000446006808B103F0FBFA204610BD000098
:1022C00030B5044685B04C20FDF7E7FE054608B161
:1022D00004F0B8FE25600C20FDF7DFFE054618B1BE
:1022E0004FF4007101F0D4FD1E496560684603F0AB
:1022F000EAFF1820FDF7D1FE054620B1002369460C
:102300001A4601F05BFEA560684603F092FF16498D
:10231000684603F0D8FF1820FDF7BFFE054620B140
:1023200000236946A26801F049FE6846E56003F0B3
:1023300080FF0120FDF7B1FE002304F1200220619F
:10234000C4E90932C4E90B23C4E90D33074984F811
:102350002030E36304F1400003F0B5FF204605B0F0
:1023600030BD00BF3ED30A08BCCA0A08C2CA0A0868
:1023700008B501210F2005F018FA01210C2005F005
:1023800014FA012003F0CCFA00210C2005F00DFA1C
:10239000012003F0C5FA00210F2005F006FA0C20F9
:1023A000012105F002FABDE80840012003F0B8BAA7
:1023B0002DE9F74F0FF2B809D9E900892EA7D7E91F
:1023C000006700F11803A0F1040A019300210C201A
:1023D00005F0EBF9282002F0E5FF0A2005F0FEF9F0
:1023E00083465AF8040F09F05BF942464B4609F060
:1023F000C1F9044658460D4609F052F932463B46AB
:1024000009F0B8F902460B462046294608F0FCFFC1
:1024100009F060FCCAF800000B2005F0DFF98346E4
:10242000DAF81C0009F03CF942464B4609F0A2F9E3
:10243000044658460D4609F033F932463B4609F04A
:1024400099F90B4602462946204608F0DDFF09F0BF
:1024500041FC0121CAF81C000C2005F0A6F9282037
:1024600002F0A0FF019B9A45B0D103B0BDE8F08F08
:102470009A9999999999C93F9A9999999999E93FFE
:1024800010B502F09FFF144C2368C01A092809D91F
:1024900002F098FF20601148FFF78AFF0F491048AB
:1024A000FFF7D0FE02F08EFF0E4C2368C01A0E28F4
:1024B00010D902F087FF0C4B20600C481C6801F01B
:1024C00091FC064902462046FFF7EEFC084A1368D5
:1024D0000133136010BD00BF780E0020940000206F
:1024E000D4000020700E0020CC000020D40E00206C
:1024F000680E002070B5084C257855B9074E306835
:10250000FDF77CFF3068FEF7F5F829460E2005F050
:102510004CF90123237070BDD1000020CC000020B5
:1025200030B50024A1B001210F2005F02DF90121C3
:102530000C2005F029F9FFF71BFF5F4B01210E204E
:102540001C6005F021F95D4B1C70FFF7D3FF4FF4C1
:102550001770FDF7A2FD044640B1594B3A22019392
:10256000584B0A2100930223FDF76EFF564B574D3F
:102570001C600024564B1C6004F0B4FB554B1860E3
:10258000554801F0DBFB554B55491AA81C6003F078
:102590009AFE1AA9534802F0BBF81AA803F049FEA4
:1025A000504801F099FE504B02221C604F4B50499D
:1025B0001C60504B50481C60504B2C601C602346E4
:1025C00003F0D6F82346022229464D4803F0D0F8FE
:1025D0004C4B22465868214603F0FAF8811C1AA891
:1025E00003F0E0FC0A229DF86F1006A803F0D9FE64
:1025F00006A90AA803F0B1FE43490AA803F006FFA2
:1026000004460A229DF86E100EA803F0CAFE20466A
:102610000EA903F0EFFE3C4903F0F8FE04460A223F
:102620009DF86D1012A803F0BCFE204612A903F01D
:10263000E1FE354903F0EAFE04460A229DF86C10DB
:1026400016A803F0AEFE204616A903F0D3FE0146FD
:1026500002A803F082FE16A803F0EBFD12A803F017
:10266000E8FD0EA803F0E5FD0AA803F0E2FD06A8C8
:1026700003F0DFFD254B029A1B7825498DF80030C9
:1026800016A83C2303F0AAFA179C7CB16368013BAF
:1026900063605BB9236820469B689847A368013B49
:1026A000A3601BB923682046DB68984702A803F0A3
:1026B000C0FD21B030BD00BF780E0020D100002049
:1026C000D4000020E7CA0A08CC0000206C0E0020CD
:1026D000700E002090000020D40E00207C0E002000
:1026E000C5CA0A08840E0020740E0020F40E0020D3
:1026F000F80E0020800E0020CACA0A08680E0020CA
:10270000D3CA0A08D0140020DDCA0A08D00000206D
:10271000DFCA0A0838B5084C227852B1074D0121AA
:102720000E2005F042F82868FDF768FE2868FDF7DE
:10273000E1FF0023237038BDD1000020CC00002031
:1027400038B5FFF79DFE002240F214513D4BDC6985
:1027500018468C4203DC00680433884260DD3A4B43
:102760001B780BB9FFF7C6FE04F0BCFA374B1860B4
:1027700004F0B8FA354B1B68C01A1E2804D9324B36
:102780001B780BB1FFF7C6FF314801F029FB012888
:102790004AD12D4B1B780BB9FFF7ACFE02F012FEAD
:1027A0002C4C2368C01A0E2805D902F00BFE2060BD
:1027B0002448FFF7FDFD02F005FE274C2368C01AF0
:1027C000302834D902F0FEFD2060244802F0E6F8FB
:1027D00002F0F8FD224C2368C01A30282AD802F0F3
:1027E000F1FD204C204D23680133236002F0EAFD07
:1027F0002B68C01A42F20F7398420CD902F0E2FD26
:1028000022681A4B28601A60194B1A4A196811601D
:10281000002222601A600120BDE8384003F080B831
:102820000132072A93D1A3E7FFF774FFC3E702F051
:10283000C9FDCDE702F0C6FD2060054801F0C0FAF1
:10284000CFE700BF94000020D100002090000020BE
:10285000D40E0020700E0020740E0020840E002084
:102860007C0E0020F40E0020800E0020F80E0020C8
:10287000680E00206C0E002070B505460C466CB149
:10288000E1682846FFF7F8FFA66804F1100003F09E
:10289000D0FC2046FDF705FC3446F0E770BD10B5CE
:1028A0000446403003F0C5FC606B08B1FDF7F9FB4E
:1028B00004F11C00616AFFF7DFFF204610BD000035
:1028C000012038B5114B124C18700023114D2360B4
:1028D000A380A371A3F58033A36002F00DFF2A4605
:1028E0000D49204604F0EAFF0C4C0D48FFF76CFB45
:1028F0000C4801F021FA2046FFF7E2FC2A46204668
:10290000BDE83840084904F0D9BF00BFD00000201E
:10291000840000206C000020AF220A08840E0020F2
:10292000D4000020D40E00209F280A0838B50446A1
:102930000025018001EB410188B2C4E902556080A5
:1029400023716271A57102F0ABFFA06018B1294636
:10295000628809F0BDFD204638BD10B5044601214E
:10296000407904F011FF60790021BDE8104004F0C7
:102970001CBF00008368002B00F06F85F0B5037961
:102980000446032B87B000F08782042B14BF322546
:102990004FF4FA7502F00EFDE368C01AA842F9D3AD
:1029A00072B663882179ADF80A30BDF80A30022981
:1029B000A5689BB200F03A81052900F06F820029DA
:1029C00000F0E582032900F04985002B00F0288102
:1029D0004FF400010026184A0491BDF80A306079CE
:1029E000033B9BB2ADF80A302B781768DBB28DF849
:1029F00008306B78C0EBC000DBB28DF80930AB78E3
:102A000007EB800CDBB28DF807309DF808E09DF8ED
:102A10000930BCF804C01B0243EA0E439DF807E0EE
:102A200057F8200043EA0E03039303358DF8066040
:102A3000A0F81AC07DE000BFFC0E0020049B5B08DC
:102A40000493004600BF00BF00BF00BF00BF00BF2F
:102A500000BF00BF00BF00BF00BF00BF00BF00BF7E
:102A600000BF00BF00BF00BF00BF00BF00BF00BF6E
:102A700000BF00BF00BF00BF00BF00BF00BF00BF5E
:102A800000BF00BF00BF00BF00BF00BF00BF00BF4E
:102A900000BF00BF00BF00BF00BF00BF00BF00BF3E
:102AA00000BF00BF00BF00BF00BF00BF00BF00BF2E
:102AB00000BF00BF00BF00BF00BF00BF00BF00BF1E
:102AC00000BF00BF00BF00BF607917689DF80630E7
:102AD000C0EBC00007EB800CBCF804C057F8200026
:102AE0000133DBB28DF80630A0F818C0004600BFF5
:102AF00000BF00BF00BF00BF00BF00BF00BF00BFDE
:102B000000BF00BF00BF00BF00BF00BF00BF00BFCD
:102B100000BF00BF00BF9DF80630182B7AD0637944
:102B20001068C3EBC30300EB8307BF8850F8233062
:102B30005F830398049B184280D1004600BF00BF0A
:102B400000BF00BF00BF00BF00BF00BF00BF00BF8D
:102B500000BF00BF00BF00BF00BF00BF63791068A7
:102B6000C3EBC30300EB8307BF8850F823301F83F8
:102B70009DF806300133DBB28DF80630049B5B080C
:102B80000493004600BF00BF00BF00BF00BF00BFEE
:102B900000BF00BF00BF00BF00BF00BF00BF00BF3D
:102BA00000BF00BF00BF00BF00BF00BF00BF00BF2D
:102BB00000BF00BF00BF00BF00BF00BF00BF00BF1D
:102BC00000BF00BF00BF00BF00BF00BF00BF00BF0D
:102BD00000BF00BF00BF00BF00BF00BF00BF00BFFD
:102BE00000BF00BF00BF00BF00BF00BF00BF00BFED
:102BF00000BF00BF00BF00BF00BF00BF00BF00BFDD
:102C000000BF00BF00BF00BF00BF00BF9DF806307F
:102C1000182B84D1BDF80A309BB2002B7FF4DCAEB8
:102C200062B602F0C7FBE06007B0F0BD002BF7D042
:102C30004FF400010026134A0491BDF80A30033511
:102C4000033B9BB2ADF80A3015F8033CDBB28DF8BC
:102C5000073015F8023CDBB28DF8083015F8013C5E
:102C6000DBB28DF809309DF807709DF808309DF8AB
:102C700009001B0243EA0743034303938DF80660F0
:102C800080E000BFFC0E0020004600BF00BF00BF78
:102C900000BF00BF00BF00BF00BF00BF00BF00BF3C
:102CA00000BF00BF00BF00BF00BF00BF00BF00BF2C
:102CB00000BF00BF00BF00BF00BF00BF00BF00BF1C
:102CC00000BF00BF00BF00BF00BF00BF00BF00BF0C
:102CD00000BF00BF00BF00BF00BF00BF00BF00BFFC
:102CE00000BF00BF00BF00BF00BF00BF00BF00BFEC
:102CF00000BF00BF00BF00BF00BF00BF00BF00BFDC
:102D000000BF00BF00BF00BF00BF00BF00BF00BFCB
:102D100000BF00BF00BF00BF00BF00BF00BF00BFBB
:102D200000BF63791068C3EBC30300EB8307BF8860
:102D300050F823305F83004600BF00BF00BF00BFD4
:102D400000BF00BF00BF00BF00BF00BF00BF00BF8B
:102D500000BF00BF00BF00BF00BF00BF00BF00BF7B
:102D600000BF00BF00BF00BF00BF00BF049B5B08E7
:102D700004939DF806300133DBB2172B8DF8063033
:102D800000F2838063791068C3EBC30300EB830711
:102D9000BF8850F823301F830398049B18427FF4A8
:102DA00073AF004600BF00BF00BF00BF00BF00BF41
:102DB00000BF00BF00BF00BF00BF00BF00BF00BF1B
:102DC00000BF00BF00BF00BF00BF63791068C3EB46
:102DD000C30300EB8307BF8850F823305F830046AE
:102DE00000BF00BF00BF00BF00BF00BF00BF00BFEB
:102DF00000BF00BF00BF00BF00BF00BF00BF00BFDB
:102E000000BF00BF00BF00BF00BF00BF00BF00BFCA
:102E100000BF00BF00BF00BF00BF00BF00BF00BFBA
:102E200000BF00BF00BF00BF00BF00BF00BF00BFAA
:102E300000BF00BF00BF00BF00BF00BF00BF00BF9A
:102E400000BF00BF00BF00BF00BF00BF00BF00BF8A
:102E500000BF00BF00BF00BF00BF00BF00BF00BF7A
:102E600000BF00BF00BF00BF00BF00BF00BF00BF6A
:102E700000BF00BF00BF00BF00BF00BF00BF00BF5A
:102E800000BF00BF00BF00BF70E7BDF80A309BB2B3
:102E9000002B7FF4D1AEC3E618257BE5002B3FF471
:102EA000BFAE4FF4000E00264E4B19684E4BCDF8C6
:102EB00010E0BDF80A200335033A92B2ADF80A20BB
:102EC00015F8032CD2B28DF8072015F8022CD2B2D7
:102ED0008DF8082015F8012CD2B28DF809209DF844
:102EE00007C09DF808209DF80970120242EA0C42C2
:102EF0003A4303928DF8066062795868C2EBC202C9
:102F000001EB8207BF8851F8222005901783039FA9
:102F1000049A174225D05A68059FD21B4F2AFAD926
:102F20006279C2EBC20201EB8207BF8851F822200E
:102F300057835A6805925A68059FD21B072AFAD907
:102F4000049A520804929DF806200132D2B2172A40
:102F50008DF80620D0D9BDF80A2092B2002AA6D159
:102F60005EE65A68059FD21B182AFAD96279C2EB2D
:102F7000C20201EB8207BF8851F8222057835A68AA
:102F800005925A68059FD21B452AFAD9D8E7002B2B
:102F90003FF446AE4FF40006124A0496BDF80A30DC
:102FA0000335033B9BB2ADF80A3015F8033CDBB2A6
:102FB0008DF8083015F8023CDBB28DF8073015F8B3
:102FC000013CDBB28DF809309DF808709DF80730A0
:102FD0009DF809001B0243EA0743034303938DF85E
:102FE00006101AE1FC0E0020001000E0004600BFB1
:102FF00000BF00BF00BF00BF00BF00BF00BF00BFD9
:1030000000BF00BF00BF00BF00BF00BF00BF00BFC8
:1030100000BF00BF00BF00BF00BF00BF00BF00BFB8
:1030200000BF00BF00BF00BF00BF00BF00BF00BFA8
:1030300000BF00BF00BF00BF00BF00BF00BF00BF98
:1030400000BF00BF00BF00BF00BF00BF00BF00BF88
:1030500000BF00BF00BF00BF00BF00BF00BF00BF78
:1030600000BF00BF00BF00BF00BF00BF00BF00BF68
:1030700000BF00BF00BF00BF00BF00BF00BF00BF58
:1030800000BF00BF00BF00BF00BF00BF00BF00BF48
:1030900000BF00BF00BF00BF00BF00BF00BF00BF38
:1030A00000BF00BF00BF00BF00BF00BF00BF00BF28
:1030B00000BF00BF00BF00BF00BF00BF00BF00BF18
:1030C00000BF00BF00BF00BF00BF00BF00BF00BF08
:1030D00000BF00BF00BF00BF00BF00BF00BF00BFF8
:1030E00000BF00BF00BF00BF00BF00BF00BF00BFE8
:1030F00000BF00BF63791068C3EBC30300EB830715
:10310000BF8850F823305F83004600BF00BF00BF78
:1031100000BF00BF00BF00BF00BF00BF00BF00BFB7
:1031200000BF00BF00BF00BF00BF00BF00BF00BFA7
:1031300000BF00BF00BF00BF00BF00BF00BF00BF97
:1031400000BF00BF00BF00BF00BF00BF00BF00BF87
:1031500000BF00BF00BF00BF00BF00BF00BF00BF77
:1031600000BF00BF00BF00BF00BF00BF00BF00BF67
:1031700000BF00BF00BF00BF00BF00BF00BF00BF57
:1031800000BF00BF00BF00BF00BF00BF00BF00BF47
:1031900000BF00BF00BF00BF00BF00BF00BF00BF37
:1031A00000BF00BF00BF00BF00BF00BF00BF00BF27
:1031B00000BF00BF00BF00BF00BF00BF00BF00BF17
:1031C00000BF00BF00BF00BF00BF00BF00BF00BF07
:1031D00000BF00BF00BF00BF00BF00BF00BF00BFF7
:1031E00000BF00BF00BF00BF00BF00BF00BF00BFE7
:1031F00000BF00BF00BF00BF00BF00BF00BF00BFD7
:1032000000BF049B5B0804939DF806300133DBB2DA
:10321000172B8DF8063000F2188163791068C3EB24
:10322000C30300EB8307BF8850F823301F83039844
:10323000049B18427FF4DAAE004600BF00BF00BF17
:1032400000BF00BF00BF00BF00BF00BF00BF00BF86
:1032500000BF00BF00BF00BF00BF00BF00BF00BF76
:1032600000BF00BF00BF00BF00BF00BF00BF00BF66
:1032700000BF00BF00BF00BF00BF00BF00BF00BF56
:1032800000BF00BF00BF00BF00BF63791068C3EB81
:10329000C30300EB8307BF8850F823305F830046E9
:1032A00000BF00BF00BF00BF00BF00BF00BF00BF26
:1032B00000BF00BF00BF00BF00BF00BF00BF00BF16
:1032C00000BF00BF00BF00BF00BF00BF00BF00BF06
:1032D00000BF00BF00BF00BF00BF00BF00BF00BFF6
:1032E00000BF00BF00BF00BF00BF00BF00BF00BFE6
:1032F00000BF00BF00BF00BF00BF00BF00BF00BFD6
:1033000000BF00BF00BF00BF00BF00BF00BF00BFC5
:1033100000BF00BF00BF00BF00BF00BF00BF00BFB5
:1033200000BF00BF00BF00BF00BF00BF00BF00BFA5
:1033300000BF00BF00BF00BF00BF00BF00BF00BF95
:1033400000BF00BF00BF00BF00BF00BF00BF00BF85
:1033500000BF00BF00BF00BF00BF00BF00BF00BF75
:1033600000BF00BF00BF00BF00BF00BF00BF00BF65
:1033700000BF00BF00BF00BF00BF00BF00BF00BF55
:1033800000BF00BF00BF00BF00BF00BF00BF00BF45
:1033900000BF00BF00BF00BF00BF00BF00BF00BF35
:1033A00000BF00BF00BF00BF00BF00BF00BF00BF25
:1033B00000BF00BF00BF00BF00BF00BF00BF00BF15
:1033C00000BF00BF00BF00BF00BF00BF00BF00BF05
:1033D00000BF00BF00BF00BF00BF00BF00BF00BFF5
:1033E00000BF00BF00BF00BF00BF00BF00BF00BFE5
:1033F00000BF00BF00BF00BF00BF00BF00BF00BFD5
:1034000000BF00BF00BF00BF00BF00BF00BF00BFC4
:1034100000BF00BF00BF00BF00BF00BF00BF00BFB4
:1034200000BF00BF00BF00BF00BF00BF00BF00BFA4
:1034300000BF00BF00BF00BF00BF00BF00BF00BF94
:1034400000BF00BF00BF00BFDBE6BDF80A309BB283
:10345000002B7FF4A2ADFFF7E3BB7047002B3FF4D6
:10346000DFAB4FF400010026124A0491BDF80A3088
:103470000335033B9BB2ADF80A3015F8033CDBB2D1
:103480008DF8083015F8023CDBB28DF8073015F8DE
:10349000013CDBB28DF809309DF808709DF80730CB
:1034A0009DF809001B0243EA0743034303938DF889
:1034B0000660E0E0FC0E0020004600BF00BF00BF39
:1034C00000BF00BF00BF00BF00BF00BF00BF00BF04
:1034D00000BF00BF00BF00BF00BF00BF00BF00BFF4
:1034E00000BF00BF00BF00BF00BF00BF00BF00BFE4
:1034F00000BF00BF00BF00BF00BF00BF00BF00BFD4
:1035000000BF00BF00BF00BF00BF00BF00BF00BFC3
:1035100000BF00BF00BF00BF00BF00BF00BF00BFB3
:1035200000BF00BF00BF00BF00BF00BF00BF00BFA3
:1035300000BF00BF00BF00BF00BF00BF00BF00BF93
:1035400000BF00BF00BF00BF00BF00BF00BF00BF83
:1035500000BF00BF00BF00BF00BF00BF00BF00BF73
:1035600000BF00BF00BF00BF00BF00BF00BF00BF63
:1035700000BF00BF00BF00BF00BF00BF00BF00BF53
:1035800000BF00BF00BF00BF00BF00BF00BF00BF43
:1035900000BF00BF00BF00BF00BF00BF00BF00BF33
:1035A00000BF00BF00BF00BF00BF00BF00BF00BF23
:1035B00000BF00BF00BF00BF00BF00BF00BF00BF13
:1035C00000BF00BF00BF00BF00BF00BF00BF00BF03
:1035D00000BF00BF00BF00BF00BF63791068C3EB2E
:1035E000C30300EB8307BF8850F823305F83004696
:1035F00000BF00BF00BF00BF00BF00BF00BF00BFD3
:1036000000BF00BF00BF00BF00BF00BF00BF00BFC2
:1036100000BF00BF00BF00BF00BF00BF00BF00BFB2
:1036200000BF00BF00BF00BF00BF00BF00BF00BFA2
:1036300000BF00BF00BF00BF00BF00BF00BF00BF92
:1036400000BF00BF00BF00BF00BF00BF00BF00BF82
:1036500000BF00BF00BF00BF00BF00BF00BF049B92
:103660005B0804939DF806300133DBB2172B8DF80D
:10367000063000F2E38063791068C3EBC30300EB0C
:103680008307BF8850F823301F830398049B184298
:103690007FF412AF004600BF00BF00BF00BF00BFF5
:1036A00000BF00BF00BF00BF00BF00BF00BF00BF22
:1036B00000BF00BF00BF00BF00BF00BF00BF00BF12
:1036C00000BF00BF00BF00BF00BF00BF00BF00BF02
:1036D00000BF00BF00BF00BF00BF00BF00BF00BFF2
:1036E00000BF00BF00BF00BF00BF00BF00BF00BFE2
:1036F00000BF00BF00BF00BF00BF00BF00BF00BFD2
:1037000000BF00BF00BF00BF00BF00BF00BF00BFC1
:1037100000BF00BF00BF63791068C3EBC30300EBB9
:103720008307BF8850F823305F83004600BF00BF87
:1037300000BF00BF00BF00BF00BF00BF00BF00BF91
:1037400000BF00BF00BF00BF00BF00BF00BF00BF81
:1037500000BF00BF00BF00BF00BF00BF00BF00BF71
:1037600000BF00BF00BF00BF00BF00BF00BF00BF61
:1037700000BF00BF00BF00BF00BF00BF00BF00BF51
:1037800000BF00BF00BF00BF00BF00BF00BF00BF41
:1037900000BF00BF00BF00BF00BF00BF00BF00BF31
:1037A00000BF00BF00BF00BF00BF00BF00BF00BF21
:1037B00000BF00BF00BF00BF00BF00BF00BF00BF11
:1037C00000BF00BF00BF00BF00BF00BF00BF00BF01
:1037D00000BF00BF00BF00BF00BF00BF00BF00BFF1
:1037E00000BF00BF00BF00BF00BF00BF00BF00BFE1
:1037F00000BF00BF00BF00BF00BF00BF00BF00BFD1
:1038000000BF00BF00BF00BF00BF00BF00BF00BFC0
:1038100000BF00BF00BF00BF00BF00BF00BF00BFB0
:1038200000BF00BF00BF00BF00BF00BF00BF00BFA0
:1038300000BF00BF00BF00BF00BF10E7BDF80A30E7
:103840009BB2002B7FF411AEFFF7EAB970B5058883
:103850009DF810408D4216D985792DB16A436B438E
:103860006C43120A1B0A240A8668007901EB4101A5
:10387000042806EB010507D0052801D002280AD14B
:1038800073546A70AC7070BDFE2A28BFFE22725459
:103890006C70AB70F7E772546B70AC70F3E770B597
:1038A00003888B421DD98579C2F30743C2F30724ED
:1038B000D2B23DB16B436C436A43C3F30723C4F3F5
:1038C0000724120A8668007901EB4101042806EBFF
:1038D000010507D0052801D002280AD174546B7065
:1038E000AA7070BDFE2B28BFFE2373546A70AC70A3
:1038F000F7E773546C70AA70F3E713B503888B4233
:1039000038D98268047901EB41015318042C515CC9
:103910009A785B7822D0052C01D0022C24D10902A0
:1039200041EA0343134301938179A1B19DF8042037
:103930009DF806301202B2FBF1F28DF804209DF8DA
:1039400005201B021202B2FBF1F2B3FBF1F38DF87A
:1039500005208DF80630019802B010BD120242EA2F
:10396000014213430193DFE71B0243EA0143134380
:103970000193D9E70020EFE708B501F03BFD014BCB
:10398000186008BDFC0E00207047000010B5C36031
:10399000094B04460361094B81614361029B8260CC
:1039A000036201F00FFD039BE0616362049B20460C
:1039B000A362059BE36210BD0000A0400000E84147
:1039C0002DE9F843044601F0FDFCE369C01A236ABF
:1039D000984226D901F0F6FCA6682169E0613046DC
:1039E00008F016FAE568616981462061284608F00A
:1039F0000FFA4FF00008074660614146484608F05C
:103A0000B7FC80B106F10046C4F81080A660002122
:103A1000384608F0ADFC90B105F10045C4F81480BB
:103A2000E560BDE8F88348460F4908F0ABFC002884
:103A3000EDD00E4B06F100462361A660E7E7A669CC
:103A4000304608F099FA394608F0E2F9084908F0DA
:103A500099FC0028E5D0C6F13A0008F08DFA05F18E
:103A600000456061E560DCE7000020410000104196
:103A70000000684208B5006908F0AEFC08BD08B552
:103A8000406908F0A9FC08BDC0E90912C36270478B
:103A9000704738B50446A360079B049D6362089B8A
:103AA0000598A362099B2160E36262606561A06181
:103AB000E560206101F086FC069BE0612362204600
:103AC00038BD00002DE9F84304460D4601F07AFCAC
:103AD000E369C01A236A984244D901F073FCE0619B
:103AE000D4F80480D5F810904046494608F036FCDA
:103AF0000027266820B13946A86808F02FFC58B97D
:103B00004946404608F048FC002838D00021A86803
:103B100008F042FC002832D0D4F808806D69206893
:103B200008F02AFA414608F073F9294608F016FC15
:103B3000D0B1A36923612169A06808F069F905463D
:103B4000A060304608F018FA294608F061F92B49C0
:103B500008F018FC002848D0C6F13A0008F00CFA2A
:103B60002761A060BDE8F8832946404608F014FCB0
:103B70000028E0D0A36903F100432361DBE706EBF3
:103B8000D670401008F0F8F9A16808F041F91C4916
:103B9000804608F03BF920F000453046002EB8BFC3
:103BA000F01C801008F0E8F90146284608F0F4FB04
:103BB000C8B11349404608F0EFFBA5694FF07E51AC
:103BC00048B1284608F0E8FB18B905F10045256121
:103BD000B1E70C4DFBE7284608F0DEFB0028F6D0E5
:103BE0004FF07E55F3E72761A5E70021284608F04E
:103BF000BFFB0028B6D0A7602761B3E7000068428A
:103C00000000E841000080BF08B5406808F0E4FB10
:103C100008BD08B5806808F0DFFB08BDC0E90912DF
:103C2000C362704738B50D4600220649044601F0CC
:103C3000DDF8022D05D02046BDE83840024901F0EC
:103C400013B838BDF1CA0A0842CB0A082DE9F0477B
:103C500003298AB004460E46129D53D12F4FDFF838
:103C6000D080DFF8D090102206AB009202A9204647
:103C700001F0FDF93946064602A808F096FC014617
:103C8000B8B90A2206A808F053FD022803DC002870
:103C900004DBE86104E0031F052BFAD90023EB6184
:103CA000002EE0D120461E4901F0F2F80AB0BDE82E
:103CB000F087414602A808F078FC014688B90A223C
:103CC00006A808F035FD4228E3D0A0F14D02162ADF
:103CD00004D801239340134A1342DAD14D23EB61F8
:103CE000DEE7494602A808F060FC82460028D7D1EA
:103CF00001460A2206A808F01BFD012888BF50468D
:103D0000A861CDE70022084901F070F8012ECDD15D
:103D10002046064900F0A8FFC8E700BF0ACB0A0802
:103D200021CB0A0803084000F1CA0A0842CB0A085E
:103D300015CB0A081BCB0A087047000030B50446B3
:103D4000184D89B02846184900F051FF23462846EF
:103D5000164A174900F04EFF284600F045FF21465D
:103D600000230422134801F003FD0022124B1146E8
:103D7000586801F02DFD811C02A802F013F99DF88E
:103D80000C30204601939DF80D309DF80F200093D4
:103D90000A499DF80E3001F09BFD0123A36109B093
:103DA00030BD00BF000F0020253C0A084D3C0A082A
:103DB00022CB0A082CCB0A08D014002036CB0A08E4
:103DC0004FF4807300B5C3B0044801AA02A901935F
:103DD00001F030FA43B05DF804FB00BF000F002093
:103DE00080697047C069704738B5046805467CB182
:103DF0006368013B63605BB9236820469B68984712
:103E0000A368013BA3601BB923682046DB68984781
:103E1000284638BD38B50446094B0A4D0360856312
:103E20005030FFF7E1FF2046074B40F8083F02F013
:103E30004BFEE56104F13400FFF7D6FF204638BDA4
:103E400078D30A08FCD50A08BCD60A0810B504467F
:103E5000FFF7E0FF20464FF4A47103F034FD204645
:103E600010BD000010B5064C50222046054900F058
:103E700097FE2046BDE81040034A044903F01EBDEA
:103E8000000F00203ED30A086C000020153E0A08EF
:103E900038B50023C380A3F5803304468360084609
:103EA0000D4601F0FDFC002808BF00252060A5801C
:103EB000204638BD0389C088834234BFC31A1B1A09
:103EC00098B270474FF6FF7342899A4204BF038944
:103ED000438170474FF6FF7342899A421CBF0281AB
:103EE00043817047018170470089704710B50023F6
:103EF000044623810B6808469B6CA288216898477A
:103F0000E08010BD03890268591C0181D05C7047B4
:103F100038B50546FFF7F6FF04462846FFF7F2FFDF
:103F200040EA042080B238BD0389828810B59A42E5
:103F300081BF02685C1C0481D15410BD38B50C46A9
:103F4000090AFFF7F1FFE1B2BDE83840FFF7ECBF27
:103F500038B50C46090EFFF7E7FFC4F30741FFF73A
:103F6000E3FFC4F30721FFF7DFFFE1B2BDE838400C
:103F7000FFF7DABF10B504460B680846DB682289F4
:103F8000216898470023238110BD00230381C3804B
:103F900070477047012910B5044601D0FF2907D1A9
:103FA000A06900F07DFDE069BDE8104000F082BD31
:103FB000C069BDE8104000F073BD00002DE9F04776
:103FC0001F46154B002603604FF6FF7304464660FC
:103FD000838288680D460130904601F061FCA06044
:103FE00088B1AB680370AB68F1B28B4206F1010691
:103FF0000BD92846D4F808A001F1010902F03DFAD6
:104000000AF80900EFE76368A3602046C4F810804F
:104010002773BDE8F08700BF2CD20A08F8B5044624
:104020000D46B4F914305A1C16D12846FFF75CFF30
:104030000027A368A0821E780136F6B2FBB2B34215
:1040400006D2A3682846D95DFFF76EFF0137F5E772
:104050002469002CE5D1F8BD6FEA83436FEA9343EE
:10406000284699B2BDE8F840FFF768BF4FF6FF73E6
:10407000838200690028FBD1704708B503460079A8
:1040800028B11868FFF716FF003818BF012008BDD7
:1040900038B504462068FFF735FF2071207900F01D
:1040A000C003C02B15D12068FFF704FF0028F5D00E
:1040B0002068FFF727FF25792D0205F47C5505437D
:1040C000ADB22068FFF7FEFE29462068FFF70AFF21
:1040D000E0E738BD002242720122C0E9001182727D
:1040E0008A68127802727047A1F16103192B08D80F
:1040F0004268437A92682039D05C431A584258414A
:104100007047A1F14103192B05D84268437A9268A0
:104110002031D05CF1E70020704770B50446807A0A
:10412000C8B10022657A267A6368AE4215D2B3B16F
:104130001B6963609B681B7862722372F2E79A685E
:10414000525D8A4204D01B7B4BB92046FFF7CCFF5F
:104150000135A0726572A07A70BD002BEFD10020EE
:10416000F6E72DE9F04F83B04B6900AF9B000733B2
:1041700023F00703ADEB030D0E461546E8464FF05E
:104180000009CC6801F1040A544514D00C20D4F87D
:1041900020B0FBF782FF034610B15946FFF79AFFA4
:1041A0005FFA89F2204648F8223003F0E5FB09F176
:1041B00001090446E8E70820FBF76FFF044610B149
:1041C0000123056003712046FFF757FF90B3204697
:1041D000FFF75EFF00238146726903F1010ADBB23B
:1041E0009A4206D958F823004946FFF796FF5346EE
:1041F000F2E74FF0000A5FFA8AF39945E3D92046C7
:10420000FFF73BFF0028DED02046FFF741FF0023E9
:104210000146726903F1010BDBB29A4207D958F8E3
:1042200023007960FFF779FF5B467968F1E70AF1CF
:10423000010AE0E72846FFF74DFE2379E3B97169EB
:104240008B4219D258F823200133907ADBB2002830
:10425000F6D01568002DF3D04FF0000972695FFAAF
:1042600089F393420AD258F8230010B10C2103F0CD
:104270002AFB09F10109F1E70025EDE720460821B5
:1042800003F021FB28460C37BD46BDE8F08F000047
:104290007FB504460E4668461946154602F05DF89D
:1042A0009DF824306946089A2046FFF787FE684645
:1042B00001F0BFFF2046034BC4E90665236004B04C
:1042C00070BD00BF38D20A0808B502F0C8F800383F
:1042D00018BF012008BD000030B504460F4D89B05D
:1042E00000226868114601F093FA0028F8D020688F
:1042F0000022036841F2E9411B6A9847FB232468C6
:1043000000930023E0211A4602A801F073FE204624
:1043100002A902F039FF012009B030BDD0140020FD
:1043200038B5044610461546FFF7C4FD0B2817D9CB
:104330002846FFF7EDFD20802846FFF7E9FD608065
:104340002846FFF7E5FDA0802846FFF7E1FDE08065
:104350002846FFF7DDFD20812846FFF7D9FD608163
:10436000204638BD2DE9F041002504462F46466B16
:10437000A36BB046B3420FD0306800F094FB08B195
:104380000137FFB2D8F80000043600F096FB002891
:10439000EED00135EDB2EBE7002F34D0002160689C
:1043A000FFF7CCFD4FF404416068FFF7C7FD002123
:1043B0006068FFF7C3FD39466068FFF7BFFD002165
:1043C0006068FFF7BBFD29466068FFF7B7FD656BC6
:1043D000A36BAB4209D0286800F065FB18B1616897
:1043E000286800F075FB0435F2E7656BA36BAB4200
:1043F00009D0286800F061FB18B16168286800F0F6
:1044000067FB0435F2E7A56A04F12006B54207D040
:10441000286AFFF72BFE284603F0AEFA0546F5E7BB
:10442000656BA36B9D4204D055F8040B00F069FB4B
:10443000F7E7BDE8F08138B50C460025A368E9B27E
:104440008B4213D9204602F018F820F02003413B9C
:10445000DBB2192B08D9A0F13003DBB2092B03D949
:104460002D2801D0002002E00135E7E7012038BD0A
:10447000F8B5054616461C46071D89B9BA420FD045
:1044800002F1100103F11000FFF71EFF3B46324618
:10449000214603F086FA6B69204601336B61F8BD53
:1044A0000120F3E72DE9F84F6FF06043D0E9009861
:1044B0009346A8EB0902B3EBA20F07468A464FEAE0
:1044C000A20402D11E4803F0C8FA012C224638BFCC
:1044D0000122A418A1EB09052FD23CB19C4228BFB0
:1044E0001C46A000FBF7D9FD064600E02646EE423A
:1044F0001CBFDBF800307351002D04DD2A4649460D
:10450000304607F0CBFFA8EB0A080435B8F1000FDE
:10451000354404DD42465146284607F0B1FF454484
:10452000B9F1000F02D04846FBF7BBFD06EB84044F
:10453000C7E90065BC60BDE8F88F1C46D1E700BF45
:104540003CD20A080A4610B5D0E90114A14203463C
:1045500006D009B112680A605A6804325A6010BD68
:10456000FFF7A0FFFBE72DE9F04104460F46904618
:1045700001208D680E1D5DB1404605F11001FFF769
:10458000A3FE18B1AB682E461D46F4E7EB68FAE7C8
:10459000A0B1FB68B34204D1256066602046BDE847
:1045A000F081304603F0FBF90546414605F1100065
:1045B000FFF78AFE20B100232360EEE73546F4E7DB
:1045C000C4E90050EAE72DE9F8431F460B1D9A4263
:1045D00004460E46154610D14B69002B49D0086998
:1045E00039461030FFF770FE002842D000232360C8
:1045F000336963602046BDE8F88302F1100949463B
:104600003846FFF761FE8046B8B1F368AB4201D18E
:104610002360EEE7284603F0C2F9394680461030A1
:10462000FFF752FE28B3D8F80C301BB92360C4F84A
:104630000480DFE725606560DCE739464846FFF720
:1046400043FEE0B13369AB4202D1C4F80080D0E749
:10465000284603F07EF9804600F110013846FFF746
:1046600033FE30B1EB680BB92360E4E7C4F8008097
:10467000DDE73A4631462046FFF775FFBAE7C4E961
:104680000050B7E72DE9F34100F1040806460F4654
:104690004446856855B1394605F11000FFF714FE10
:1046A00010B92C46AD68F5E7ED68F3E7A0451BD1DE
:1046B0002420FBF7F2FC00F110080546394640467D
:1046C00001F031FE002322462B6231464346684604
:1046D000FFF779FFDDE9004292B9404601F0A9FDFC
:1046E0002846FBF7DEFC06E0384604F11001FFF730
:1046F000EBFD0028DCD104F1200002B0BDE8F08120
:1047000021462B463046FFF7B3FE0446F3E7000090
:104710002DE9F04304468BB00E4602A8424901F051
:10472000D2FD04F11C09414906A801F0CCFD484620
:1047300006A9FFF7A7FF056806A801F07AFD002D7E
:104740005CD1B3683E2B6AD8314606A801F005FE5D
:10475000204606A9FFF76FFE074606A801F069FD8F
:10476000002F5CD01420FBF798FC054608B100F040
:10477000CDF965611420FBF790FC054608B100F007
:10478000DDF9636904F13408404606A90693FFF792
:10479000D9FE404606A90695FFF7D4FE314606A885
:1047A00001F0DBFD2020FBF778FC064640B100233A
:1047B0000193E3682A460093616906ABFFF768FD41
:1047C00006A801F036FD194906A801F07CFD06A9EE
:1047D0004846FFF757FF066006A801F02AFD31465C
:1047E000606900F05BF93146284600F057F902A8ED
:1047F00001F01FFD38460BB0BDE8F0830C4902A85C
:1048000001F0BEFD02A906A801F0A7FD06A902A8B5
:1048100001F0AEFD06A801F00CFD0027E7E7054911
:1048200006A801F050FDF1E7C2CA0A083ED30A0803
:1048300056D20A086BD20A082DE9F0470746242011
:104840000D4616469846FBF728FC044605F1100174
:10485000103001F082FD2B6AE96823622B786660D4
:1048600023700023C4E9023329B143462246384667
:10487000FFF7E2FFE060A1464FF0000AAE68EEB13C
:104880002420FBF70AFC054606F11001103001F068
:1048900064FD336A2B623378C5E902AA2B70C9F82C
:1048A0000850C5F80490F16829B143462A463846B5
:1048B000FFF7C2FFE860A946B668E0E72046BDE81A
:1048C000F08700002DE9F0478AB0014642680446AF
:1048D00001A8FFF725FDBDF90630002B04DBBDF86C
:1048E0000880B8F1000F02D10AB0BDE8F0870027B8
:1048F000DFF8A49004AE08E0FFF7F6FA09EB000138
:1049000004F1400001F03CFD0137FBB24345EBDA16
:104910006068FFF7CFFA0028E6D00023616A05AA95
:10492000CDE9072225698DF814300693099399B1D2
:104930006B4630460096FFF77FFF03461A469B689A
:10494000002BFBD1034607921A46DB68002BFBD1F4
:10495000236B089209930690626831462846FFF758
:1049600000FC069905463046FDF786FF6068FFF7B4
:10497000A1FA03286068BFD9FFF7CAFA82466068C7
:10498000FFF7C6FA0246002DBED02B6851462846D6
:104990001B689847B8E700BF7CD20A08F0B5044608
:1049A00000680021036889B05B6C984785B265B3E5
:1049B000D4E90010FFF79AFA20680368DB6998478A
:1049C0002046FFF77FFF6068FFF7DFFA2046FFF71A
:1049D000C9FC6068FFF76EFAB8B12668E021336859
:1049E00002A89F6BFB23009300231A4601F002FBF1
:1049F00041F2E94202A93046B847D4E90010FFF776
:104A0000B9FA206803681B6C9847281E18BF01205C
:104A100009B0F0BD38B50C46054605212046FFF724
:104A20008DFA21466868FFF7F9FA20460021FFF762
:104A30007BFA20460121FFF777FA2046BDE838408F
:104A40004021FFF771BA000010B50C4686B0204631
:104A50000421FFF773FA00220F4B1146586800F04B
:104A6000B7FE811C684601F09DFA20469DF80710AC
:104A7000FFF75AFA20469DF80610FFF755FA204630
:104A80009DF80510FFF750FA20469DF80410FFF737
:104A90004BFA06B010BD00BFD01400204160704733
:104AA0000123037470470346007C10B1987C80F0AA
:104AB000010070470123437470470346407C30B1C6
:104AC0001A7C1AB9987C80F001007047002070476A
:104AD00070B50D4604464068FFF7A0FA28462189C4
:104AE000FFF72CFA28460121FFF728FA2846E1684B
:104AF000FFF72EFA236829462046BDE870401B6860
:104B0000184700230382837470470000012202814A
:104B10007822C260002202828274014A02607047D9
:104B2000B8D20A082F2202817822C26000220282B3
:104B30008274014A02607047A0D20A0808B5034691
:104B4000FFF7F0FF014A18461A6008BDACD20A0808
:104B500010B590F8443104465A1CD2B20344202ABE
:104B600080F8442183F8241107D100F59271383080
:104B700001F0B1FC002384F84431012010BD10B5D0
:104B8000044603689B689847A368013BA3602BB960
:104B900023682046BDE81040DB68184710BD0000C0
:104BA00070B5002504460E460D4B114645602A4659
:104BB00040F8083B01F058FF04F1380001F0B0FE66
:104BC000084B2046C4E92D33666584F87850E567C4
:104BD00084F81C51C4F8205184F8445170BD00BFC2
:104BE00078D30A08E94D0A08083001F079BFC0F807
:104BF000B810704730B590F81C51072D09D80C2417
:104C000004FB05040135C4E92F1280F81C51C4F8D7
:104C1000C43030BD10B590F8442104463AB100F5D7
:104C20009271383001F057FC002384F8443110BDF4
:104C300070B504460D461646FFF7ECFF324629468E
:104C400004F13800BDE8704001F045BC70B5054680
:104C50000C468E18B44206D02B6828469B6814F880
:104C6000011B9847F6E770BD38B504460D4615F8A8
:104C7000011B21B1236820469B689847F7E738BDA0
:104C8000014901F079BA00BF3CD30A082DE9F04F81
:104C900014780646884699468FB024B12F2C40F0F0
:104CA0008880547864B900234146009330464B46CF
:104CB000D6F8B840404AA04701200FB0BDE8F08FB9
:104CC0003F2C05D100240094D0F8B8400232F2E71E
:104CD000541C3F21204607F05BFC074690BB204652
:104CE00007F091FC85B2003F18BF01274FF0000B81
:104CF00096F81C31039306F1BC030493039B5FFAFF
:104D00008BF2934224D90C2303FB0BFA049B53F838
:104D10000A100846059107F076FC8542059914D1E2
:104D20002A46204607F077FC78B9B244DAF8C43056
:104D30007A19009341464B463046DAF8C070224457
:104D4000B847B9E7051BADB2CDE70BF1010BD5E7CD
:104D5000D6F820010028B0D01C2200210DEB020063
:104D600007F0B6FB002122460123084604EB050CA0
:104D700061550694944511D912F8011B2F29F9D1D8
:104D8000591CC9B20DF1380E0EEB8303082902F845
:104D9000010C43F8202C01D00B46EBE73D44414683
:104DA0003046D6F82071CDF80090631906AAB847AE
:104DB00082E7002081E700BF3ED30A0810B5044611
:104DC0000649FFF751FF20460549FFF74DFF2046F2
:104DD000BDE810400349FFF747BF00BFB3D40A083E
:104DE00058D30A08CED40A08FFF7E8BF70B50446C6
:104DF0000E4615460D49FFF737FF20460C49FFF7D1
:104E000033FF20460B49FFF72FFF3146204601F0C4
:104E1000B3F92046FFF734FF1DB12946204601F0C3
:104E2000ABF92046BDE87040FFF72ABF88D30A08D7
:104E300058D30A089AD30A0838B50D460022064905
:104E40000446FFF7D3FF022D05D02046BDE83840C9
:104E50000249FFF709BF38BDBCD20A08FCD40A08D2
:104E600038B50D46074A08490446FFF7BFFF022D33
:104E700006D02046BDE83840C6220449FFF7E6BE0A
:104E800038BD00BFC7D20A08E9D20A08EDD30A0824
:104E900038B504460D460B49FFF7E6FE20460A49A1
:104EA000FFF7E2FE20460949FFF7DEFE29462046CD
:104EB00001F062F92046FFF7E3FE2046BDE83840E6
:104EC000FFF7DEBEC9D30A0858D30A08E2D30A089E
:104ED0004B1C0ED090F87820531CDBB2202B80F8AE
:104EE000783008BF1F23024482F8581008BF80F8AA
:104EF00078307047002310B500F1380480F878301E
:104F0000204601F0FCFA2046BDE8104001F058BCF4
:104F1000F8B500F138070446384601F084FC18B9AA
:104F20004FF0FF352846F8BD94F8780020BB00F01C
:104F300049FA00F57A76384601F099FC0028EFD05E
:104F400094F8B33013B1E36F002BE9D0384601F089
:104F500040FB431C054607D094F8B330002BE1D04A
:104F6000E36F013BE367DDE700F02CFA8642E2D213
:104F70002046FFF7BFFFD5E70138C0B284F87800BC
:104F8000044494F85850CDE770B505460E460C46DB
:104F900014F8013B9BB12846FFF7BAFF14F8013C17
:104FA00001468342F4D02846FFF792FF013CB44209
:104FB00007D0284614F8011DFFF78AFFF7E7012004
:104FC00070BD0020FCE700232DE9F04105460C46AA
:104FD0000B602846FFF79CFF2028FAD00928F8D05C
:104FE0002D2814D12846FFF793FF012600274FF004
:104FF0000A08A0F13003092B0BD82368012708FB0E
:105000000301303928462160FFF782FFF1E70026CF
:10501000ECE701462846FFF75BFF16B123685B42C9
:1050200023603846BDE8F08170B50C46154606464B
:105030000021204607F04CFA013D3046FFF768FF9B
:1050400020280146F9D00928F7D0012DC8BF04F85F
:10505000011B3046C8BF05F1FF35FFF759FF0D288A
:105060000146F2D13046BDE87040FFF731BF2DE96F
:10507000F3470D461C464FF0000A0A9F0021804668
:105080002846164607F024FA3A460021204607F043
:105090001FFAD146013E013F4046FFF739FF421C4F
:1050A00015D02B282CD03D2815D0262830D02528E7
:1050B00020D14046FFF72CFF82464046FFF728FFED
:1050C000BAF1FF3F01D0431C09D14FF0000A50460E
:1050D00002B0BDE8F08700264FF0010ADCE78DF84A
:1050E00005001022002101A88DF806908DF804A07B
:1050F00007F0A4FB002E05DD05F8010B013EEBE7F0
:105100002020F7E7002FE7DD04F8010B013FE3E77C
:105110004FF0010ADBE70000F8B51E461B680C469D
:10512000013B336000230B70224905461746FFF709
:105130002BFF70B10123237044F601042846FFF7CA
:10514000E7FE431C0E2B28D920282AD100233B70D0
:10515000F8BD28461849FFF717FF08B10223EAE710
:1051600028461649FFF710FF08B10323E3E7284656
:105170001349FFF709FF08B10423DCE7284611496A
:10518000FFF702FF08B10523D5E728460E49FFF7D0
:10519000FBFE0028DCD00623CDE724FA03F3DB076F
:1051A000D4D43368002BC8BF07F8010B3368013B28
:1051B0003360C3E7F6D20A08FBD20A0801D30A0813
:1051C00007D30A080CD30A0814D30A08F8B5002339
:1051D0000446154D154E164F80F88030294620465E
:1051E000FFF7D2FE28B1204604F17C01FFF7EBFE69
:1051F000F4E731462046FFF7C7FE30B133222046A0
:1052000004F18001FFF710FFE8E739462046FFF779
:10521000BBFE18B1012384F8B330F8BD2046FFF778
:1052200077FE0130DAD1F8E71BD30A082BD30A083E
:105230003AD30A082DE9F04304468BB0406D0D4681
:10524000164607F0E0F904F10801804603A801F0D2
:10525000B7FC049B099FE363059B04F138092364B1
:10526000069B6364079BA364089BE364236D9F42D2
:105270000CD017B17B6801337B60206D28B1436887
:10528000013B43600BB9FFF77AFC2765324B09A855
:105290000393FEF7A9FD484601F0C5FA002839D06E
:1052A00000232A4684F8B3308DF80C302B7020464A
:1052B000334603A9FFF730FF9DF80C306BB1204651
:1052C000FFF784FF2846254907F06FF99DF80C7019
:1052D00018BB39462046FFF7AFFD37689DF80C90A4
:1052E000FF43FF0FB9F1000F05D042462846616D1C
:1052F00007F091F9E0B100232A46009349463B4666
:10530000D4F8B4602046B0472046FFF783FC20461F
:10531000FFF7F0FD0BB0BDE8F0832846104907F019
:1053200044F90028D9D139462046FFF799FDD4E742
:105330003B464946204605EB0802FFF7A7FC00283C
:10534000E2D133682A46DB43D4F8B4609DF80C10F0
:105350000090DB0FD6E700BFFCD50A083FD30A0850
:105360004BD30A0808B5024B1B68DB69019308BDE3
:10537000D001060808B5024B1B685B6C019308BDA1
:10538000D001060808B5024B1B689B6C019308BD51
:10539000D001060808B5024B1B685B68019308BD85
:1053A0009C01060808B5024B1B68DB68019308BD29
:1053B0009C01060808B5024B1B681B69019308BDD8
:1053C0009C01060808B5024B1B685B69019308BD88
:1053D0009C01060808B5024B1B689B6D019308BD34
:1053E0009C01060808B5024B1B685B6E019308BD63
:1053F0009C01060808B5024B1B681B68019308BD99
:10540000B001060808B5024B1B685B68019308BD34
:10541000B001060808B5024B1B689B68019308BDE4
:10542000B001060808B5024B1B68DB68019308BD94
:10543000B001060808B5024B1B681B69019308BD43
:10544000B001060808B5024B1B681B6B019308BD31
:10545000B001060808B5024B1B681B6E019308BD1E
:10546000AC01060808B5024B1B685B6E019308BDD2
:10547000AC01060808B5024B1B689B6E019308BD82
:10548000AC01060808B5024B1B68DB6E019308BD32
:10549000AC01060808B5024B1B681B6F019308BDE1
:1054A000AC01060808B5024B1B685B6F019308BD91
:1054B000AC01060808B5034B1B68D3F88030019394
:1054C00008BD0000AC01060808B5024B1B681B684C
:1054D000019308BDBC01060808B5024B1B685B6858
:1054E000019308BDBC01060808B5024B1B689B6808
:1054F000019308BDBC01060808B5024B1B68DB68B8
:10550000019308BDBC01060808B5024B1B681B6966
:10551000019308BDBC01060808B5024B1B68DB6996
:10552000019308BDBC01060808B5024B1B681B6A45
:10553000019308BDBC01060808B5024B1B689B6AB5
:10554000019308BDBC01060808B5024B1B68DB6A65
:10555000019308BDBC01060808B5024B1B681B6B14
:10556000019308BDBC01060808B5024B1B685B6BC4
:10557000019308BDBC01060808B5024B1B68DB6B34
:10558000019308BDBC01060808B5024B1B685B6CA3
:10559000019308BDBC01060808B5024B1B689B6C53
:1055A000019308BDBC01060808B5024B1B68DB6906
:1055B000019308BDB401060808B5024B1B681B6ABD
:1055C000019308BDB401060808B5024B1B689B692E
:1055D000019308BDC401060808B5024B1B685B6A4D
:1055E000019308BDC401060808B5024B1B689B6AFD
:1055F000019308BDC401060808B5024B1B68DB6AAD
:10560000019308BDC401060808B5024B1B681B6B5B
:10561000019308BDC401060808B5024B1B685B6B0B
:10562000019308BDC401060808B5024B1B689B6BBB
:10563000019308BDC401060808B5024B1B681B6C2A
:10564000019308BDC401060808B5024B1B681B681E
:10565000019308BDD801060808B5024B1B681B69F9
:10566000019308BDD801060808B5024B1B685B69A9
:10567000019308BDD801060808B5024B1B689B6959
:10568000019308BDD801060808B5024B1B68DB6909
:10569000019308BDD801060808B5024B1B681B6AB8
:1056A000019308BDD801060808B5024B1B685B6C66
:1056B000019308BDC001060808B5024B1B689B6C2E
:1056C000019308BDC001060808B5024B1B685B6B5F
:1056D000019308BDA801020808B5024B1B681B6DA9
:1056E000019308BDA801020808B5024B1B681B689E
:1056F000019308BDA401060808B5024B1B685B684E
:10570000019308BDA401060808B5024B1B685B693C
:10571000019308BDA401060808B5024B1B68DB6CA9
:10572000019308BDA401060808B5024B1B685B6D18
:10573000019308BDA401060808B5024B1B689B6DC8
:10574000019308BDA401060808B5034B1B68D3F8F4
:105750009030019308BD0000A401060808B5034B72
:105760001B68D3F89C30019308BD0000A401060813
:1057700008B5024B1B681B68019308BDCC010608E5
:1057800008B5024B1B689B68019308BDCC01060855
:1057900008B5024B1B685B69019308BDCC01060884
:1057A00008B5024B1B681B6A019308BDCC010608B3
:1057B00008B5024B1B681B6B019308BDCC010608A2
:1057C00008B5024B1B68DB6B019308BDCC010608D2
:1057D00008B5024B1B681B68019308BDC801060889
:1057E00008B5024B1B685B68019308BDC801060839
:1057F00008B5024B1B689B68019308BDC8010608E9
:1058000008B5024B1B68DB68019308BDC801060898
:1058100008B5024B1B681B69019308BDC801060847
:1058200008B5024B1B685B69019308BDC8010608F7
:1058300008B5024B1B689B69019308BDC8010608A7
:1058400008B5024B1B68DB69019308BDC801060857
:1058500008B5024B1B681B6A019308BDC801060806
:1058600008B5024B1B681B6B019308BDC8010608F5
:1058700008B5024B1B685B6B019308BDC8010608A5
:1058800008B5024B1B681B6C019308BDC8010608D4
:1058900008B5024B1B685B6C019308BDC801060884
:1058A00008B5024B1B681B68019308BDA0010608E0
:1058B00008B5024B1B685B68019308BDA001060890
:1058C00008B5024B1B689B68019308BDA001060840
:1058D00008B5024B1B68DB68019308BDA0010608F0
:1058E00008B5024B1B68DB6A019308BDA0010608DE
:1058F00008B5024B1B681B6B019308BDA00106088D
:1059000008B5024B1B68DB6B019308BDA0010608BC
:1059100008B5024B1B685B6C019308BDA00106082B
:105920000021FFF7F1BE10B5836804460BB902F001
:1059300097F8C3689847A3681BB103222146204605
:1059400098472046BDE81040102101F0BCBF7047C9
:105950000020704710B50446102101F0B4FF204626
:1059600010BD08B5FFF7F6FF08BD10B58368044603
:1059700013B1032201469847204610BD002230B5DE
:105980004FF69C74026084808D888C800C688580C2
:1059900004600A6030BD10B504460068FFF788FF58
:1059A000204610BD38B5C468F4B12378022B03D16A
:1059B00004F10C00FFF7EFFF656835B12846FFF7EB
:1059C000D4FF1021284601F07EFFA56835B1284696
:1059D000FFF7CBFF1021284601F075FF2046BDE8F8
:1059E0003840142101F06FBF38BD0B68036013B15C
:1059F0005A6801325A60704773B50E46044656F82D
:105A0000043B0D4601A831460093FFF7EEFF009BD3
:105A1000019A23600023626001A801930093FEF7BE
:105A2000E3F93046FEF7E0F92846082101F04BFF84
:105A3000204602B070BD13B56C460B46024603C843
:105A400084E8030093E8030082E8030094E803007D
:105A500083E8030002B010BD826810B50AB901F0F6
:105A6000FFFFC368BDE81040184708B5006800F1A3
:105A70001001FFF7F1FF08BD826810B50AB901F007
:105A8000EFFFC368BDE81040184708B5006800F193
:105A90001001FFF7F1FF08BD38B50023044603608D
:105AA00010200D46FAF7F9FA28B10123C0E90133B5
:105AB000024BC56003602060204638BD24D50A082B
:105AC00038B5002383608B6804460D462BB1022253
:105AD0009847EB68E360AB68A360204638BD0000E0
